{
  "contracts/Voting.sol": {
    "Voting": {
      "abi": [
        {
          "inputs": [],
          "stateMutability": "nonpayable",
          "type": "constructor"
        },
        {
          "anonymous": false,
          "inputs": [
            {
              "indexed": false,
              "internalType": "uint256",
              "name": "candidateId",
              "type": "uint256"
            },
            {
              "indexed": false,
              "internalType": "string",
              "name": "name",
              "type": "string"
            }
          ],
          "name": "CandidateAdded",
          "type": "event"
        },
        {
          "anonymous": false,
          "inputs": [
            {
              "indexed": false,
              "internalType": "address",
              "name": "voter",
              "type": "address"
            },
            {
              "indexed": false,
              "internalType": "uint256",
              "name": "candidateId",
              "type": "uint256"
            }
          ],
          "name": "Voted",
          "type": "event"
        },
        {
          "anonymous": false,
          "inputs": [],
          "name": "VotingEnded",
          "type": "event"
        },
        {
          "anonymous": false,
          "inputs": [],
          "name": "VotingStarted",
          "type": "event"
        },
        {
          "inputs": [
            {
              "internalType": "string",
              "name": "_name",
              "type": "string"
            }
          ],
          "name": "addCandidate",
          "outputs": [],
          "stateMutability": "nonpayable",
          "type": "function"
        },
        {
          "inputs": [],
          "name": "admin",
          "outputs": [
            {
              "internalType": "address",
              "name": "",
              "type": "address"
            }
          ],
          "stateMutability": "view",
          "type": "function"
        },
        {
          "inputs": [
            {
              "internalType": "uint256",
              "name": "",
              "type": "uint256"
            }
          ],
          "name": "candidates",
          "outputs": [
            {
              "internalType": "uint256",
              "name": "id",
              "type": "uint256"
            },
            {
              "internalType": "string",
              "name": "name",
              "type": "string"
            },
            {
              "internalType": "uint256",
              "name": "voteCount",
              "type": "uint256"
            }
          ],
          "stateMutability": "view",
          "type": "function"
        },
        {
          "inputs": [],
          "name": "candidatesCount",
          "outputs": [
            {
              "internalType": "uint256",
              "name": "",
              "type": "uint256"
            }
          ],
          "stateMutability": "view",
          "type": "function"
        },
        {
          "inputs": [],
          "name": "endVoting",
          "outputs": [],
          "stateMutability": "nonpayable",
          "type": "function"
        },
        {
          "inputs": [],
          "name": "getWinner",
          "outputs": [
            {
              "internalType": "uint256",
              "name": "winnerId",
              "type": "uint256"
            },
            {
              "internalType": "string",
              "name": "winnerName",
              "type": "string"
            },
            {
              "internalType": "uint256",
              "name": "winnerVoteCount",
              "type": "uint256"
            }
          ],
          "stateMutability": "view",
          "type": "function"
        },
        {
          "inputs": [],
          "name": "startVoting",
          "outputs": [],
          "stateMutability": "nonpayable",
          "type": "function"
        },
        {
          "inputs": [
            {
              "internalType": "uint256",
              "name": "_candidateId",
              "type": "uint256"
            }
          ],
          "name": "vote",
          "outputs": [],
          "stateMutability": "nonpayable",
          "type": "function"
        },
        {
          "inputs": [
            {
              "internalType": "address",
              "name": "",
              "type": "address"
            }
          ],
          "name": "voters",
          "outputs": [
            {
              "internalType": "bool",
              "name": "hasVoted",
              "type": "bool"
            },
            {
              "internalType": "uint256",
              "name": "candidateId",
              "type": "uint256"
            }
          ],
          "stateMutability": "view",
          "type": "function"
        },
        {
          "inputs": [],
          "name": "votingOpen",
          "outputs": [
            {
              "internalType": "bool",
              "name": "",
              "type": "bool"
            }
          ],
          "stateMutability": "view",
          "type": "function"
        }
      ],
      "evm": {
        "bytecode": {
          "linkReferences": {},
          "object": "6080604052348015600f57600080fd5b50336000806101000a81548173ffffffffffffffffffffffffffffffffffffffff021916908373ffffffffffffffffffffffffffffffffffffffff16021790555060008060146101000a81548160ff0219169083151502179055506112f4806100796000396000f3fe608060405234801561001057600080fd5b506004361061009e5760003560e01c80638e7ea5b2116100665780638e7ea5b214610135578063a3ec138d14610155578063a95824b414610186578063c3403ddf146101a4578063f851a440146101ae5761009e565b80630121b93f146100a35780631ec6b60a146100bf5780632d35a8a2146100c95780633477ee2e146100e7578063462e91ec14610119575b600080fd5b6100bd60048036038101906100b89190610983565b6101cc565b005b6100c76103e8565b005b6100d16104bf565b6040516100de91906109bf565b60405180910390f35b61010160048036038101906100fc9190610983565b6104c5565b60405161011093929190610a6a565b60405180910390f35b610133600480360381019061012e9190610bdd565b610577565b005b61013d6106bb565b60405161014c93929190610a6a565b60405180910390f35b61016f600480360381019061016a9190610c84565b6107fb565b60405161017d929190610ccc565b60405180910390f35b61018e61082c565b60405161019b9190610cf5565b60405180910390f35b6101ac61083f565b005b6101b6610915565b6040516101c39190610d1f565b60405180910390f35b600060149054906101000a900460ff1661021b576040517f08c379a000000000000000000000000000000000000000000000000000000000815260040161021290610d86565b60405180910390fd5b600160003373ffffffffffffffffffffffffffffffffffffffff1673ffffffffffffffffffffffffffffffffffffffff16815260200190815260200160002060000160009054906101000a900460ff16156102ab576040517f08c379a00000000000000000000000000000000000000000000000000000000081526004016102a290610df2565b60405180910390fd5b6000811180156102bd57506003548111155b6102fc576040517f08c379a00000000000000000000000000000000000000000000000000000000081526004016102f390610e5e565b60405180910390fd5b604051806040016040528060011515815260200182815250600160003373ffffffffffffffffffffffffffffffffffffffff1673ffffffffffffffffffffffffffffffffffffffff16815260200190815260200160002060008201518160000160006101000a81548160ff021916908315150217905550602082015181600101559050506002600082815260200190815260200160002060020160008154809291906103a790610ead565b91905055507f4d99b957a2bc29a30ebd96a7be8e68fe50a3c701db28a91436490b7d53870ca433826040516103dd929190610ef5565b60405180910390a150565b60008054906101000a900473ffffffffffffffffffffffffffffffffffffffff1673ffffffffffffffffffffffffffffffffffffffff163373ffffffffffffffffffffffffffffffffffffffff1614610476576040517f08c379a000000000000000000000000000000000000000000000000000000000815260040161046d90610f90565b60405180910390fd5b6001600060146101000a81548160ff0219169083151502179055507f877e2548498f42b7975a186b94ef1d32c86d420b7b806dd2be2bea293b89590460405160405180910390a1565b60035481565b60026020528060005260406000206000915090508060000154908060010180546104ee90610fdf565b80601f016020809104026020016040519081016040528092919081815260200182805461051a90610fdf565b80156105675780601f1061053c57610100808354040283529160200191610567565b820191906000526020600020905b81548152906001019060200180831161054a57829003601f168201915b5050505050908060020154905083565b60008054906101000a900473ffffffffffffffffffffffffffffffffffffffff1673ffffffffffffffffffffffffffffffffffffffff163373ffffffffffffffffffffffffffffffffffffffff1614610605576040517f08c379a00000000000000000000000000000000000000000000000000000000081526004016105fc90610f90565b60405180910390fd5b6003600081548092919061061890610ead565b919050555060405180606001604052806003548152602001828152602001600081525060026000600354815260200190815260200160002060008201518160000155602082015181600101908161066f91906111bc565b50604082015181600201559050507fe83b2a43e7e82d975c8a0a6d2f045153c869e111136a34d1889ab7b598e396a3600354826040516106b092919061128e565b60405180910390a150565b60006060600080600090506000600190505b60035481116107f45781600260008381526020019081526020016000206002015411156107e157600260008281526020019081526020016000206002015491506002600082815260200190815260200160002060000154945060026000828152602001908152602001600020600101805461074790610fdf565b80601f016020809104026020016040519081016040528092919081815260200182805461077390610fdf565b80156107c05780601f10610795576101008083540402835291602001916107c0565b820191906000526020600020905b8154815290600101906020018083116107a357829003601f168201915b50505050509350600260008281526020019081526020016000206002015492505b80806107ec90610ead565b9150506106cd565b5050909192565b60016020528060005260406000206000915090508060000160009054906101000a900460ff16908060010154905082565b600060149054906101000a900460ff1681565b60008054906101000a900473ffffffffffffffffffffffffffffffffffffffff1673ffffffffffffffffffffffffffffffffffffffff163373ffffffffffffffffffffffffffffffffffffffff16146108cd576040517f08c379a00000000000000000000000000000000000000000000000000000000081526004016108c490610f90565b60405180910390fd5b60008060146101000a81548160ff0219169083151502179055507f7a19ed057db79e3c2fa0b97a54b43bef4fce74b31bb6c01af514b9a18a7f70ab60405160405180910390a1565b60008054906101000a900473ffffffffffffffffffffffffffffffffffffffff1681565b6000604051905090565b600080fd5b600080fd5b6000819050919050565b6109608161094d565b811461096b57600080fd5b50565b60008135905061097d81610957565b92915050565b60006020828403121561099957610998610943565b5b60006109a78482850161096e565b91505092915050565b6109b98161094d565b82525050565b60006020820190506109d460008301846109b0565b92915050565b600081519050919050565b600082825260208201905092915050565b60005b83811015610a145780820151818401526020810190506109f9565b60008484015250505050565b6000601f19601f8301169050919050565b6000610a3c826109da565b610a4681856109e5565b9350610a568185602086016109f6565b610a5f81610a20565b840191505092915050565b6000606082019050610a7f60008301866109b0565b8181036020830152610a918185610a31565b9050610aa060408301846109b0565b949350505050565b600080fd5b600080fd5b7f4e487b7100000000000000000000000000000000000000000000000000000000600052604160045260246000fd5b610aea82610a20565b810181811067ffffffffffffffff82111715610b0957610b08610ab2565b5b80604052505050565b6000610b1c610939565b9050610b288282610ae1565b919050565b600067ffffffffffffffff821115610b4857610b47610ab2565b5b610b5182610a20565b9050602081019050919050565b82818337600083830152505050565b6000610b80610b7b84610b2d565b610b12565b905082815260208101848484011115610b9c57610b9b610aad565b5b610ba7848285610b5e565b509392505050565b600082601f830112610bc457610bc3610aa8565b5b8135610bd4848260208601610b6d565b91505092915050565b600060208284031215610bf357610bf2610943565b5b600082013567ffffffffffffffff811115610c1157610c10610948565b5b610c1d84828501610baf565b91505092915050565b600073ffffffffffffffffffffffffffffffffffffffff82169050919050565b6000610c5182610c26565b9050919050565b610c6181610c46565b8114610c6c57600080fd5b50565b600081359050610c7e81610c58565b92915050565b600060208284031215610c9a57610c99610943565b5b6000610ca884828501610c6f565b91505092915050565b60008115159050919050565b610cc681610cb1565b82525050565b6000604082019050610ce16000830185610cbd565b610cee60208301846109b0565b9392505050565b6000602082019050610d0a6000830184610cbd565b92915050565b610d1981610c46565b82525050565b6000602082019050610d346000830184610d10565b92915050565b7f566f74696e67206973206e6f742063757272656e746c79206f70656e2e000000600082015250565b6000610d70601d836109e5565b9150610d7b82610d3a565b602082019050919050565b60006020820190508181036000830152610d9f81610d63565b9050919050565b7f596f75206861766520616c726561647920766f7465642e000000000000000000600082015250565b6000610ddc6017836109e5565b9150610de782610da6565b602082019050919050565b60006020820190508181036000830152610e0b81610dcf565b9050919050565b7f496e76616c69642063616e6469646174652049442e0000000000000000000000600082015250565b6000610e486015836109e5565b9150610e5382610e12565b602082019050919050565b60006020820190508181036000830152610e7781610e3b565b9050919050565b7f4e487b7100000000000000000000000000000000000000000000000000000000600052601160045260246000fd5b6000610eb88261094d565b91507fffffffffffffffffffffffffffffffffffffffffffffffffffffffffffffffff8203610eea57610ee9610e7e565b5b600182019050919050565b6000604082019050610f0a6000830185610d10565b610f1760208301846109b0565b9392505050565b7f4f6e6c792061646d696e2063616e20706572666f726d2074686973206163746960008201527f6f6e2e0000000000000000000000000000000000000000000000000000000000602082015250565b6000610f7a6023836109e5565b9150610f8582610f1e565b604082019050919050565b60006020820190508181036000830152610fa981610f6d565b9050919050565b7f4e487b7100000000000000000000000000000000000000000000000000000000600052602260045260246000fd5b60006002820490506001821680610ff757607f821691505b60208210810361100a57611009610fb0565b5b50919050565b60008190508160005260206000209050919050565b60006020601f8301049050919050565b600082821b905092915050565b6000600883026110727fffffffffffffffffffffffffffffffffffffffffffffffffffffffffffffffff82611035565b61107c8683611035565b95508019841693508086168417925050509392505050565b6000819050919050565b60006110b96110b46110af8461094d565b611094565b61094d565b9050919050565b6000819050919050565b6110d38361109e565b6110e76110df826110c0565b848454611042565b825550505050565b600090565b6110fc6110ef565b6111078184846110ca565b505050565b5b8181101561112b576111206000826110f4565b60018101905061110d565b5050565b601f8211156111705761114181611010565b61114a84611025565b81016020851015611159578190505b61116d61116585611025565b83018261110c565b50505b505050565b600082821c905092915050565b600061119360001984600802611175565b1980831691505092915050565b60006111ac8383611182565b9150826002028217905092915050565b6111c5826109da565b67ffffffffffffffff8111156111de576111dd610ab2565b5b6111e88254610fdf565b6111f382828561112f565b600060209050601f8311600181146112265760008415611214578287015190505b61121e85826111a0565b865550611286565b601f19841661123486611010565b60005b8281101561125c57848901518255600182019150602085019450602081019050611237565b868310156112795784890151611275601f891682611182565b8355505b6001600288020188555050505b505050505050565b60006040820190506112a360008301856109b0565b81810360208301526112b58184610a31565b9050939250505056fea2646970667358221220670d2996dd61bdf2e4c51e495f55fd3003f71baa2f96a1021fc79fceeba331c164736f6c634300081b0033",
          "opcodes": "PUSH1 0x80 PUSH1 0x40 MSTORE CALLVALUE DUP1 ISZERO PUSH1 0xF JUMPI PUSH1 0x0 DUP1 REVERT JUMPDEST POP CALLER PUSH1 0x0 DUP1 PUSH2 0x100 EXP DUP2 SLOAD DUP2 PUSH20 0xFFFFFFFFFFFFFFFFFFFFFFFFFFFFFFFFFFFFFFFF MUL NOT AND SWAP1 DUP4 PUSH20 0xFFFFFFFFFFFFFFFFFFFFFFFFFFFFFFFFFFFFFFFF AND MUL OR SWAP1 SSTORE POP PUSH1 0x0 DUP1 PUSH1 0x14 PUSH2 0x100 EXP DUP2 SLOAD DUP2 PUSH1 0xFF MUL NOT AND SWAP1 DUP4 ISZERO ISZERO MUL OR SWAP1 SSTORE POP PUSH2 0x12F4 DUP1 PUSH2 0x79 PUSH1 0x0 CODECOPY PUSH1 0x0 RETURN INVALID PUSH1 0x80 PUSH1 0x40 MSTORE CALLVALUE DUP1 ISZERO PUSH2 0x10 JUMPI PUSH1 0x0 DUP1 REVERT JUMPDEST POP PUSH1 0x4 CALLDATASIZE LT PUSH2 0x9E JUMPI PUSH1 0x0 CALLDATALOAD PUSH1 0xE0 SHR DUP1 PUSH4 0x8E7EA5B2 GT PUSH2 0x66 JUMPI DUP1 PUSH4 0x8E7EA5B2 EQ PUSH2 0x135 JUMPI DUP1 PUSH4 0xA3EC138D EQ PUSH2 0x155 JUMPI DUP1 PUSH4 0xA95824B4 EQ PUSH2 0x186 JUMPI DUP1 PUSH4 0xC3403DDF EQ PUSH2 0x1A4 JUMPI DUP1 PUSH4 0xF851A440 EQ PUSH2 0x1AE JUMPI PUSH2 0x9E JUMP JUMPDEST DUP1 PUSH4 0x121B93F EQ PUSH2 0xA3 JUMPI DUP1 PUSH4 0x1EC6B60A EQ PUSH2 0xBF JUMPI DUP1 PUSH4 0x2D35A8A2 EQ PUSH2 0xC9 JUMPI DUP1 PUSH4 0x3477EE2E EQ PUSH2 0xE7 JUMPI DUP1 PUSH4 0x462E91EC EQ PUSH2 0x119 JUMPI JUMPDEST PUSH1 0x0 DUP1 REVERT JUMPDEST PUSH2 0xBD PUSH1 0x4 DUP1 CALLDATASIZE SUB DUP2 ADD SWAP1 PUSH2 0xB8 SWAP2 SWAP1 PUSH2 0x983 JUMP JUMPDEST PUSH2 0x1CC JUMP JUMPDEST STOP JUMPDEST PUSH2 0xC7 PUSH2 0x3E8 JUMP JUMPDEST STOP JUMPDEST PUSH2 0xD1 PUSH2 0x4BF JUMP JUMPDEST PUSH1 0x40 MLOAD PUSH2 0xDE SWAP2 SWAP1 PUSH2 0x9BF JUMP JUMPDEST PUSH1 0x40 MLOAD DUP1 SWAP2 SUB SWAP1 RETURN JUMPDEST PUSH2 0x101 PUSH1 0x4 DUP1 CALLDATASIZE SUB DUP2 ADD SWAP1 PUSH2 0xFC SWAP2 SWAP1 PUSH2 0x983 JUMP JUMPDEST PUSH2 0x4C5 JUMP JUMPDEST PUSH1 0x40 MLOAD PUSH2 0x110 SWAP4 SWAP3 SWAP2 SWAP1 PUSH2 0xA6A JUMP JUMPDEST PUSH1 0x40 MLOAD DUP1 SWAP2 SUB SWAP1 RETURN JUMPDEST PUSH2 0x133 PUSH1 0x4 DUP1 CALLDATASIZE SUB DUP2 ADD SWAP1 PUSH2 0x12E SWAP2 SWAP1 PUSH2 0xBDD JUMP JUMPDEST PUSH2 0x577 JUMP JUMPDEST STOP JUMPDEST PUSH2 0x13D PUSH2 0x6BB JUMP JUMPDEST PUSH1 0x40 MLOAD PUSH2 0x14C SWAP4 SWAP3 SWAP2 SWAP1 PUSH2 0xA6A JUMP JUMPDEST PUSH1 0x40 MLOAD DUP1 SWAP2 SUB SWAP1 RETURN JUMPDEST PUSH2 0x16F PUSH1 0x4 DUP1 CALLDATASIZE SUB DUP2 ADD SWAP1 PUSH2 0x16A SWAP2 SWAP1 PUSH2 0xC84 JUMP JUMPDEST PUSH2 0x7FB JUMP JUMPDEST PUSH1 0x40 MLOAD PUSH2 0x17D SWAP3 SWAP2 SWAP1 PUSH2 0xCCC JUMP JUMPDEST PUSH1 0x40 MLOAD DUP1 SWAP2 SUB SWAP1 RETURN JUMPDEST PUSH2 0x18E PUSH2 0x82C JUMP JUMPDEST PUSH1 0x40 MLOAD PUSH2 0x19B SWAP2 SWAP1 PUSH2 0xCF5 JUMP JUMPDEST PUSH1 0x40 MLOAD DUP1 SWAP2 SUB SWAP1 RETURN JUMPDEST PUSH2 0x1AC PUSH2 0x83F JUMP JUMPDEST STOP JUMPDEST PUSH2 0x1B6 PUSH2 0x915 JUMP JUMPDEST PUSH1 0x40 MLOAD PUSH2 0x1C3 SWAP2 SWAP1 PUSH2 0xD1F JUMP JUMPDEST PUSH1 0x40 MLOAD DUP1 SWAP2 SUB SWAP1 RETURN JUMPDEST PUSH1 0x0 PUSH1 0x14 SWAP1 SLOAD SWAP1 PUSH2 0x100 EXP SWAP1 DIV PUSH1 0xFF AND PUSH2 0x21B JUMPI PUSH1 0x40 MLOAD PUSH32 0x8C379A000000000000000000000000000000000000000000000000000000000 DUP2 MSTORE PUSH1 0x4 ADD PUSH2 0x212 SWAP1 PUSH2 0xD86 JUMP JUMPDEST PUSH1 0x40 MLOAD DUP1 SWAP2 SUB SWAP1 REVERT JUMPDEST PUSH1 0x1 PUSH1 0x0 CALLER PUSH20 0xFFFFFFFFFFFFFFFFFFFFFFFFFFFFFFFFFFFFFFFF AND PUSH20 0xFFFFFFFFFFFFFFFFFFFFFFFFFFFFFFFFFFFFFFFF AND DUP2 MSTORE PUSH1 0x20 ADD SWAP1 DUP2 MSTORE PUSH1 0x20 ADD PUSH1 0x0 KECCAK256 PUSH1 0x0 ADD PUSH1 0x0 SWAP1 SLOAD SWAP1 PUSH2 0x100 EXP SWAP1 DIV PUSH1 0xFF AND ISZERO PUSH2 0x2AB JUMPI PUSH1 0x40 MLOAD PUSH32 0x8C379A000000000000000000000000000000000000000000000000000000000 DUP2 MSTORE PUSH1 0x4 ADD PUSH2 0x2A2 SWAP1 PUSH2 0xDF2 JUMP JUMPDEST PUSH1 0x40 MLOAD DUP1 SWAP2 SUB SWAP1 REVERT JUMPDEST PUSH1 0x0 DUP2 GT DUP1 ISZERO PUSH2 0x2BD JUMPI POP PUSH1 0x3 SLOAD DUP2 GT ISZERO JUMPDEST PUSH2 0x2FC JUMPI PUSH1 0x40 MLOAD PUSH32 0x8C379A000000000000000000000000000000000000000000000000000000000 DUP2 MSTORE PUSH1 0x4 ADD PUSH2 0x2F3 SWAP1 PUSH2 0xE5E JUMP JUMPDEST PUSH1 0x40 MLOAD DUP1 SWAP2 SUB SWAP1 REVERT JUMPDEST PUSH1 0x40 MLOAD DUP1 PUSH1 0x40 ADD PUSH1 0x40 MSTORE DUP1 PUSH1 0x1 ISZERO ISZERO DUP2 MSTORE PUSH1 0x20 ADD DUP3 DUP2 MSTORE POP PUSH1 0x1 PUSH1 0x0 CALLER PUSH20 0xFFFFFFFFFFFFFFFFFFFFFFFFFFFFFFFFFFFFFFFF AND PUSH20 0xFFFFFFFFFFFFFFFFFFFFFFFFFFFFFFFFFFFFFFFF AND DUP2 MSTORE PUSH1 0x20 ADD SWAP1 DUP2 MSTORE PUSH1 0x20 ADD PUSH1 0x0 KECCAK256 PUSH1 0x0 DUP3 ADD MLOAD DUP2 PUSH1 0x0 ADD PUSH1 0x0 PUSH2 0x100 EXP DUP2 SLOAD DUP2 PUSH1 0xFF MUL NOT AND SWAP1 DUP4 ISZERO ISZERO MUL OR SWAP1 SSTORE POP PUSH1 0x20 DUP3 ADD MLOAD DUP2 PUSH1 0x1 ADD SSTORE SWAP1 POP POP PUSH1 0x2 PUSH1 0x0 DUP3 DUP2 MSTORE PUSH1 0x20 ADD SWAP1 DUP2 MSTORE PUSH1 0x20 ADD PUSH1 0x0 KECCAK256 PUSH1 0x2 ADD PUSH1 0x0 DUP2 SLOAD DUP1 SWAP3 SWAP2 SWAP1 PUSH2 0x3A7 SWAP1 PUSH2 0xEAD JUMP JUMPDEST SWAP2 SWAP1 POP SSTORE POP PUSH32 0x4D99B957A2BC29A30EBD96A7BE8E68FE50A3C701DB28A91436490B7D53870CA4 CALLER DUP3 PUSH1 0x40 MLOAD PUSH2 0x3DD SWAP3 SWAP2 SWAP1 PUSH2 0xEF5 JUMP JUMPDEST PUSH1 0x40 MLOAD DUP1 SWAP2 SUB SWAP1 LOG1 POP JUMP JUMPDEST PUSH1 0x0 DUP1 SLOAD SWAP1 PUSH2 0x100 EXP SWAP1 DIV PUSH20 0xFFFFFFFFFFFFFFFFFFFFFFFFFFFFFFFFFFFFFFFF AND PUSH20 0xFFFFFFFFFFFFFFFFFFFFFFFFFFFFFFFFFFFFFFFF AND CALLER PUSH20 0xFFFFFFFFFFFFFFFFFFFFFFFFFFFFFFFFFFFFFFFF AND EQ PUSH2 0x476 JUMPI PUSH1 0x40 MLOAD PUSH32 0x8C379A000000000000000000000000000000000000000000000000000000000 DUP2 MSTORE PUSH1 0x4 ADD PUSH2 0x46D SWAP1 PUSH2 0xF90 JUMP JUMPDEST PUSH1 0x40 MLOAD DUP1 SWAP2 SUB SWAP1 REVERT JUMPDEST PUSH1 0x1 PUSH1 0x0 PUSH1 0x14 PUSH2 0x100 EXP DUP2 SLOAD DUP2 PUSH1 0xFF MUL NOT AND SWAP1 DUP4 ISZERO ISZERO MUL OR SWAP1 SSTORE POP PUSH32 0x877E2548498F42B7975A186B94EF1D32C86D420B7B806DD2BE2BEA293B895904 PUSH1 0x40 MLOAD PUSH1 0x40 MLOAD DUP1 SWAP2 SUB SWAP1 LOG1 JUMP JUMPDEST PUSH1 0x3 SLOAD DUP2 JUMP JUMPDEST PUSH1 0x2 PUSH1 0x20 MSTORE DUP1 PUSH1 0x0 MSTORE PUSH1 0x40 PUSH1 0x0 KECCAK256 PUSH1 0x0 SWAP2 POP SWAP1 POP DUP1 PUSH1 0x0 ADD SLOAD SWAP1 DUP1 PUSH1 0x1 ADD DUP1 SLOAD PUSH2 0x4EE SWAP1 PUSH2 0xFDF JUMP JUMPDEST DUP1 PUSH1 0x1F ADD PUSH1 0x20 DUP1 SWAP2 DIV MUL PUSH1 0x20 ADD PUSH1 0x40 MLOAD SWAP1 DUP2 ADD PUSH1 0x40 MSTORE DUP1 SWAP3 SWAP2 SWAP1 DUP2 DUP2 MSTORE PUSH1 0x20 ADD DUP3 DUP1 SLOAD PUSH2 0x51A SWAP1 PUSH2 0xFDF JUMP JUMPDEST DUP1 ISZERO PUSH2 0x567 JUMPI DUP1 PUSH1 0x1F LT PUSH2 0x53C JUMPI PUSH2 0x100 DUP1 DUP4 SLOAD DIV MUL DUP4 MSTORE SWAP2 PUSH1 0x20 ADD SWAP2 PUSH2 0x567 JUMP JUMPDEST DUP3 ADD SWAP2 SWAP1 PUSH1 0x0 MSTORE PUSH1 0x20 PUSH1 0x0 KECCAK256 SWAP1 JUMPDEST DUP2 SLOAD DUP2 MSTORE SWAP1 PUSH1 0x1 ADD SWAP1 PUSH1 0x20 ADD DUP1 DUP4 GT PUSH2 0x54A JUMPI DUP3 SWAP1 SUB PUSH1 0x1F AND DUP3 ADD SWAP2 JUMPDEST POP POP POP POP POP SWAP1 DUP1 PUSH1 0x2 ADD SLOAD SWAP1 POP DUP4 JUMP JUMPDEST PUSH1 0x0 DUP1 SLOAD SWAP1 PUSH2 0x100 EXP SWAP1 DIV PUSH20 0xFFFFFFFFFFFFFFFFFFFFFFFFFFFFFFFFFFFFFFFF AND PUSH20 0xFFFFFFFFFFFFFFFFFFFFFFFFFFFFFFFFFFFFFFFF AND CALLER PUSH20 0xFFFFFFFFFFFFFFFFFFFFFFFFFFFFFFFFFFFFFFFF AND EQ PUSH2 0x605 JUMPI PUSH1 0x40 MLOAD PUSH32 0x8C379A000000000000000000000000000000000000000000000000000000000 DUP2 MSTORE PUSH1 0x4 ADD PUSH2 0x5FC SWAP1 PUSH2 0xF90 JUMP JUMPDEST PUSH1 0x40 MLOAD DUP1 SWAP2 SUB SWAP1 REVERT JUMPDEST PUSH1 0x3 PUSH1 0x0 DUP2 SLOAD DUP1 SWAP3 SWAP2 SWAP1 PUSH2 0x618 SWAP1 PUSH2 0xEAD JUMP JUMPDEST SWAP2 SWAP1 POP SSTORE POP PUSH1 0x40 MLOAD DUP1 PUSH1 0x60 ADD PUSH1 0x40 MSTORE DUP1 PUSH1 0x3 SLOAD DUP2 MSTORE PUSH1 0x20 ADD DUP3 DUP2 MSTORE PUSH1 0x20 ADD PUSH1 0x0 DUP2 MSTORE POP PUSH1 0x2 PUSH1 0x0 PUSH1 0x3 SLOAD DUP2 MSTORE PUSH1 0x20 ADD SWAP1 DUP2 MSTORE PUSH1 0x20 ADD PUSH1 0x0 KECCAK256 PUSH1 0x0 DUP3 ADD MLOAD DUP2 PUSH1 0x0 ADD SSTORE PUSH1 0x20 DUP3 ADD MLOAD DUP2 PUSH1 0x1 ADD SWAP1 DUP2 PUSH2 0x66F SWAP2 SWAP1 PUSH2 0x11BC JUMP JUMPDEST POP PUSH1 0x40 DUP3 ADD MLOAD DUP2 PUSH1 0x2 ADD SSTORE SWAP1 POP POP PUSH32 0xE83B2A43E7E82D975C8A0A6D2F045153C869E111136A34D1889AB7B598E396A3 PUSH1 0x3 SLOAD DUP3 PUSH1 0x40 MLOAD PUSH2 0x6B0 SWAP3 SWAP2 SWAP1 PUSH2 0x128E JUMP JUMPDEST PUSH1 0x40 MLOAD DUP1 SWAP2 SUB SWAP1 LOG1 POP JUMP JUMPDEST PUSH1 0x0 PUSH1 0x60 PUSH1 0x0 DUP1 PUSH1 0x0 SWAP1 POP PUSH1 0x0 PUSH1 0x1 SWAP1 POP JUMPDEST PUSH1 0x3 SLOAD DUP2 GT PUSH2 0x7F4 JUMPI DUP2 PUSH1 0x2 PUSH1 0x0 DUP4 DUP2 MSTORE PUSH1 0x20 ADD SWAP1 DUP2 MSTORE PUSH1 0x20 ADD PUSH1 0x0 KECCAK256 PUSH1 0x2 ADD SLOAD GT ISZERO PUSH2 0x7E1 JUMPI PUSH1 0x2 PUSH1 0x0 DUP3 DUP2 MSTORE PUSH1 0x20 ADD SWAP1 DUP2 MSTORE PUSH1 0x20 ADD PUSH1 0x0 KECCAK256 PUSH1 0x2 ADD SLOAD SWAP2 POP PUSH1 0x2 PUSH1 0x0 DUP3 DUP2 MSTORE PUSH1 0x20 ADD SWAP1 DUP2 MSTORE PUSH1 0x20 ADD PUSH1 0x0 KECCAK256 PUSH1 0x0 ADD SLOAD SWAP5 POP PUSH1 0x2 PUSH1 0x0 DUP3 DUP2 MSTORE PUSH1 0x20 ADD SWAP1 DUP2 MSTORE PUSH1 0x20 ADD PUSH1 0x0 KECCAK256 PUSH1 0x1 ADD DUP1 SLOAD PUSH2 0x747 SWAP1 PUSH2 0xFDF JUMP JUMPDEST DUP1 PUSH1 0x1F ADD PUSH1 0x20 DUP1 SWAP2 DIV MUL PUSH1 0x20 ADD PUSH1 0x40 MLOAD SWAP1 DUP2 ADD PUSH1 0x40 MSTORE DUP1 SWAP3 SWAP2 SWAP1 DUP2 DUP2 MSTORE PUSH1 0x20 ADD DUP3 DUP1 SLOAD PUSH2 0x773 SWAP1 PUSH2 0xFDF JUMP JUMPDEST DUP1 ISZERO PUSH2 0x7C0 JUMPI DUP1 PUSH1 0x1F LT PUSH2 0x795 JUMPI PUSH2 0x100 DUP1 DUP4 SLOAD DIV MUL DUP4 MSTORE SWAP2 PUSH1 0x20 ADD SWAP2 PUSH2 0x7C0 JUMP JUMPDEST DUP3 ADD SWAP2 SWAP1 PUSH1 0x0 MSTORE PUSH1 0x20 PUSH1 0x0 KECCAK256 SWAP1 JUMPDEST DUP2 SLOAD DUP2 MSTORE SWAP1 PUSH1 0x1 ADD SWAP1 PUSH1 0x20 ADD DUP1 DUP4 GT PUSH2 0x7A3 JUMPI DUP3 SWAP1 SUB PUSH1 0x1F AND DUP3 ADD SWAP2 JUMPDEST POP POP POP POP POP SWAP4 POP PUSH1 0x2 PUSH1 0x0 DUP3 DUP2 MSTORE PUSH1 0x20 ADD SWAP1 DUP2 MSTORE PUSH1 0x20 ADD PUSH1 0x0 KECCAK256 PUSH1 0x2 ADD SLOAD SWAP3 POP JUMPDEST DUP1 DUP1 PUSH2 0x7EC SWAP1 PUSH2 0xEAD JUMP JUMPDEST SWAP2 POP POP PUSH2 0x6CD JUMP JUMPDEST POP POP SWAP1 SWAP2 SWAP3 JUMP JUMPDEST PUSH1 0x1 PUSH1 0x20 MSTORE DUP1 PUSH1 0x0 MSTORE PUSH1 0x40 PUSH1 0x0 KECCAK256 PUSH1 0x0 SWAP2 POP SWAP1 POP DUP1 PUSH1 0x0 ADD PUSH1 0x0 SWAP1 SLOAD SWAP1 PUSH2 0x100 EXP SWAP1 DIV PUSH1 0xFF AND SWAP1 DUP1 PUSH1 0x1 ADD SLOAD SWAP1 POP DUP3 JUMP JUMPDEST PUSH1 0x0 PUSH1 0x14 SWAP1 SLOAD SWAP1 PUSH2 0x100 EXP SWAP1 DIV PUSH1 0xFF AND DUP2 JUMP JUMPDEST PUSH1 0x0 DUP1 SLOAD SWAP1 PUSH2 0x100 EXP SWAP1 DIV PUSH20 0xFFFFFFFFFFFFFFFFFFFFFFFFFFFFFFFFFFFFFFFF AND PUSH20 0xFFFFFFFFFFFFFFFFFFFFFFFFFFFFFFFFFFFFFFFF AND CALLER PUSH20 0xFFFFFFFFFFFFFFFFFFFFFFFFFFFFFFFFFFFFFFFF AND EQ PUSH2 0x8CD JUMPI PUSH1 0x40 MLOAD PUSH32 0x8C379A000000000000000000000000000000000000000000000000000000000 DUP2 MSTORE PUSH1 0x4 ADD PUSH2 0x8C4 SWAP1 PUSH2 0xF90 JUMP JUMPDEST PUSH1 0x40 MLOAD DUP1 SWAP2 SUB SWAP1 REVERT JUMPDEST PUSH1 0x0 DUP1 PUSH1 0x14 PUSH2 0x100 EXP DUP2 SLOAD DUP2 PUSH1 0xFF MUL NOT AND SWAP1 DUP4 ISZERO ISZERO MUL OR SWAP1 SSTORE POP PUSH32 0x7A19ED057DB79E3C2FA0B97A54B43BEF4FCE74B31BB6C01AF514B9A18A7F70AB PUSH1 0x40 MLOAD PUSH1 0x40 MLOAD DUP1 SWAP2 SUB SWAP1 LOG1 JUMP JUMPDEST PUSH1 0x0 DUP1 SLOAD SWAP1 PUSH2 0x100 EXP SWAP1 DIV PUSH20 0xFFFFFFFFFFFFFFFFFFFFFFFFFFFFFFFFFFFFFFFF AND DUP2 JUMP JUMPDEST PUSH1 0x0 PUSH1 0x40 MLOAD SWAP1 POP SWAP1 JUMP JUMPDEST PUSH1 0x0 DUP1 REVERT JUMPDEST PUSH1 0x0 DUP1 REVERT JUMPDEST PUSH1 0x0 DUP2 SWAP1 POP SWAP2 SWAP1 POP JUMP JUMPDEST PUSH2 0x960 DUP2 PUSH2 0x94D JUMP JUMPDEST DUP2 EQ PUSH2 0x96B JUMPI PUSH1 0x0 DUP1 REVERT JUMPDEST POP JUMP JUMPDEST PUSH1 0x0 DUP2 CALLDATALOAD SWAP1 POP PUSH2 0x97D DUP2 PUSH2 0x957 JUMP JUMPDEST SWAP3 SWAP2 POP POP JUMP JUMPDEST PUSH1 0x0 PUSH1 0x20 DUP3 DUP5 SUB SLT ISZERO PUSH2 0x999 JUMPI PUSH2 0x998 PUSH2 0x943 JUMP JUMPDEST JUMPDEST PUSH1 0x0 PUSH2 0x9A7 DUP5 DUP3 DUP6 ADD PUSH2 0x96E JUMP JUMPDEST SWAP2 POP POP SWAP3 SWAP2 POP POP JUMP JUMPDEST PUSH2 0x9B9 DUP2 PUSH2 0x94D JUMP JUMPDEST DUP3 MSTORE POP POP JUMP JUMPDEST PUSH1 0x0 PUSH1 0x20 DUP3 ADD SWAP1 POP PUSH2 0x9D4 PUSH1 0x0 DUP4 ADD DUP5 PUSH2 0x9B0 JUMP JUMPDEST SWAP3 SWAP2 POP POP JUMP JUMPDEST PUSH1 0x0 DUP2 MLOAD SWAP1 POP SWAP2 SWAP1 POP JUMP JUMPDEST PUSH1 0x0 DUP3 DUP3 MSTORE PUSH1 0x20 DUP3 ADD SWAP1 POP SWAP3 SWAP2 POP POP JUMP JUMPDEST PUSH1 0x0 JUMPDEST DUP4 DUP2 LT ISZERO PUSH2 0xA14 JUMPI DUP1 DUP3 ADD MLOAD DUP2 DUP5 ADD MSTORE PUSH1 0x20 DUP2 ADD SWAP1 POP PUSH2 0x9F9 JUMP JUMPDEST PUSH1 0x0 DUP5 DUP5 ADD MSTORE POP POP POP POP JUMP JUMPDEST PUSH1 0x0 PUSH1 0x1F NOT PUSH1 0x1F DUP4 ADD AND SWAP1 POP SWAP2 SWAP1 POP JUMP JUMPDEST PUSH1 0x0 PUSH2 0xA3C DUP3 PUSH2 0x9DA JUMP JUMPDEST PUSH2 0xA46 DUP2 DUP6 PUSH2 0x9E5 JUMP JUMPDEST SWAP4 POP PUSH2 0xA56 DUP2 DUP6 PUSH1 0x20 DUP7 ADD PUSH2 0x9F6 JUMP JUMPDEST PUSH2 0xA5F DUP2 PUSH2 0xA20 JUMP JUMPDEST DUP5 ADD SWAP2 POP POP SWAP3 SWAP2 POP POP JUMP JUMPDEST PUSH1 0x0 PUSH1 0x60 DUP3 ADD SWAP1 POP PUSH2 0xA7F PUSH1 0x0 DUP4 ADD DUP7 PUSH2 0x9B0 JUMP JUMPDEST DUP2 DUP2 SUB PUSH1 0x20 DUP4 ADD MSTORE PUSH2 0xA91 DUP2 DUP6 PUSH2 0xA31 JUMP JUMPDEST SWAP1 POP PUSH2 0xAA0 PUSH1 0x40 DUP4 ADD DUP5 PUSH2 0x9B0 JUMP JUMPDEST SWAP5 SWAP4 POP POP POP POP JUMP JUMPDEST PUSH1 0x0 DUP1 REVERT JUMPDEST PUSH1 0x0 DUP1 REVERT JUMPDEST PUSH32 0x4E487B7100000000000000000000000000000000000000000000000000000000 PUSH1 0x0 MSTORE PUSH1 0x41 PUSH1 0x4 MSTORE PUSH1 0x24 PUSH1 0x0 REVERT JUMPDEST PUSH2 0xAEA DUP3 PUSH2 0xA20 JUMP JUMPDEST DUP2 ADD DUP2 DUP2 LT PUSH8 0xFFFFFFFFFFFFFFFF DUP3 GT OR ISZERO PUSH2 0xB09 JUMPI PUSH2 0xB08 PUSH2 0xAB2 JUMP JUMPDEST JUMPDEST DUP1 PUSH1 0x40 MSTORE POP POP POP JUMP JUMPDEST PUSH1 0x0 PUSH2 0xB1C PUSH2 0x939 JUMP JUMPDEST SWAP1 POP PUSH2 0xB28 DUP3 DUP3 PUSH2 0xAE1 JUMP JUMPDEST SWAP2 SWAP1 POP JUMP JUMPDEST PUSH1 0x0 PUSH8 0xFFFFFFFFFFFFFFFF DUP3 GT ISZERO PUSH2 0xB48 JUMPI PUSH2 0xB47 PUSH2 0xAB2 JUMP JUMPDEST JUMPDEST PUSH2 0xB51 DUP3 PUSH2 0xA20 JUMP JUMPDEST SWAP1 POP PUSH1 0x20 DUP2 ADD SWAP1 POP SWAP2 SWAP1 POP JUMP JUMPDEST DUP3 DUP2 DUP4 CALLDATACOPY PUSH1 0x0 DUP4 DUP4 ADD MSTORE POP POP POP JUMP JUMPDEST PUSH1 0x0 PUSH2 0xB80 PUSH2 0xB7B DUP5 PUSH2 0xB2D JUMP JUMPDEST PUSH2 0xB12 JUMP JUMPDEST SWAP1 POP DUP3 DUP2 MSTORE PUSH1 0x20 DUP2 ADD DUP5 DUP5 DUP5 ADD GT ISZERO PUSH2 0xB9C JUMPI PUSH2 0xB9B PUSH2 0xAAD JUMP JUMPDEST JUMPDEST PUSH2 0xBA7 DUP5 DUP3 DUP6 PUSH2 0xB5E JUMP JUMPDEST POP SWAP4 SWAP3 POP POP POP JUMP JUMPDEST PUSH1 0x0 DUP3 PUSH1 0x1F DUP4 ADD SLT PUSH2 0xBC4 JUMPI PUSH2 0xBC3 PUSH2 0xAA8 JUMP JUMPDEST JUMPDEST DUP2 CALLDATALOAD PUSH2 0xBD4 DUP5 DUP3 PUSH1 0x20 DUP7 ADD PUSH2 0xB6D JUMP JUMPDEST SWAP2 POP POP SWAP3 SWAP2 POP POP JUMP JUMPDEST PUSH1 0x0 PUSH1 0x20 DUP3 DUP5 SUB SLT ISZERO PUSH2 0xBF3 JUMPI PUSH2 0xBF2 PUSH2 0x943 JUMP JUMPDEST JUMPDEST PUSH1 0x0 DUP3 ADD CALLDATALOAD PUSH8 0xFFFFFFFFFFFFFFFF DUP2 GT ISZERO PUSH2 0xC11 JUMPI PUSH2 0xC10 PUSH2 0x948 JUMP JUMPDEST JUMPDEST PUSH2 0xC1D DUP5 DUP3 DUP6 ADD PUSH2 0xBAF JUMP JUMPDEST SWAP2 POP POP SWAP3 SWAP2 POP POP JUMP JUMPDEST PUSH1 0x0 PUSH20 0xFFFFFFFFFFFFFFFFFFFFFFFFFFFFFFFFFFFFFFFF DUP3 AND SWAP1 POP SWAP2 SWAP1 POP JUMP JUMPDEST PUSH1 0x0 PUSH2 0xC51 DUP3 PUSH2 0xC26 JUMP JUMPDEST SWAP1 POP SWAP2 SWAP1 POP JUMP JUMPDEST PUSH2 0xC61 DUP2 PUSH2 0xC46 JUMP JUMPDEST DUP2 EQ PUSH2 0xC6C JUMPI PUSH1 0x0 DUP1 REVERT JUMPDEST POP JUMP JUMPDEST PUSH1 0x0 DUP2 CALLDATALOAD SWAP1 POP PUSH2 0xC7E DUP2 PUSH2 0xC58 JUMP JUMPDEST SWAP3 SWAP2 POP POP JUMP JUMPDEST PUSH1 0x0 PUSH1 0x20 DUP3 DUP5 SUB SLT ISZERO PUSH2 0xC9A JUMPI PUSH2 0xC99 PUSH2 0x943 JUMP JUMPDEST JUMPDEST PUSH1 0x0 PUSH2 0xCA8 DUP5 DUP3 DUP6 ADD PUSH2 0xC6F JUMP JUMPDEST SWAP2 POP POP SWAP3 SWAP2 POP POP JUMP JUMPDEST PUSH1 0x0 DUP2 ISZERO ISZERO SWAP1 POP SWAP2 SWAP1 POP JUMP JUMPDEST PUSH2 0xCC6 DUP2 PUSH2 0xCB1 JUMP JUMPDEST DUP3 MSTORE POP POP JUMP JUMPDEST PUSH1 0x0 PUSH1 0x40 DUP3 ADD SWAP1 POP PUSH2 0xCE1 PUSH1 0x0 DUP4 ADD DUP6 PUSH2 0xCBD JUMP JUMPDEST PUSH2 0xCEE PUSH1 0x20 DUP4 ADD DUP5 PUSH2 0x9B0 JUMP JUMPDEST SWAP4 SWAP3 POP POP POP JUMP JUMPDEST PUSH1 0x0 PUSH1 0x20 DUP3 ADD SWAP1 POP PUSH2 0xD0A PUSH1 0x0 DUP4 ADD DUP5 PUSH2 0xCBD JUMP JUMPDEST SWAP3 SWAP2 POP POP JUMP JUMPDEST PUSH2 0xD19 DUP2 PUSH2 0xC46 JUMP JUMPDEST DUP3 MSTORE POP POP JUMP JUMPDEST PUSH1 0x0 PUSH1 0x20 DUP3 ADD SWAP1 POP PUSH2 0xD34 PUSH1 0x0 DUP4 ADD DUP5 PUSH2 0xD10 JUMP JUMPDEST SWAP3 SWAP2 POP POP JUMP JUMPDEST PUSH32 0x566F74696E67206973206E6F742063757272656E746C79206F70656E2E000000 PUSH1 0x0 DUP3 ADD MSTORE POP JUMP JUMPDEST PUSH1 0x0 PUSH2 0xD70 PUSH1 0x1D DUP4 PUSH2 0x9E5 JUMP JUMPDEST SWAP2 POP PUSH2 0xD7B DUP3 PUSH2 0xD3A JUMP JUMPDEST PUSH1 0x20 DUP3 ADD SWAP1 POP SWAP2 SWAP1 POP JUMP JUMPDEST PUSH1 0x0 PUSH1 0x20 DUP3 ADD SWAP1 POP DUP2 DUP2 SUB PUSH1 0x0 DUP4 ADD MSTORE PUSH2 0xD9F DUP2 PUSH2 0xD63 JUMP JUMPDEST SWAP1 POP SWAP2 SWAP1 POP JUMP JUMPDEST PUSH32 0x596F75206861766520616C726561647920766F7465642E000000000000000000 PUSH1 0x0 DUP3 ADD MSTORE POP JUMP JUMPDEST PUSH1 0x0 PUSH2 0xDDC PUSH1 0x17 DUP4 PUSH2 0x9E5 JUMP JUMPDEST SWAP2 POP PUSH2 0xDE7 DUP3 PUSH2 0xDA6 JUMP JUMPDEST PUSH1 0x20 DUP3 ADD SWAP1 POP SWAP2 SWAP1 POP JUMP JUMPDEST PUSH1 0x0 PUSH1 0x20 DUP3 ADD SWAP1 POP DUP2 DUP2 SUB PUSH1 0x0 DUP4 ADD MSTORE PUSH2 0xE0B DUP2 PUSH2 0xDCF JUMP JUMPDEST SWAP1 POP SWAP2 SWAP1 POP JUMP JUMPDEST PUSH32 0x496E76616C69642063616E6469646174652049442E0000000000000000000000 PUSH1 0x0 DUP3 ADD MSTORE POP JUMP JUMPDEST PUSH1 0x0 PUSH2 0xE48 PUSH1 0x15 DUP4 PUSH2 0x9E5 JUMP JUMPDEST SWAP2 POP PUSH2 0xE53 DUP3 PUSH2 0xE12 JUMP JUMPDEST PUSH1 0x20 DUP3 ADD SWAP1 POP SWAP2 SWAP1 POP JUMP JUMPDEST PUSH1 0x0 PUSH1 0x20 DUP3 ADD SWAP1 POP DUP2 DUP2 SUB PUSH1 0x0 DUP4 ADD MSTORE PUSH2 0xE77 DUP2 PUSH2 0xE3B JUMP JUMPDEST SWAP1 POP SWAP2 SWAP1 POP JUMP JUMPDEST PUSH32 0x4E487B7100000000000000000000000000000000000000000000000000000000 PUSH1 0x0 MSTORE PUSH1 0x11 PUSH1 0x4 MSTORE PUSH1 0x24 PUSH1 0x0 REVERT JUMPDEST PUSH1 0x0 PUSH2 0xEB8 DUP3 PUSH2 0x94D JUMP JUMPDEST SWAP2 POP PUSH32 0xFFFFFFFFFFFFFFFFFFFFFFFFFFFFFFFFFFFFFFFFFFFFFFFFFFFFFFFFFFFFFFFF DUP3 SUB PUSH2 0xEEA JUMPI PUSH2 0xEE9 PUSH2 0xE7E JUMP JUMPDEST JUMPDEST PUSH1 0x1 DUP3 ADD SWAP1 POP SWAP2 SWAP1 POP JUMP JUMPDEST PUSH1 0x0 PUSH1 0x40 DUP3 ADD SWAP1 POP PUSH2 0xF0A PUSH1 0x0 DUP4 ADD DUP6 PUSH2 0xD10 JUMP JUMPDEST PUSH2 0xF17 PUSH1 0x20 DUP4 ADD DUP5 PUSH2 0x9B0 JUMP JUMPDEST SWAP4 SWAP3 POP POP POP JUMP JUMPDEST PUSH32 0x4F6E6C792061646D696E2063616E20706572666F726D20746869732061637469 PUSH1 0x0 DUP3 ADD MSTORE PUSH32 0x6F6E2E0000000000000000000000000000000000000000000000000000000000 PUSH1 0x20 DUP3 ADD MSTORE POP JUMP JUMPDEST PUSH1 0x0 PUSH2 0xF7A PUSH1 0x23 DUP4 PUSH2 0x9E5 JUMP JUMPDEST SWAP2 POP PUSH2 0xF85 DUP3 PUSH2 0xF1E JUMP JUMPDEST PUSH1 0x40 DUP3 ADD SWAP1 POP SWAP2 SWAP1 POP JUMP JUMPDEST PUSH1 0x0 PUSH1 0x20 DUP3 ADD SWAP1 POP DUP2 DUP2 SUB PUSH1 0x0 DUP4 ADD MSTORE PUSH2 0xFA9 DUP2 PUSH2 0xF6D JUMP JUMPDEST SWAP1 POP SWAP2 SWAP1 POP JUMP JUMPDEST PUSH32 0x4E487B7100000000000000000000000000000000000000000000000000000000 PUSH1 0x0 MSTORE PUSH1 0x22 PUSH1 0x4 MSTORE PUSH1 0x24 PUSH1 0x0 REVERT JUMPDEST PUSH1 0x0 PUSH1 0x2 DUP3 DIV SWAP1 POP PUSH1 0x1 DUP3 AND DUP1 PUSH2 0xFF7 JUMPI PUSH1 0x7F DUP3 AND SWAP2 POP JUMPDEST PUSH1 0x20 DUP3 LT DUP2 SUB PUSH2 0x100A JUMPI PUSH2 0x1009 PUSH2 0xFB0 JUMP JUMPDEST JUMPDEST POP SWAP2 SWAP1 POP JUMP JUMPDEST PUSH1 0x0 DUP2 SWAP1 POP DUP2 PUSH1 0x0 MSTORE PUSH1 0x20 PUSH1 0x0 KECCAK256 SWAP1 POP SWAP2 SWAP1 POP JUMP JUMPDEST PUSH1 0x0 PUSH1 0x20 PUSH1 0x1F DUP4 ADD DIV SWAP1 POP SWAP2 SWAP1 POP JUMP JUMPDEST PUSH1 0x0 DUP3 DUP3 SHL SWAP1 POP SWAP3 SWAP2 POP POP JUMP JUMPDEST PUSH1 0x0 PUSH1 0x8 DUP4 MUL PUSH2 0x1072 PUSH32 0xFFFFFFFFFFFFFFFFFFFFFFFFFFFFFFFFFFFFFFFFFFFFFFFFFFFFFFFFFFFFFFFF DUP3 PUSH2 0x1035 JUMP JUMPDEST PUSH2 0x107C DUP7 DUP4 PUSH2 0x1035 JUMP JUMPDEST SWAP6 POP DUP1 NOT DUP5 AND SWAP4 POP DUP1 DUP7 AND DUP5 OR SWAP3 POP POP POP SWAP4 SWAP3 POP POP POP JUMP JUMPDEST PUSH1 0x0 DUP2 SWAP1 POP SWAP2 SWAP1 POP JUMP JUMPDEST PUSH1 0x0 PUSH2 0x10B9 PUSH2 0x10B4 PUSH2 0x10AF DUP5 PUSH2 0x94D JUMP JUMPDEST PUSH2 0x1094 JUMP JUMPDEST PUSH2 0x94D JUMP JUMPDEST SWAP1 POP SWAP2 SWAP1 POP JUMP JUMPDEST PUSH1 0x0 DUP2 SWAP1 POP SWAP2 SWAP1 POP JUMP JUMPDEST PUSH2 0x10D3 DUP4 PUSH2 0x109E JUMP JUMPDEST PUSH2 0x10E7 PUSH2 0x10DF DUP3 PUSH2 0x10C0 JUMP JUMPDEST DUP5 DUP5 SLOAD PUSH2 0x1042 JUMP JUMPDEST DUP3 SSTORE POP POP POP POP JUMP JUMPDEST PUSH1 0x0 SWAP1 JUMP JUMPDEST PUSH2 0x10FC PUSH2 0x10EF JUMP JUMPDEST PUSH2 0x1107 DUP2 DUP5 DUP5 PUSH2 0x10CA JUMP JUMPDEST POP POP POP JUMP JUMPDEST JUMPDEST DUP2 DUP2 LT ISZERO PUSH2 0x112B JUMPI PUSH2 0x1120 PUSH1 0x0 DUP3 PUSH2 0x10F4 JUMP JUMPDEST PUSH1 0x1 DUP2 ADD SWAP1 POP PUSH2 0x110D JUMP JUMPDEST POP POP JUMP JUMPDEST PUSH1 0x1F DUP3 GT ISZERO PUSH2 0x1170 JUMPI PUSH2 0x1141 DUP2 PUSH2 0x1010 JUMP JUMPDEST PUSH2 0x114A DUP5 PUSH2 0x1025 JUMP JUMPDEST DUP2 ADD PUSH1 0x20 DUP6 LT ISZERO PUSH2 0x1159 JUMPI DUP2 SWAP1 POP JUMPDEST PUSH2 0x116D PUSH2 0x1165 DUP6 PUSH2 0x1025 JUMP JUMPDEST DUP4 ADD DUP3 PUSH2 0x110C JUMP JUMPDEST POP POP JUMPDEST POP POP POP JUMP JUMPDEST PUSH1 0x0 DUP3 DUP3 SHR SWAP1 POP SWAP3 SWAP2 POP POP JUMP JUMPDEST PUSH1 0x0 PUSH2 0x1193 PUSH1 0x0 NOT DUP5 PUSH1 0x8 MUL PUSH2 0x1175 JUMP JUMPDEST NOT DUP1 DUP4 AND SWAP2 POP POP SWAP3 SWAP2 POP POP JUMP JUMPDEST PUSH1 0x0 PUSH2 0x11AC DUP4 DUP4 PUSH2 0x1182 JUMP JUMPDEST SWAP2 POP DUP3 PUSH1 0x2 MUL DUP3 OR SWAP1 POP SWAP3 SWAP2 POP POP JUMP JUMPDEST PUSH2 0x11C5 DUP3 PUSH2 0x9DA JUMP JUMPDEST PUSH8 0xFFFFFFFFFFFFFFFF DUP2 GT ISZERO PUSH2 0x11DE JUMPI PUSH2 0x11DD PUSH2 0xAB2 JUMP JUMPDEST JUMPDEST PUSH2 0x11E8 DUP3 SLOAD PUSH2 0xFDF JUMP JUMPDEST PUSH2 0x11F3 DUP3 DUP3 DUP6 PUSH2 0x112F JUMP JUMPDEST PUSH1 0x0 PUSH1 0x20 SWAP1 POP PUSH1 0x1F DUP4 GT PUSH1 0x1 DUP2 EQ PUSH2 0x1226 JUMPI PUSH1 0x0 DUP5 ISZERO PUSH2 0x1214 JUMPI DUP3 DUP8 ADD MLOAD SWAP1 POP JUMPDEST PUSH2 0x121E DUP6 DUP3 PUSH2 0x11A0 JUMP JUMPDEST DUP7 SSTORE POP PUSH2 0x1286 JUMP JUMPDEST PUSH1 0x1F NOT DUP5 AND PUSH2 0x1234 DUP7 PUSH2 0x1010 JUMP JUMPDEST PUSH1 0x0 JUMPDEST DUP3 DUP2 LT ISZERO PUSH2 0x125C JUMPI DUP5 DUP10 ADD MLOAD DUP3 SSTORE PUSH1 0x1 DUP3 ADD SWAP2 POP PUSH1 0x20 DUP6 ADD SWAP5 POP PUSH1 0x20 DUP2 ADD SWAP1 POP PUSH2 0x1237 JUMP JUMPDEST DUP7 DUP4 LT ISZERO PUSH2 0x1279 JUMPI DUP5 DUP10 ADD MLOAD PUSH2 0x1275 PUSH1 0x1F DUP10 AND DUP3 PUSH2 0x1182 JUMP JUMPDEST DUP4 SSTORE POP JUMPDEST PUSH1 0x1 PUSH1 0x2 DUP9 MUL ADD DUP9 SSTORE POP POP POP JUMPDEST POP POP POP POP POP POP JUMP JUMPDEST PUSH1 0x0 PUSH1 0x40 DUP3 ADD SWAP1 POP PUSH2 0x12A3 PUSH1 0x0 DUP4 ADD DUP6 PUSH2 0x9B0 JUMP JUMPDEST DUP2 DUP2 SUB PUSH1 0x20 DUP4 ADD MSTORE PUSH2 0x12B5 DUP2 DUP5 PUSH2 0xA31 JUMP JUMPDEST SWAP1 POP SWAP4 SWAP3 POP POP POP JUMP INVALID LOG2 PUSH5 0x6970667358 0x22 SLT KECCAK256 PUSH8 0xD2996DD61BDF2E4 0xC5 0x1E BLOBHASH PUSH0 SSTORE REVERT ADDRESS SUB 0xF7 SHL 0xAA 0x2F SWAP7 LOG1 MUL 0x1F 0xC7 SWAP16 0xCE 0xEB LOG3 BALANCE 0xC1 PUSH5 0x736F6C6343 STOP ADDMOD SHL STOP CALLER "
        },
        "methodIdentifiers": {
          "addCandidate(string)": "462e91ec",
          "admin()": "f851a440",
          "candidates(uint256)": "3477ee2e",
          "candidatesCount()": "2d35a8a2",
          "endVoting()": "c3403ddf",
          "getWinner()": "8e7ea5b2",
          "startVoting()": "1ec6b60a",
          "vote(uint256)": "0121b93f",
          "voters(address)": "a3ec138d",
          "votingOpen()": "a95824b4"
        }
      }
    }
  }
}