{
  "_format": "hh-sol-artifact-1",
  "contractName": "MerkleVoting",
  "sourceName": "contracts/MerkleVoting.sol",
  "abi": [
    {
      "inputs": [],
      "stateMutability": "nonpayable",
      "type": "constructor"
    },
    {
      "anonymous": false,
      "inputs": [
        {
          "indexed": false,
          "internalType": "uint256",
          "name": "candidateId",
          "type": "uint256"
        },
        {
          "indexed": false,
          "internalType": "string",
          "name": "name",
          "type": "string"
        }
      ],
      "name": "CandidateAdded",
      "type": "event"
    },
    {
      "anonymous": false,
      "inputs": [
        {
          "indexed": false,
          "internalType": "bytes32",
          "name": "merkleRoot",
          "type": "bytes32"
        }
      ],
      "name": "MerkleRootUpdated",
      "type": "event"
    },
    {
      "anonymous": false,
      "inputs": [
        {
          "indexed": true,
          "internalType": "address",
          "name": "voter",
          "type": "address"
        },
        {
          "indexed": false,
          "internalType": "uint256",
          "name": "candidateId",
          "type": "uint256"
        }
      ],
      "name": "Voted",
      "type": "event"
    },
    {
      "inputs": [
        {
          "internalType": "string",
          "name": "name",
          "type": "string"
        }
      ],
      "name": "addCandidate",
      "outputs": [],
      "stateMutability": "nonpayable",
      "type": "function"
    },
    {
      "inputs": [],
      "name": "admin",
      "outputs": [
        {
          "internalType": "address",
          "name": "",
          "type": "address"
        }
      ],
      "stateMutability": "view",
      "type": "function"
    },
    {
      "inputs": [
        {
          "internalType": "uint256",
          "name": "",
          "type": "uint256"
        }
      ],
      "name": "candidateIds",
      "outputs": [
        {
          "internalType": "uint256",
          "name": "",
          "type": "uint256"
        }
      ],
      "stateMutability": "view",
      "type": "function"
    },
    {
      "inputs": [
        {
          "internalType": "uint256",
          "name": "",
          "type": "uint256"
        }
      ],
      "name": "candidates",
      "outputs": [
        {
          "internalType": "uint256",
          "name": "id",
          "type": "uint256"
        },
        {
          "internalType": "string",
          "name": "name",
          "type": "string"
        },
        {
          "internalType": "uint256",
          "name": "voteCount",
          "type": "uint256"
        }
      ],
      "stateMutability": "view",
      "type": "function"
    },
    {
      "inputs": [],
      "name": "getAllCandidates",
      "outputs": [
        {
          "components": [
            {
              "internalType": "uint256",
              "name": "id",
              "type": "uint256"
            },
            {
              "internalType": "string",
              "name": "name",
              "type": "string"
            },
            {
              "internalType": "uint256",
              "name": "voteCount",
              "type": "uint256"
            }
          ],
          "internalType": "struct MerkleVoting.Candidate[]",
          "name": "",
          "type": "tuple[]"
        }
      ],
      "stateMutability": "view",
      "type": "function"
    },
    {
      "inputs": [],
      "name": "getCandidateIds",
      "outputs": [
        {
          "internalType": "uint256[]",
          "name": "",
          "type": "uint256[]"
        }
      ],
      "stateMutability": "view",
      "type": "function"
    },
    {
      "inputs": [
        {
          "internalType": "uint256",
          "name": "candidateId",
          "type": "uint256"
        }
      ],
      "name": "getVoteCount",
      "outputs": [
        {
          "internalType": "uint256",
          "name": "",
          "type": "uint256"
        }
      ],
      "stateMutability": "view",
      "type": "function"
    },
    {
      "inputs": [
        {
          "internalType": "address",
          "name": "",
          "type": "address"
        }
      ],
      "name": "hasVoted",
      "outputs": [
        {
          "internalType": "bool",
          "name": "",
          "type": "bool"
        }
      ],
      "stateMutability": "view",
      "type": "function"
    },
    {
      "inputs": [],
      "name": "merkleRoot",
      "outputs": [
        {
          "internalType": "bytes32",
          "name": "",
          "type": "bytes32"
        }
      ],
      "stateMutability": "view",
      "type": "function"
    },
    {
      "inputs": [
        {
          "internalType": "bytes32",
          "name": "newMerkleRoot",
          "type": "bytes32"
        }
      ],
      "name": "updateMerkleRoot",
      "outputs": [],
      "stateMutability": "nonpayable",
      "type": "function"
    },
    {
      "inputs": [
        {
          "internalType": "uint256",
          "name": "candidateId",
          "type": "uint256"
        },
        {
          "internalType": "bytes32[]",
          "name": "merkleProof",
          "type": "bytes32[]"
        }
      ],
      "name": "vote",
      "outputs": [],
      "stateMutability": "nonpayable",
      "type": "function"
    }
  ],
  "bytecode": "0x60806040526001600555348015601457600080fd5b50336000806101000a81548173ffffffffffffffffffffffffffffffffffffffff021916908373ffffffffffffffffffffffffffffffffffffffff1602179055506118e9806100646000396000f3fe608060405234801561001057600080fd5b50600436106100a95760003560e01c8063462e91ec11610071578063462e91ec1461017c5780634783f0ef14610198578063b2c2f2e8146101b4578063bec0fde2146101e4578063f851a44014610202578063fd27419b14610220576100a9565b806303016130146100ae57806309eef43e146100de5780632e6997fe1461010e5780632eb4a7ab1461012c5780633477ee2e1461014a575b600080fd5b6100c860048036038101906100c39190610b8d565b61023c565b6040516100d59190610bc9565b60405180910390f35b6100f860048036038101906100f39190610c42565b610260565b6040516101059190610c8a565b60405180910390f35b610116610280565b6040516101239190610e56565b60405180910390f35b610134610404565b6040516101419190610e91565b60405180910390f35b610164600480360381019061015f9190610b8d565b61040a565b60405161017393929190610ef6565b60405180910390f35b61019660048036038101906101919190611069565b6104bc565b005b6101b260048036038101906101ad91906110de565b61062b565b005b6101ce60048036038101906101c99190610b8d565b6106fa565b6040516101db9190610bc9565b60405180910390f35b6101ec610772565b6040516101f991906111ba565b60405180910390f35b61020a6107ca565b60405161021791906111eb565b60405180910390f35b61023a60048036038101906102359190611266565b6107ee565b005b6004818154811061024c57600080fd5b906000526020600020016000915090505481565b60036020528060005260406000206000915054906101000a900460ff1681565b6060600060048054905067ffffffffffffffff8111156102a3576102a2610f3e565b5b6040519080825280602002602001820160405280156102dc57816020015b6102c9610b22565b8152602001906001900390816102c15790505b50905060005b6004805490508110156103fc576002600060048381548110610307576103066112c6565b5b906000526020600020015481526020019081526020016000206040518060600160405290816000820154815260200160018201805461034590611324565b80601f016020809104026020016040519081016040528092919081815260200182805461037190611324565b80156103be5780601f10610393576101008083540402835291602001916103be565b820191906000526020600020905b8154815290600101906020018083116103a157829003601f168201915b505050505081526020016002820154815250508282815181106103e4576103e36112c6565b5b602002602001018190525080806001019150506102e2565b508091505090565b60015481565b600260205280600052604060002060009150905080600001549080600101805461043390611324565b80601f016020809104026020016040519081016040528092919081815260200182805461045f90611324565b80156104ac5780601f10610481576101008083540402835291602001916104ac565b820191906000526020600020905b81548152906001019060200180831161048f57829003601f168201915b5050505050908060020154905083565b60008054906101000a900473ffffffffffffffffffffffffffffffffffffffff1673ffffffffffffffffffffffffffffffffffffffff163373ffffffffffffffffffffffffffffffffffffffff161461054a576040517f08c379a0000000000000000000000000000000000000000000000000000000008152600401610541906113c7565b60405180910390fd5b60405180606001604052806005548152602001828152602001600081525060026000600554815260200190815260200160002060008201518160000155602082015181600101908161059c9190611593565b5060408201518160020155905050600460055490806001815401808255809150506001900390600052602060002001600090919091909150557fe83b2a43e7e82d975c8a0a6d2f045153c869e111136a34d1889ab7b598e396a360055482604051610608929190611665565b60405180910390a160056000815480929190610623906116c4565b919050555050565b60008054906101000a900473ffffffffffffffffffffffffffffffffffffffff1673ffffffffffffffffffffffffffffffffffffffff163373ffffffffffffffffffffffffffffffffffffffff16146106b9576040517f08c379a00000000000000000000000000000000000000000000000000000000081526004016106b0906113c7565b60405180910390fd5b806001819055507f90004c04698bc3322499a575ed3752dd4abf33e0a7294c06a787a0fe01bea941816040516106ef9190610e91565b60405180910390a150565b600080600260008481526020019081526020016000206000015403610754576040517f08c379a000000000000000000000000000000000000000000000000000000000815260040161074b90611758565b60405180910390fd5b60026000838152602001908152602001600020600201549050919050565b606060048054806020026020016040519081016040528092919081815260200182805480156107c057602002820191906000526020600020905b8154815260200190600101908083116107ac575b5050505050905090565b60008054906101000a900473ffffffffffffffffffffffffffffffffffffffff1681565b600360003373ffffffffffffffffffffffffffffffffffffffff1673ffffffffffffffffffffffffffffffffffffffff16815260200190815260200160002060009054906101000a900460ff161561087b576040517f08c379a0000000000000000000000000000000000000000000000000000000008152600401610872906117c4565b60405180910390fd5b60006002600085815260200190815260200160002060000154036108d4576040517f08c379a00000000000000000000000000000000000000000000000000000000081526004016108cb90611758565b60405180910390fd5b6108df8282336109f5565b61091e576040517f08c379a000000000000000000000000000000000000000000000000000000000815260040161091590611830565b60405180910390fd5b6001600360003373ffffffffffffffffffffffffffffffffffffffff1673ffffffffffffffffffffffffffffffffffffffff16815260200190815260200160002060006101000a81548160ff02191690831515021790555060026000848152602001908152602001600020600201600081548092919061099d906116c4565b91905055503373ffffffffffffffffffffffffffffffffffffffff167f4d99b957a2bc29a30ebd96a7be8e68fe50a3c701db28a91436490b7d53870ca4846040516109e89190610bc9565b60405180910390a2505050565b60008082604051602001610a099190611898565b604051602081830303815290604052805190602001209050610a6f858580806020026020016040519081016040528093929190818152602001838360200280828437600081840152601f19601f8201169050808301925050505050505060015483610a79565b9150509392505050565b600082610a868584610a90565b1490509392505050565b60008082905060005b8451811015610ad557610ac682868381518110610ab957610ab86112c6565b5b6020026020010151610ae0565b91508080600101915050610a99565b508091505092915050565b6000818310610af857610af38284610b0b565b610b03565b610b028383610b0b565b5b905092915050565b600082600052816020526040600020905092915050565b60405180606001604052806000815260200160608152602001600081525090565b6000604051905090565b600080fd5b600080fd5b6000819050919050565b610b6a81610b57565b8114610b7557600080fd5b50565b600081359050610b8781610b61565b92915050565b600060208284031215610ba357610ba2610b4d565b5b6000610bb184828501610b78565b91505092915050565b610bc381610b57565b82525050565b6000602082019050610bde6000830184610bba565b92915050565b600073ffffffffffffffffffffffffffffffffffffffff82169050919050565b6000610c0f82610be4565b9050919050565b610c1f81610c04565b8114610c2a57600080fd5b50565b600081359050610c3c81610c16565b92915050565b600060208284031215610c5857610c57610b4d565b5b6000610c6684828501610c2d565b91505092915050565b60008115159050919050565b610c8481610c6f565b82525050565b6000602082019050610c9f6000830184610c7b565b92915050565b600081519050919050565b600082825260208201905092915050565b6000819050602082019050919050565b610cda81610b57565b82525050565b600081519050919050565b600082825260208201905092915050565b60005b83811015610d1a578082015181840152602081019050610cff565b60008484015250505050565b6000601f19601f8301169050919050565b6000610d4282610ce0565b610d4c8185610ceb565b9350610d5c818560208601610cfc565b610d6581610d26565b840191505092915050565b6000606083016000830151610d886000860182610cd1565b5060208301518482036020860152610da08282610d37565b9150506040830151610db56040860182610cd1565b508091505092915050565b6000610dcc8383610d70565b905092915050565b6000602082019050919050565b6000610dec82610ca5565b610df68185610cb0565b935083602082028501610e0885610cc1565b8060005b85811015610e445784840389528151610e258582610dc0565b9450610e3083610dd4565b925060208a01995050600181019050610e0c565b50829750879550505050505092915050565b60006020820190508181036000830152610e708184610de1565b905092915050565b6000819050919050565b610e8b81610e78565b82525050565b6000602082019050610ea66000830184610e82565b92915050565b600082825260208201905092915050565b6000610ec882610ce0565b610ed28185610eac565b9350610ee2818560208601610cfc565b610eeb81610d26565b840191505092915050565b6000606082019050610f0b6000830186610bba565b8181036020830152610f1d8185610ebd565b9050610f2c6040830184610bba565b949350505050565b600080fd5b600080fd5b7f4e487b7100000000000000000000000000000000000000000000000000000000600052604160045260246000fd5b610f7682610d26565b810181811067ffffffffffffffff82111715610f9557610f94610f3e565b5b80604052505050565b6000610fa8610b43565b9050610fb48282610f6d565b919050565b600067ffffffffffffffff821115610fd457610fd3610f3e565b5b610fdd82610d26565b9050602081019050919050565b82818337600083830152505050565b600061100c61100784610fb9565b610f9e565b90508281526020810184848401111561102857611027610f39565b5b611033848285610fea565b509392505050565b600082601f8301126110505761104f610f34565b5b8135611060848260208601610ff9565b91505092915050565b60006020828403121561107f5761107e610b4d565b5b600082013567ffffffffffffffff81111561109d5761109c610b52565b5b6110a98482850161103b565b91505092915050565b6110bb81610e78565b81146110c657600080fd5b50565b6000813590506110d8816110b2565b92915050565b6000602082840312156110f4576110f3610b4d565b5b6000611102848285016110c9565b91505092915050565b600081519050919050565b600082825260208201905092915050565b6000819050602082019050919050565b60006111438383610cd1565b60208301905092915050565b6000602082019050919050565b60006111678261110b565b6111718185611116565b935061117c83611127565b8060005b838110156111ad5781516111948882611137565b975061119f8361114f565b925050600181019050611180565b5085935050505092915050565b600060208201905081810360008301526111d4818461115c565b905092915050565b6111e581610c04565b82525050565b600060208201905061120060008301846111dc565b92915050565b600080fd5b600080fd5b60008083601f84011261122657611225610f34565b5b8235905067ffffffffffffffff81111561124357611242611206565b5b60208301915083602082028301111561125f5761125e61120b565b5b9250929050565b60008060006040848603121561127f5761127e610b4d565b5b600061128d86828701610b78565b935050602084013567ffffffffffffffff8111156112ae576112ad610b52565b5b6112ba86828701611210565b92509250509250925092565b7f4e487b7100000000000000000000000000000000000000000000000000000000600052603260045260246000fd5b7f4e487b7100000000000000000000000000000000000000000000000000000000600052602260045260246000fd5b6000600282049050600182168061133c57607f821691505b60208210810361134f5761134e6112f5565b5b50919050565b7f4f6e6c792061646d696e2063616e20706572666f726d2074686973206163746960008201527f6f6e2e0000000000000000000000000000000000000000000000000000000000602082015250565b60006113b1602383610eac565b91506113bc82611355565b604082019050919050565b600060208201905081810360008301526113e0816113a4565b9050919050565b60008190508160005260206000209050919050565b60006020601f8301049050919050565b600082821b905092915050565b6000600883026114497fffffffffffffffffffffffffffffffffffffffffffffffffffffffffffffffff8261140c565b611453868361140c565b95508019841693508086168417925050509392505050565b6000819050919050565b600061149061148b61148684610b57565b61146b565b610b57565b9050919050565b6000819050919050565b6114aa83611475565b6114be6114b682611497565b848454611419565b825550505050565b600090565b6114d36114c6565b6114de8184846114a1565b505050565b5b81811015611502576114f76000826114cb565b6001810190506114e4565b5050565b601f82111561154757611518816113e7565b611521846113fc565b81016020851015611530578190505b61154461153c856113fc565b8301826114e3565b50505b505050565b600082821c905092915050565b600061156a6000198460080261154c565b1980831691505092915050565b60006115838383611559565b9150826002028217905092915050565b61159c82610ce0565b67ffffffffffffffff8111156115b5576115b4610f3e565b5b6115bf8254611324565b6115ca828285611506565b600060209050601f8311600181146115fd57600084156115eb578287015190505b6115f58582611577565b86555061165d565b601f19841661160b866113e7565b60005b828110156116335784890151825560018201915060208501945060208101905061160e565b86831015611650578489015161164c601f891682611559565b8355505b6001600288020188555050505b505050505050565b600060408201905061167a6000830185610bba565b818103602083015261168c8184610ebd565b90509392505050565b7f4e487b7100000000000000000000000000000000000000000000000000000000600052601160045260246000fd5b60006116cf82610b57565b91507fffffffffffffffffffffffffffffffffffffffffffffffffffffffffffffffff820361170157611700611695565b5b600182019050919050565b7f43616e64696461746520646f6573206e6f742065786973742e00000000000000600082015250565b6000611742601983610eac565b915061174d8261170c565b602082019050919050565b6000602082019050818103600083015261177181611735565b9050919050565b7f596f75206861766520616c726561647920766f7465642e000000000000000000600082015250565b60006117ae601783610eac565b91506117b982611778565b602082019050919050565b600060208201905081810360008301526117dd816117a1565b9050919050565b7f496e76616c6964204d65726b6c652070726f6f662e0000000000000000000000600082015250565b600061181a601583610eac565b9150611825826117e4565b602082019050919050565b600060208201905081810360008301526118498161180d565b9050919050565b60008160601b9050919050565b600061186882611850565b9050919050565b600061187a8261185d565b9050919050565b61189261188d82610c04565b61186f565b82525050565b60006118a48284611881565b6014820191508190509291505056fea2646970667358221220bf7a2d6d20f6b555e9c0407e657799f4f116562ea238d1cef9af13cb195b65fe64736f6c634300081b0033",
  "linkReferences": {},
  "deployedLinkReferences": {}
}