{
  "_format": "hh-sol-artifact-1",
  "contractName": "Voting",
  "sourceName": "contracts/Voting.sol",
  "abi": [
    {
      "inputs": [],
      "stateMutability": "nonpayable",
      "type": "constructor"
    },
    {
      "anonymous": false,
      "inputs": [
        {
          "indexed": false,
          "internalType": "uint256",
          "name": "candidateId",
          "type": "uint256"
        },
        {
          "indexed": false,
          "internalType": "string",
          "name": "name",
          "type": "string"
        }
      ],
      "name": "CandidateAdded",
      "type": "event"
    },
    {
      "anonymous": false,
      "inputs": [
        {
          "indexed": false,
          "internalType": "uint256",
          "name": "candidateId",
          "type": "uint256"
        },
        {
          "indexed": false,
          "internalType": "string",
          "name": "name",
          "type": "string"
        },
        {
          "indexed": false,
          "internalType": "uint256",
          "name": "voteCount",
          "type": "uint256"
        }
      ],
      "name": "VoteCast",
      "type": "event"
    },
    {
      "anonymous": false,
      "inputs": [
        {
          "indexed": false,
          "internalType": "address",
          "name": "voter",
          "type": "address"
        },
        {
          "indexed": false,
          "internalType": "uint256",
          "name": "candidateId",
          "type": "uint256"
        }
      ],
      "name": "Voted",
      "type": "event"
    },
    {
      "inputs": [
        {
          "internalType": "string",
          "name": "_name",
          "type": "string"
        }
      ],
      "name": "addCandidate",
      "outputs": [],
      "stateMutability": "nonpayable",
      "type": "function"
    },
    {
      "inputs": [],
      "name": "admin",
      "outputs": [
        {
          "internalType": "address",
          "name": "",
          "type": "address"
        }
      ],
      "stateMutability": "view",
      "type": "function"
    },
    {
      "inputs": [
        {
          "internalType": "uint256",
          "name": "",
          "type": "uint256"
        }
      ],
      "name": "candidates",
      "outputs": [
        {
          "internalType": "uint256",
          "name": "id",
          "type": "uint256"
        },
        {
          "internalType": "string",
          "name": "name",
          "type": "string"
        },
        {
          "internalType": "uint256",
          "name": "voteCount",
          "type": "uint256"
        }
      ],
      "stateMutability": "view",
      "type": "function"
    },
    {
      "inputs": [],
      "name": "candidatesCount",
      "outputs": [
        {
          "internalType": "uint256",
          "name": "",
          "type": "uint256"
        }
      ],
      "stateMutability": "view",
      "type": "function"
    },
    {
      "inputs": [],
      "name": "getAllCandidatesDetails",
      "outputs": [
        {
          "internalType": "uint256[]",
          "name": "",
          "type": "uint256[]"
        },
        {
          "internalType": "string[]",
          "name": "",
          "type": "string[]"
        },
        {
          "internalType": "uint256[]",
          "name": "",
          "type": "uint256[]"
        }
      ],
      "stateMutability": "view",
      "type": "function"
    },
    {
      "inputs": [
        {
          "internalType": "uint256",
          "name": "candidateId",
          "type": "uint256"
        }
      ],
      "name": "vote",
      "outputs": [],
      "stateMutability": "nonpayable",
      "type": "function"
    },
    {
      "inputs": [
        {
          "internalType": "address",
          "name": "",
          "type": "address"
        }
      ],
      "name": "voters",
      "outputs": [
        {
          "internalType": "bool",
          "name": "hasVoted",
          "type": "bool"
        },
        {
          "internalType": "uint256",
          "name": "candidateId",
          "type": "uint256"
        }
      ],
      "stateMutability": "view",
      "type": "function"
    }
  ],
  "bytecode": "0x6080604052348015600f57600080fd5b50336000806101000a81548173ffffffffffffffffffffffffffffffffffffffff021916908373ffffffffffffffffffffffffffffffffffffffff1602179055506114838061005f6000396000f3fe608060405234801561001057600080fd5b506004361061007d5760003560e01c8063462e91ec1161005b578063462e91ec146100ee578063a3ec138d1461010a578063cba5cf991461013b578063f851a4401461015b5761007d565b80630121b93f146100825780632d35a8a21461009e5780633477ee2e146100bc575b600080fd5b61009c60048036038101906100979190610887565b610179565b005b6100a6610373565b6040516100b391906108c3565b60405180910390f35b6100d660048036038101906100d19190610887565b610379565b6040516100e59392919061096e565b60405180910390f35b61010860048036038101906101039190610ae1565b61042b565b005b610124600480360381019061011f9190610b88565b61056f565b604051610132929190610bd0565b60405180910390f35b6101436105a0565b60405161015293929190610dc3565b60405180910390f35b610163610819565b6040516101709190610e1e565b60405180910390f35b600160003373ffffffffffffffffffffffffffffffffffffffff1673ffffffffffffffffffffffffffffffffffffffff16815260200190815260200160002060000160009054906101000a900460ff1615610209576040517f08c379a000000000000000000000000000000000000000000000000000000000815260040161020090610e85565b60405180910390fd5b60008111801561021b57506003548111155b61025a576040517f08c379a000000000000000000000000000000000000000000000000000000000815260040161025190610ef1565b60405180910390fd5b604051806040016040528060011515815260200182815250600160003373ffffffffffffffffffffffffffffffffffffffff1673ffffffffffffffffffffffffffffffffffffffff16815260200190815260200160002060008201518160000160006101000a81548160ff0219169083151502179055506020820151816001015590505060026000828152602001908152602001600020600201600081548092919061030590610f40565b91905055507f7443492b9be7d0c78915e97bcabcb827676bf0292f1b78d919b33ca1a881a66b8160026000848152602001908152602001600020600101600260008581526020019081526020016000206002015460405161036893929190611081565b60405180910390a150565b60035481565b60026020528060005260406000206000915090508060000154908060010180546103a290610fb7565b80601f01602080910402602001604051908101604052809291908181526020018280546103ce90610fb7565b801561041b5780601f106103f05761010080835404028352916020019161041b565b820191906000526020600020905b8154815290600101906020018083116103fe57829003601f168201915b5050505050908060020154905083565b60008054906101000a900473ffffffffffffffffffffffffffffffffffffffff1673ffffffffffffffffffffffffffffffffffffffff163373ffffffffffffffffffffffffffffffffffffffff16146104b9576040517f08c379a00000000000000000000000000000000000000000000000000000000081526004016104b090611131565b60405180910390fd5b600360008154809291906104cc90610f40565b919050555060405180606001604052806003548152602001828152602001600081525060026000600354815260200190815260200160002060008201518160000155602082015181600101908161052391906112e8565b50604082015181600201559050507fe83b2a43e7e82d975c8a0a6d2f045153c869e111136a34d1889ab7b598e396a3600354826040516105649291906113ba565b60405180910390a150565b60016020528060005260406000206000915090508060000160009054906101000a900460ff16908060010154905082565b6060806060600060035467ffffffffffffffff8111156105c3576105c26109b6565b5b6040519080825280602002602001820160405280156105f15781602001602082028036833780820191505090505b509050600060035467ffffffffffffffff811115610612576106116109b6565b5b60405190808252806020026020018201604052801561064557816020015b60608152602001906001900390816106305790505b509050600060035467ffffffffffffffff811115610666576106656109b6565b5b6040519080825280602002602001820160405280156106945781602001602082028036833780820191505090505b5090506000600190505b6003548111610807576002600082815260200190815260200160002060000154846001836106cc91906113ea565b815181106106dd576106dc61141e565b5b60200260200101818152505060026000828152602001908152602001600020600101805461070a90610fb7565b80601f016020809104026020016040519081016040528092919081815260200182805461073690610fb7565b80156107835780601f1061075857610100808354040283529160200191610783565b820191906000526020600020905b81548152906001019060200180831161076657829003601f168201915b50505050508360018361079691906113ea565b815181106107a7576107a661141e565b5b60200260200101819052506002600082815260200190815260200160002060020154826001836107d791906113ea565b815181106107e8576107e761141e565b5b60200260200101818152505080806107ff90610f40565b91505061069e565b50828282955095509550505050909192565b60008054906101000a900473ffffffffffffffffffffffffffffffffffffffff1681565b6000604051905090565b600080fd5b600080fd5b6000819050919050565b61086481610851565b811461086f57600080fd5b50565b6000813590506108818161085b565b92915050565b60006020828403121561089d5761089c610847565b5b60006108ab84828501610872565b91505092915050565b6108bd81610851565b82525050565b60006020820190506108d860008301846108b4565b92915050565b600081519050919050565b600082825260208201905092915050565b60005b838110156109185780820151818401526020810190506108fd565b60008484015250505050565b6000601f19601f8301169050919050565b6000610940826108de565b61094a81856108e9565b935061095a8185602086016108fa565b61096381610924565b840191505092915050565b600060608201905061098360008301866108b4565b81810360208301526109958185610935565b90506109a460408301846108b4565b949350505050565b600080fd5b600080fd5b7f4e487b7100000000000000000000000000000000000000000000000000000000600052604160045260246000fd5b6109ee82610924565b810181811067ffffffffffffffff82111715610a0d57610a0c6109b6565b5b80604052505050565b6000610a2061083d565b9050610a2c82826109e5565b919050565b600067ffffffffffffffff821115610a4c57610a4b6109b6565b5b610a5582610924565b9050602081019050919050565b82818337600083830152505050565b6000610a84610a7f84610a31565b610a16565b905082815260208101848484011115610aa057610a9f6109b1565b5b610aab848285610a62565b509392505050565b600082601f830112610ac857610ac76109ac565b5b8135610ad8848260208601610a71565b91505092915050565b600060208284031215610af757610af6610847565b5b600082013567ffffffffffffffff811115610b1557610b1461084c565b5b610b2184828501610ab3565b91505092915050565b600073ffffffffffffffffffffffffffffffffffffffff82169050919050565b6000610b5582610b2a565b9050919050565b610b6581610b4a565b8114610b7057600080fd5b50565b600081359050610b8281610b5c565b92915050565b600060208284031215610b9e57610b9d610847565b5b6000610bac84828501610b73565b91505092915050565b60008115159050919050565b610bca81610bb5565b82525050565b6000604082019050610be56000830185610bc1565b610bf260208301846108b4565b9392505050565b600081519050919050565b600082825260208201905092915050565b6000819050602082019050919050565b610c2e81610851565b82525050565b6000610c408383610c25565b60208301905092915050565b6000602082019050919050565b6000610c6482610bf9565b610c6e8185610c04565b9350610c7983610c15565b8060005b83811015610caa578151610c918882610c34565b9750610c9c83610c4c565b925050600181019050610c7d565b5085935050505092915050565b600081519050919050565b600082825260208201905092915050565b6000819050602082019050919050565b600082825260208201905092915050565b6000610cff826108de565b610d098185610ce3565b9350610d198185602086016108fa565b610d2281610924565b840191505092915050565b6000610d398383610cf4565b905092915050565b6000602082019050919050565b6000610d5982610cb7565b610d638185610cc2565b935083602082028501610d7585610cd3565b8060005b85811015610db15784840389528151610d928582610d2d565b9450610d9d83610d41565b925060208a01995050600181019050610d79565b50829750879550505050505092915050565b60006060820190508181036000830152610ddd8186610c59565b90508181036020830152610df18185610d4e565b90508181036040830152610e058184610c59565b9050949350505050565b610e1881610b4a565b82525050565b6000602082019050610e336000830184610e0f565b92915050565b7f596f75206861766520616c726561647920766f7465642e000000000000000000600082015250565b6000610e6f6017836108e9565b9150610e7a82610e39565b602082019050919050565b60006020820190508181036000830152610e9e81610e62565b9050919050565b7f496e76616c69642063616e6469646174652049442e0000000000000000000000600082015250565b6000610edb6015836108e9565b9150610ee682610ea5565b602082019050919050565b60006020820190508181036000830152610f0a81610ece565b9050919050565b7f4e487b7100000000000000000000000000000000000000000000000000000000600052601160045260246000fd5b6000610f4b82610851565b91507fffffffffffffffffffffffffffffffffffffffffffffffffffffffffffffffff8203610f7d57610f7c610f11565b5b600182019050919050565b7f4e487b7100000000000000000000000000000000000000000000000000000000600052602260045260246000fd5b60006002820490506001821680610fcf57607f821691505b602082108103610fe257610fe1610f88565b5b50919050565b60008190508160005260206000209050919050565b6000815461100a81610fb7565b61101481866108e9565b9450600182166000811461102f576001811461104557611078565b60ff198316865281151560200286019350611078565b61104e85610fe8565b60005b8381101561107057815481890152600182019150602081019050611051565b808801955050505b50505092915050565b600060608201905061109660008301866108b4565b81810360208301526110a88185610ffd565b90506110b760408301846108b4565b949350505050565b7f4f6e6c792061646d696e2063616e20706572666f726d2074686973206163746960008201527f6f6e2e0000000000000000000000000000000000000000000000000000000000602082015250565b600061111b6023836108e9565b9150611126826110bf565b604082019050919050565b6000602082019050818103600083015261114a8161110e565b9050919050565b60006020601f8301049050919050565b600082821b905092915050565b60006008830261119e7fffffffffffffffffffffffffffffffffffffffffffffffffffffffffffffffff82611161565b6111a88683611161565b95508019841693508086168417925050509392505050565b6000819050919050565b60006111e56111e06111db84610851565b6111c0565b610851565b9050919050565b6000819050919050565b6111ff836111ca565b61121361120b826111ec565b84845461116e565b825550505050565b600090565b61122861121b565b6112338184846111f6565b505050565b5b818110156112575761124c600082611220565b600181019050611239565b5050565b601f82111561129c5761126d81610fe8565b61127684611151565b81016020851015611285578190505b61129961129185611151565b830182611238565b50505b505050565b600082821c905092915050565b60006112bf600019846008026112a1565b1980831691505092915050565b60006112d883836112ae565b9150826002028217905092915050565b6112f1826108de565b67ffffffffffffffff81111561130a576113096109b6565b5b6113148254610fb7565b61131f82828561125b565b600060209050601f8311600181146113525760008415611340578287015190505b61134a85826112cc565b8655506113b2565b601f19841661136086610fe8565b60005b8281101561138857848901518255600182019150602085019450602081019050611363565b868310156113a557848901516113a1601f8916826112ae565b8355505b6001600288020188555050505b505050505050565b60006040820190506113cf60008301856108b4565b81810360208301526113e18184610935565b90509392505050565b60006113f582610851565b915061140083610851565b925082820390508181111561141857611417610f11565b5b92915050565b7f4e487b7100000000000000000000000000000000000000000000000000000000600052603260045260246000fdfea2646970667358221220f5c6a8cff4e3022cd4c863150e7a7f2e17a3910e3ae8b2171a1ced36e2dcaf8664736f6c634300081b0033",
  "linkReferences": {},
  "deployedLinkReferences": {}
}