{
  "_format": "hh-sol-artifact-1",
  "contractName": "MerkleVoting",
  "sourceName": "contracts/MerkleVoting.sol",
  "abi": [
    {
      "inputs": [],
      "stateMutability": "nonpayable",
      "type": "constructor"
    },
    {
      "anonymous": false,
      "inputs": [
        {
          "indexed": false,
          "internalType": "uint256",
          "name": "candidateId",
          "type": "uint256"
        },
        {
          "indexed": false,
          "internalType": "string",
          "name": "name",
          "type": "string"
        }
      ],
      "name": "CandidateAdded",
      "type": "event"
    },
    {
      "anonymous": false,
      "inputs": [
        {
          "indexed": false,
          "internalType": "bytes32",
          "name": "merkleRoot",
          "type": "bytes32"
        }
      ],
      "name": "MerkleRootUpdated",
      "type": "event"
    },
    {
      "anonymous": false,
      "inputs": [
        {
          "indexed": true,
          "internalType": "address",
          "name": "voter",
          "type": "address"
        },
        {
          "indexed": false,
          "internalType": "uint256",
          "name": "candidateId",
          "type": "uint256"
        }
      ],
      "name": "Voted",
      "type": "event"
    },
    {
      "inputs": [
        {
          "internalType": "string",
          "name": "name",
          "type": "string"
        }
      ],
      "name": "addCandidate",
      "outputs": [],
      "stateMutability": "nonpayable",
      "type": "function"
    },
    {
      "inputs": [],
      "name": "admin",
      "outputs": [
        {
          "internalType": "address",
          "name": "",
          "type": "address"
        }
      ],
      "stateMutability": "view",
      "type": "function"
    },
    {
      "inputs": [
        {
          "internalType": "uint256",
          "name": "",
          "type": "uint256"
        }
      ],
      "name": "candidateIds",
      "outputs": [
        {
          "internalType": "uint256",
          "name": "",
          "type": "uint256"
        }
      ],
      "stateMutability": "view",
      "type": "function"
    },
    {
      "inputs": [
        {
          "internalType": "uint256",
          "name": "",
          "type": "uint256"
        }
      ],
      "name": "candidates",
      "outputs": [
        {
          "internalType": "uint256",
          "name": "id",
          "type": "uint256"
        },
        {
          "internalType": "string",
          "name": "name",
          "type": "string"
        },
        {
          "internalType": "uint256",
          "name": "voteCount",
          "type": "uint256"
        }
      ],
      "stateMutability": "view",
      "type": "function"
    },
    {
      "inputs": [],
      "name": "getAllCandidates",
      "outputs": [
        {
          "components": [
            {
              "internalType": "uint256",
              "name": "id",
              "type": "uint256"
            },
            {
              "internalType": "string",
              "name": "name",
              "type": "string"
            },
            {
              "internalType": "uint256",
              "name": "voteCount",
              "type": "uint256"
            }
          ],
          "internalType": "struct MerkleVoting.Candidate[]",
          "name": "",
          "type": "tuple[]"
        }
      ],
      "stateMutability": "view",
      "type": "function"
    },
    {
      "inputs": [],
      "name": "getCandidateIds",
      "outputs": [
        {
          "internalType": "uint256[]",
          "name": "",
          "type": "uint256[]"
        }
      ],
      "stateMutability": "view",
      "type": "function"
    },
    {
      "inputs": [
        {
          "internalType": "uint256",
          "name": "candidateId",
          "type": "uint256"
        }
      ],
      "name": "getVoteCount",
      "outputs": [
        {
          "internalType": "uint256",
          "name": "",
          "type": "uint256"
        }
      ],
      "stateMutability": "view",
      "type": "function"
    },
    {
      "inputs": [
        {
          "internalType": "address",
          "name": "",
          "type": "address"
        }
      ],
      "name": "hasVoted",
      "outputs": [
        {
          "internalType": "bool",
          "name": "",
          "type": "bool"
        }
      ],
      "stateMutability": "view",
      "type": "function"
    },
    {
      "inputs": [],
      "name": "merkleRoot",
      "outputs": [
        {
          "internalType": "bytes32",
          "name": "",
          "type": "bytes32"
        }
      ],
      "stateMutability": "view",
      "type": "function"
    },
    {
      "inputs": [
        {
          "internalType": "uint256",
          "name": "candidateId",
          "type": "uint256"
        },
        {
          "internalType": "bytes32[]",
          "name": "merkleProof",
          "type": "bytes32[]"
        },
        {
          "internalType": "bytes32",
          "name": "newMerkleRoot",
          "type": "bytes32"
        }
      ],
      "name": "vote",
      "outputs": [],
      "stateMutability": "nonpayable",
      "type": "function"
    }
  ],
  "bytecode": "0x60806040526001600555348015601457600080fd5b50336000806101000a81548173ffffffffffffffffffffffffffffffffffffffff021916908373ffffffffffffffffffffffffffffffffffffffff160217905550611819806100646000396000f3fe608060405234801561001057600080fd5b506004361061009e5760003560e01c8063458936c211610066578063458936c214610171578063462e91ec1461018d578063b2c2f2e8146101a9578063bec0fde2146101d9578063f851a440146101f75761009e565b806303016130146100a357806309eef43e146100d35780632e6997fe146101035780632eb4a7ab146101215780633477ee2e1461013f575b600080fd5b6100bd60048036038101906100b89190610ad6565b610215565b6040516100ca9190610b12565b60405180910390f35b6100ed60048036038101906100e89190610b8b565b610239565b6040516100fa9190610bd3565b60405180910390f35b61010b610259565b6040516101189190610d9f565b60405180910390f35b6101296103dd565b6040516101369190610dda565b60405180910390f35b61015960048036038101906101549190610ad6565b6103e3565b60405161016893929190610e3f565b60405180910390f35b61018b60048036038101906101869190610f0e565b610495565b005b6101a760048036038101906101a291906110b2565b6106dc565b005b6101c360048036038101906101be9190610ad6565b61084b565b6040516101d09190610b12565b60405180910390f35b6101e16108c3565b6040516101ee91906111aa565b60405180910390f35b6101ff61091b565b60405161020c91906111db565b60405180910390f35b6004818154811061022557600080fd5b906000526020600020016000915090505481565b60036020528060005260406000206000915054906101000a900460ff1681565b6060600060048054905067ffffffffffffffff81111561027c5761027b610f87565b5b6040519080825280602002602001820160405280156102b557816020015b6102a2610a6b565b81526020019060019003908161029a5790505b50905060005b6004805490508110156103d55760026000600483815481106102e0576102df6111f6565b5b906000526020600020015481526020019081526020016000206040518060600160405290816000820154815260200160018201805461031e90611254565b80601f016020809104026020016040519081016040528092919081815260200182805461034a90611254565b80156103975780601f1061036c57610100808354040283529160200191610397565b820191906000526020600020905b81548152906001019060200180831161037a57829003601f168201915b505050505081526020016002820154815250508282815181106103bd576103bc6111f6565b5b602002602001018190525080806001019150506102bb565b508091505090565b60015481565b600260205280600052604060002060009150905080600001549080600101805461040c90611254565b80601f016020809104026020016040519081016040528092919081815260200182805461043890611254565b80156104855780601f1061045a57610100808354040283529160200191610485565b820191906000526020600020905b81548152906001019060200180831161046857829003601f168201915b5050505050908060020154905083565b600360003373ffffffffffffffffffffffffffffffffffffffff1673ffffffffffffffffffffffffffffffffffffffff16815260200190815260200160002060009054906101000a900460ff1615610522576040517f08c379a0000000000000000000000000000000000000000000000000000000008152600401610519906112d1565b60405180910390fd5b600060026000868152602001908152602001600020600001540361057b576040517f08c379a00000000000000000000000000000000000000000000000000000000081526004016105729061133d565b60405180910390fd5b6105878383338461093f565b6105c6576040517f08c379a00000000000000000000000000000000000000000000000000000000081526004016105bd906113a9565b60405180910390fd5b6001600360003373ffffffffffffffffffffffffffffffffffffffff1673ffffffffffffffffffffffffffffffffffffffff16815260200190815260200160002060006101000a81548160ff021916908315150217905550600260008581526020019081526020016000206002016000815480929190610645906113f8565b9190505550806001819055507f90004c04698bc3322499a575ed3752dd4abf33e0a7294c06a787a0fe01bea941816040516106809190610dda565b60405180910390a13373ffffffffffffffffffffffffffffffffffffffff167f4d99b957a2bc29a30ebd96a7be8e68fe50a3c701db28a91436490b7d53870ca4856040516106ce9190610b12565b60405180910390a250505050565b60008054906101000a900473ffffffffffffffffffffffffffffffffffffffff1673ffffffffffffffffffffffffffffffffffffffff163373ffffffffffffffffffffffffffffffffffffffff161461076a576040517f08c379a0000000000000000000000000000000000000000000000000000000008152600401610761906114b2565b60405180910390fd5b6040518060600160405280600554815260200182815260200160008152506002600060055481526020019081526020016000206000820151816000015560208201518160010190816107bc919061167e565b5060408201518160020155905050600460055490806001815401808255809150506001900390600052602060002001600090919091909150557fe83b2a43e7e82d975c8a0a6d2f045153c869e111136a34d1889ab7b598e396a360055482604051610828929190611750565b60405180910390a160056000815480929190610843906113f8565b919050555050565b6000806002600084815260200190815260200160002060000154036108a5576040517f08c379a000000000000000000000000000000000000000000000000000000000815260040161089c9061133d565b60405180910390fd5b60026000838152602001908152602001600020600201549050919050565b6060600480548060200260200160405190810160405280929190818152602001828054801561091157602002820191906000526020600020905b8154815260200190600101908083116108fd575b5050505050905090565b60008054906101000a900473ffffffffffffffffffffffffffffffffffffffff1681565b6000808360405160200161095391906117c8565b6040516020818303038152906040528051906020012090506109b7868680806020026020016040519081016040528093929190818152602001838360200280828437600081840152601f19601f8201169050808301925050505050505084836109c2565b915050949350505050565b6000826109cf85846109d9565b1490509392505050565b60008082905060005b8451811015610a1e57610a0f82868381518110610a0257610a016111f6565b5b6020026020010151610a29565b915080806001019150506109e2565b508091505092915050565b6000818310610a4157610a3c8284610a54565b610a4c565b610a4b8383610a54565b5b905092915050565b600082600052816020526040600020905092915050565b60405180606001604052806000815260200160608152602001600081525090565b6000604051905090565b600080fd5b600080fd5b6000819050919050565b610ab381610aa0565b8114610abe57600080fd5b50565b600081359050610ad081610aaa565b92915050565b600060208284031215610aec57610aeb610a96565b5b6000610afa84828501610ac1565b91505092915050565b610b0c81610aa0565b82525050565b6000602082019050610b276000830184610b03565b92915050565b600073ffffffffffffffffffffffffffffffffffffffff82169050919050565b6000610b5882610b2d565b9050919050565b610b6881610b4d565b8114610b7357600080fd5b50565b600081359050610b8581610b5f565b92915050565b600060208284031215610ba157610ba0610a96565b5b6000610baf84828501610b76565b91505092915050565b60008115159050919050565b610bcd81610bb8565b82525050565b6000602082019050610be86000830184610bc4565b92915050565b600081519050919050565b600082825260208201905092915050565b6000819050602082019050919050565b610c2381610aa0565b82525050565b600081519050919050565b600082825260208201905092915050565b60005b83811015610c63578082015181840152602081019050610c48565b60008484015250505050565b6000601f19601f8301169050919050565b6000610c8b82610c29565b610c958185610c34565b9350610ca5818560208601610c45565b610cae81610c6f565b840191505092915050565b6000606083016000830151610cd16000860182610c1a565b5060208301518482036020860152610ce98282610c80565b9150506040830151610cfe6040860182610c1a565b508091505092915050565b6000610d158383610cb9565b905092915050565b6000602082019050919050565b6000610d3582610bee565b610d3f8185610bf9565b935083602082028501610d5185610c0a565b8060005b85811015610d8d5784840389528151610d6e8582610d09565b9450610d7983610d1d565b925060208a01995050600181019050610d55565b50829750879550505050505092915050565b60006020820190508181036000830152610db98184610d2a565b905092915050565b6000819050919050565b610dd481610dc1565b82525050565b6000602082019050610def6000830184610dcb565b92915050565b600082825260208201905092915050565b6000610e1182610c29565b610e1b8185610df5565b9350610e2b818560208601610c45565b610e3481610c6f565b840191505092915050565b6000606082019050610e546000830186610b03565b8181036020830152610e668185610e06565b9050610e756040830184610b03565b949350505050565b600080fd5b600080fd5b600080fd5b60008083601f840112610ea257610ea1610e7d565b5b8235905067ffffffffffffffff811115610ebf57610ebe610e82565b5b602083019150836020820283011115610edb57610eda610e87565b5b9250929050565b610eeb81610dc1565b8114610ef657600080fd5b50565b600081359050610f0881610ee2565b92915050565b60008060008060608587031215610f2857610f27610a96565b5b6000610f3687828801610ac1565b945050602085013567ffffffffffffffff811115610f5757610f56610a9b565b5b610f6387828801610e8c565b93509350506040610f7687828801610ef9565b91505092959194509250565b600080fd5b7f4e487b7100000000000000000000000000000000000000000000000000000000600052604160045260246000fd5b610fbf82610c6f565b810181811067ffffffffffffffff82111715610fde57610fdd610f87565b5b80604052505050565b6000610ff1610a8c565b9050610ffd8282610fb6565b919050565b600067ffffffffffffffff82111561101d5761101c610f87565b5b61102682610c6f565b9050602081019050919050565b82818337600083830152505050565b600061105561105084611002565b610fe7565b90508281526020810184848401111561107157611070610f82565b5b61107c848285611033565b509392505050565b600082601f83011261109957611098610e7d565b5b81356110a9848260208601611042565b91505092915050565b6000602082840312156110c8576110c7610a96565b5b600082013567ffffffffffffffff8111156110e6576110e5610a9b565b5b6110f284828501611084565b91505092915050565b600081519050919050565b600082825260208201905092915050565b6000819050602082019050919050565b60006111338383610c1a565b60208301905092915050565b6000602082019050919050565b6000611157826110fb565b6111618185611106565b935061116c83611117565b8060005b8381101561119d5781516111848882611127565b975061118f8361113f565b925050600181019050611170565b5085935050505092915050565b600060208201905081810360008301526111c4818461114c565b905092915050565b6111d581610b4d565b82525050565b60006020820190506111f060008301846111cc565b92915050565b7f4e487b7100000000000000000000000000000000000000000000000000000000600052603260045260246000fd5b7f4e487b7100000000000000000000000000000000000000000000000000000000600052602260045260246000fd5b6000600282049050600182168061126c57607f821691505b60208210810361127f5761127e611225565b5b50919050565b7f596f75206861766520616c726561647920766f7465642e000000000000000000600082015250565b60006112bb601783610df5565b91506112c682611285565b602082019050919050565b600060208201905081810360008301526112ea816112ae565b9050919050565b7f43616e64696461746520646f6573206e6f742065786973742e00000000000000600082015250565b6000611327601983610df5565b9150611332826112f1565b602082019050919050565b600060208201905081810360008301526113568161131a565b9050919050565b7f496e76616c6964204d65726b6c652070726f6f662e0000000000000000000000600082015250565b6000611393601583610df5565b915061139e8261135d565b602082019050919050565b600060208201905081810360008301526113c281611386565b9050919050565b7f4e487b7100000000000000000000000000000000000000000000000000000000600052601160045260246000fd5b600061140382610aa0565b91507fffffffffffffffffffffffffffffffffffffffffffffffffffffffffffffffff8203611435576114346113c9565b5b600182019050919050565b7f4f6e6c792061646d696e2063616e20706572666f726d2074686973206163746960008201527f6f6e2e0000000000000000000000000000000000000000000000000000000000602082015250565b600061149c602383610df5565b91506114a782611440565b604082019050919050565b600060208201905081810360008301526114cb8161148f565b9050919050565b60008190508160005260206000209050919050565b60006020601f8301049050919050565b600082821b905092915050565b6000600883026115347fffffffffffffffffffffffffffffffffffffffffffffffffffffffffffffffff826114f7565b61153e86836114f7565b95508019841693508086168417925050509392505050565b6000819050919050565b600061157b61157661157184610aa0565b611556565b610aa0565b9050919050565b6000819050919050565b61159583611560565b6115a96115a182611582565b848454611504565b825550505050565b600090565b6115be6115b1565b6115c981848461158c565b505050565b5b818110156115ed576115e26000826115b6565b6001810190506115cf565b5050565b601f82111561163257611603816114d2565b61160c846114e7565b8101602085101561161b578190505b61162f611627856114e7565b8301826115ce565b50505b505050565b600082821c905092915050565b600061165560001984600802611637565b1980831691505092915050565b600061166e8383611644565b9150826002028217905092915050565b61168782610c29565b67ffffffffffffffff8111156116a05761169f610f87565b5b6116aa8254611254565b6116b58282856115f1565b600060209050601f8311600181146116e857600084156116d6578287015190505b6116e08582611662565b865550611748565b601f1984166116f6866114d2565b60005b8281101561171e578489015182556001820191506020850194506020810190506116f9565b8683101561173b5784890151611737601f891682611644565b8355505b6001600288020188555050505b505050505050565b60006040820190506117656000830185610b03565b81810360208301526117778184610e06565b90509392505050565b60008160601b9050919050565b600061179882611780565b9050919050565b60006117aa8261178d565b9050919050565b6117c26117bd82610b4d565b61179f565b82525050565b60006117d482846117b1565b6014820191508190509291505056fea2646970667358221220c7993933eb45d9555c0dfaf515ee2747de0385df3a5f07d000f275b9957d85a464736f6c634300081b0033",
  "linkReferences": {},
  "deployedLinkReferences": {}
}