{
  "_format": "hh-sol-artifact-1",
  "contractName": "MerkleVoting",
  "sourceName": "contracts/MerkleVoting.sol",
  "abi": [
    {
      "inputs": [],
      "stateMutability": "nonpayable",
      "type": "constructor"
    },
    {
      "anonymous": false,
      "inputs": [
        {
          "indexed": false,
          "internalType": "uint256",
          "name": "candidateId",
          "type": "uint256"
        },
        {
          "indexed": false,
          "internalType": "string",
          "name": "name",
          "type": "string"
        }
      ],
      "name": "CandidateAdded",
      "type": "event"
    },
    {
      "anonymous": false,
      "inputs": [
        {
          "indexed": true,
          "internalType": "address",
          "name": "voter",
          "type": "address"
        },
        {
          "indexed": false,
          "internalType": "uint256",
          "name": "candidateId",
          "type": "uint256"
        }
      ],
      "name": "Voted",
      "type": "event"
    },
    {
      "anonymous": false,
      "inputs": [
        {
          "indexed": false,
          "internalType": "bool",
          "name": "isOpen",
          "type": "bool"
        }
      ],
      "name": "VotingStatusChanged",
      "type": "event"
    },
    {
      "inputs": [
        {
          "internalType": "uint256",
          "name": "_candidateId",
          "type": "uint256"
        },
        {
          "internalType": "string",
          "name": "_name",
          "type": "string"
        }
      ],
      "name": "addCandidate",
      "outputs": [],
      "stateMutability": "nonpayable",
      "type": "function"
    },
    {
      "inputs": [],
      "name": "admin",
      "outputs": [
        {
          "internalType": "address",
          "name": "",
          "type": "address"
        }
      ],
      "stateMutability": "view",
      "type": "function"
    },
    {
      "inputs": [
        {
          "internalType": "uint256",
          "name": "",
          "type": "uint256"
        }
      ],
      "name": "candidateIds",
      "outputs": [
        {
          "internalType": "uint256",
          "name": "",
          "type": "uint256"
        }
      ],
      "stateMutability": "view",
      "type": "function"
    },
    {
      "inputs": [
        {
          "internalType": "uint256",
          "name": "",
          "type": "uint256"
        }
      ],
      "name": "candidates",
      "outputs": [
        {
          "internalType": "uint256",
          "name": "id",
          "type": "uint256"
        },
        {
          "internalType": "string",
          "name": "name",
          "type": "string"
        },
        {
          "internalType": "uint256",
          "name": "voteCount",
          "type": "uint256"
        }
      ],
      "stateMutability": "view",
      "type": "function"
    },
    {
      "inputs": [],
      "name": "getCandidateIds",
      "outputs": [
        {
          "internalType": "uint256[]",
          "name": "",
          "type": "uint256[]"
        }
      ],
      "stateMutability": "view",
      "type": "function"
    },
    {
      "inputs": [
        {
          "internalType": "uint256",
          "name": "_candidateId",
          "type": "uint256"
        }
      ],
      "name": "getVoteCount",
      "outputs": [
        {
          "internalType": "uint256",
          "name": "",
          "type": "uint256"
        }
      ],
      "stateMutability": "view",
      "type": "function"
    },
    {
      "inputs": [
        {
          "internalType": "address",
          "name": "",
          "type": "address"
        }
      ],
      "name": "hasVoted",
      "outputs": [
        {
          "internalType": "bool",
          "name": "",
          "type": "bool"
        }
      ],
      "stateMutability": "view",
      "type": "function"
    },
    {
      "inputs": [
        {
          "internalType": "uint256",
          "name": "_candidateId",
          "type": "uint256"
        }
      ],
      "name": "vote",
      "outputs": [],
      "stateMutability": "nonpayable",
      "type": "function"
    }
  ],
  "bytecode": "0x6080604052348015600f57600080fd5b50336000806101000a81548173ffffffffffffffffffffffffffffffffffffffff021916908373ffffffffffffffffffffffffffffffffffffffff16021790555061116d8061005f6000396000f3fe608060405234801561001057600080fd5b50600436106100885760003560e01c80633477ee2e1161005b5780633477ee2e14610125578063b2c2f2e814610157578063bec0fde214610187578063f851a440146101a557610088565b80630121b93f1461008d57806303016130146100a957806309eef43e146100d95780631750a3d014610109575b600080fd5b6100a760048036038101906100a2919061075b565b6101c3565b005b6100c360048036038101906100be919061075b565b61037e565b6040516100d09190610797565b60405180910390f35b6100f360048036038101906100ee9190610810565b6103a2565b6040516101009190610858565b60405180910390f35b610123600480360381019061011e91906109b9565b6103c2565b005b61013f600480360381019061013a919061075b565b61056b565b60405161014e93929190610a94565b60405180910390f35b610171600480360381019061016c919061075b565b61061d565b60405161017e9190610797565b60405180910390f35b61018f610695565b60405161019c9190610b90565b60405180910390f35b6101ad6106ed565b6040516101ba9190610bc1565b60405180910390f35b600260003373ffffffffffffffffffffffffffffffffffffffff1673ffffffffffffffffffffffffffffffffffffffff16815260200190815260200160002060009054906101000a900460ff1615610250576040517f08c379a000000000000000000000000000000000000000000000000000000000815260040161024790610c28565b60405180910390fd5b60006001600083815260200190815260200160002060000154036102a9576040517f08c379a00000000000000000000000000000000000000000000000000000000081526004016102a090610c94565b60405180910390fd5b6001600260003373ffffffffffffffffffffffffffffffffffffffff1673ffffffffffffffffffffffffffffffffffffffff16815260200190815260200160002060006101000a81548160ff02191690831515021790555060016000828152602001908152602001600020600201600081548092919061032890610ce3565b91905055503373ffffffffffffffffffffffffffffffffffffffff167f4d99b957a2bc29a30ebd96a7be8e68fe50a3c701db28a91436490b7d53870ca4826040516103739190610797565b60405180910390a250565b6003818154811061038e57600080fd5b906000526020600020016000915090505481565b60026020528060005260406000206000915054906101000a900460ff1681565b60008054906101000a900473ffffffffffffffffffffffffffffffffffffffff1673ffffffffffffffffffffffffffffffffffffffff163373ffffffffffffffffffffffffffffffffffffffff1614610450576040517f08c379a000000000000000000000000000000000000000000000000000000000815260040161044790610d9d565b60405180910390fd5b60006001600084815260200190815260200160002060000154146104a9576040517f08c379a00000000000000000000000000000000000000000000000000000000081526004016104a090610e09565b60405180910390fd5b60405180606001604052808381526020018281526020016000815250600160008481526020019081526020016000206000820151816000015560208201518160010190816104f79190611035565b506040820151816002015590505060038290806001815401808255809150506001900390600052602060002001600090919091909150557fe83b2a43e7e82d975c8a0a6d2f045153c869e111136a34d1889ab7b598e396a3828260405161055f929190611107565b60405180910390a15050565b600160205280600052604060002060009150905080600001549080600101805461059490610e58565b80601f01602080910402602001604051908101604052809291908181526020018280546105c090610e58565b801561060d5780601f106105e25761010080835404028352916020019161060d565b820191906000526020600020905b8154815290600101906020018083116105f057829003601f168201915b5050505050908060020154905083565b600080600160008481526020019081526020016000206000015403610677576040517f08c379a000000000000000000000000000000000000000000000000000000000815260040161066e90610c94565b60405180910390fd5b60016000838152602001908152602001600020600201549050919050565b606060038054806020026020016040519081016040528092919081815260200182805480156106e357602002820191906000526020600020905b8154815260200190600101908083116106cf575b5050505050905090565b60008054906101000a900473ffffffffffffffffffffffffffffffffffffffff1681565b6000604051905090565b600080fd5b600080fd5b6000819050919050565b61073881610725565b811461074357600080fd5b50565b6000813590506107558161072f565b92915050565b6000602082840312156107715761077061071b565b5b600061077f84828501610746565b91505092915050565b61079181610725565b82525050565b60006020820190506107ac6000830184610788565b92915050565b600073ffffffffffffffffffffffffffffffffffffffff82169050919050565b60006107dd826107b2565b9050919050565b6107ed816107d2565b81146107f857600080fd5b50565b60008135905061080a816107e4565b92915050565b6000602082840312156108265761082561071b565b5b6000610834848285016107fb565b91505092915050565b60008115159050919050565b6108528161083d565b82525050565b600060208201905061086d6000830184610849565b92915050565b600080fd5b600080fd5b6000601f19601f8301169050919050565b7f4e487b7100000000000000000000000000000000000000000000000000000000600052604160045260246000fd5b6108c68261087d565b810181811067ffffffffffffffff821117156108e5576108e461088e565b5b80604052505050565b60006108f8610711565b905061090482826108bd565b919050565b600067ffffffffffffffff8211156109245761092361088e565b5b61092d8261087d565b9050602081019050919050565b82818337600083830152505050565b600061095c61095784610909565b6108ee565b90508281526020810184848401111561097857610977610878565b5b61098384828561093a565b509392505050565b600082601f8301126109a05761099f610873565b5b81356109b0848260208601610949565b91505092915050565b600080604083850312156109d0576109cf61071b565b5b60006109de85828601610746565b925050602083013567ffffffffffffffff8111156109ff576109fe610720565b5b610a0b8582860161098b565b9150509250929050565b600081519050919050565b600082825260208201905092915050565b60005b83811015610a4f578082015181840152602081019050610a34565b60008484015250505050565b6000610a6682610a15565b610a708185610a20565b9350610a80818560208601610a31565b610a898161087d565b840191505092915050565b6000606082019050610aa96000830186610788565b8181036020830152610abb8185610a5b565b9050610aca6040830184610788565b949350505050565b600081519050919050565b600082825260208201905092915050565b6000819050602082019050919050565b610b0781610725565b82525050565b6000610b198383610afe565b60208301905092915050565b6000602082019050919050565b6000610b3d82610ad2565b610b478185610add565b9350610b5283610aee565b8060005b83811015610b83578151610b6a8882610b0d565b9750610b7583610b25565b925050600181019050610b56565b5085935050505092915050565b60006020820190508181036000830152610baa8184610b32565b905092915050565b610bbb816107d2565b82525050565b6000602082019050610bd66000830184610bb2565b92915050565b7f596f75206861766520616c726561647920766f7465642e000000000000000000600082015250565b6000610c12601783610a20565b9150610c1d82610bdc565b602082019050919050565b60006020820190508181036000830152610c4181610c05565b9050919050565b7f43616e64696461746520646f6573206e6f742065786973742e00000000000000600082015250565b6000610c7e601983610a20565b9150610c8982610c48565b602082019050919050565b60006020820190508181036000830152610cad81610c71565b9050919050565b7f4e487b7100000000000000000000000000000000000000000000000000000000600052601160045260246000fd5b6000610cee82610725565b91507fffffffffffffffffffffffffffffffffffffffffffffffffffffffffffffffff8203610d2057610d1f610cb4565b5b600182019050919050565b7f4f6e6c792061646d696e2063616e20706572666f726d2074686973206163746960008201527f6f6e2e0000000000000000000000000000000000000000000000000000000000602082015250565b6000610d87602383610a20565b9150610d9282610d2b565b604082019050919050565b60006020820190508181036000830152610db681610d7a565b9050919050565b7f43616e64696461746520494420616c7265616479206578697374732e00000000600082015250565b6000610df3601c83610a20565b9150610dfe82610dbd565b602082019050919050565b60006020820190508181036000830152610e2281610de6565b9050919050565b7f4e487b7100000000000000000000000000000000000000000000000000000000600052602260045260246000fd5b60006002820490506001821680610e7057607f821691505b602082108103610e8357610e82610e29565b5b50919050565b60008190508160005260206000209050919050565b60006020601f8301049050919050565b600082821b905092915050565b600060088302610eeb7fffffffffffffffffffffffffffffffffffffffffffffffffffffffffffffffff82610eae565b610ef58683610eae565b95508019841693508086168417925050509392505050565b6000819050919050565b6000610f32610f2d610f2884610725565b610f0d565b610725565b9050919050565b6000819050919050565b610f4c83610f17565b610f60610f5882610f39565b848454610ebb565b825550505050565b600090565b610f75610f68565b610f80818484610f43565b505050565b5b81811015610fa457610f99600082610f6d565b600181019050610f86565b5050565b601f821115610fe957610fba81610e89565b610fc384610e9e565b81016020851015610fd2578190505b610fe6610fde85610e9e565b830182610f85565b50505b505050565b600082821c905092915050565b600061100c60001984600802610fee565b1980831691505092915050565b60006110258383610ffb565b9150826002028217905092915050565b61103e82610a15565b67ffffffffffffffff8111156110575761105661088e565b5b6110618254610e58565b61106c828285610fa8565b600060209050601f83116001811461109f576000841561108d578287015190505b6110978582611019565b8655506110ff565b601f1984166110ad86610e89565b60005b828110156110d5578489015182556001820191506020850194506020810190506110b0565b868310156110f257848901516110ee601f891682610ffb565b8355505b6001600288020188555050505b505050505050565b600060408201905061111c6000830185610788565b818103602083015261112e8184610a5b565b9050939250505056fea26469706673582212201810f59e1f8087d4026fc4caa5799d80a764cf9764bae949bf67666993dbfdec64736f6c634300081b0033",
  "linkReferences": {},
  "deployedLinkReferences": {}
}