{
  "_format": "hh-sol-artifact-1",
  "contractName": "MerkleVoting",
  "sourceName": "contracts/MerkleVoting.sol",
  "abi": [
    {
      "inputs": [],
      "stateMutability": "nonpayable",
      "type": "constructor"
    },
    {
      "inputs": [],
      "name": "admin",
      "outputs": [
        {
          "internalType": "address",
          "name": "",
          "type": "address"
        }
      ],
      "stateMutability": "view",
      "type": "function"
    },
    {
      "inputs": [
        {
          "internalType": "uint256",
          "name": "",
          "type": "uint256"
        }
      ],
      "name": "candidates",
      "outputs": [
        {
          "internalType": "uint256",
          "name": "",
          "type": "uint256"
        }
      ],
      "stateMutability": "view",
      "type": "function"
    },
    {
      "inputs": [],
      "name": "candidatesCount",
      "outputs": [
        {
          "internalType": "uint256",
          "name": "",
          "type": "uint256"
        }
      ],
      "stateMutability": "view",
      "type": "function"
    },
    {
      "inputs": [],
      "name": "endVoting",
      "outputs": [],
      "stateMutability": "nonpayable",
      "type": "function"
    },
    {
      "inputs": [
        {
          "internalType": "uint256",
          "name": "_candidateId",
          "type": "uint256"
        }
      ],
      "name": "getCandidateVotes",
      "outputs": [
        {
          "internalType": "uint256",
          "name": "",
          "type": "uint256"
        }
      ],
      "stateMutability": "view",
      "type": "function"
    },
    {
      "inputs": [],
      "name": "merkleRoot",
      "outputs": [
        {
          "internalType": "bytes32",
          "name": "",
          "type": "bytes32"
        }
      ],
      "stateMutability": "view",
      "type": "function"
    },
    {
      "inputs": [],
      "name": "registerCandidate",
      "outputs": [],
      "stateMutability": "nonpayable",
      "type": "function"
    },
    {
      "inputs": [
        {
          "internalType": "bytes32",
          "name": "_merkleRoot",
          "type": "bytes32"
        }
      ],
      "name": "setMerkleRoot",
      "outputs": [],
      "stateMutability": "nonpayable",
      "type": "function"
    },
    {
      "inputs": [],
      "name": "startVoting",
      "outputs": [],
      "stateMutability": "nonpayable",
      "type": "function"
    },
    {
      "inputs": [
        {
          "internalType": "uint256",
          "name": "_candidateId",
          "type": "uint256"
        },
        {
          "internalType": "bytes32[]",
          "name": "proof",
          "type": "bytes32[]"
        }
      ],
      "name": "vote",
      "outputs": [],
      "stateMutability": "nonpayable",
      "type": "function"
    },
    {
      "inputs": [
        {
          "internalType": "address",
          "name": "",
          "type": "address"
        }
      ],
      "name": "voters",
      "outputs": [
        {
          "internalType": "bool",
          "name": "hasVoted",
          "type": "bool"
        },
        {
          "internalType": "uint256",
          "name": "candidateId",
          "type": "uint256"
        }
      ],
      "stateMutability": "view",
      "type": "function"
    },
    {
      "inputs": [],
      "name": "votingOpen",
      "outputs": [
        {
          "internalType": "bool",
          "name": "",
          "type": "bool"
        }
      ],
      "stateMutability": "view",
      "type": "function"
    }
  ],
  "bytecode": "0x6080604052348015600f57600080fd5b50336000806101000a81548173ffffffffffffffffffffffffffffffffffffffff021916908373ffffffffffffffffffffffffffffffffffffffff1602179055506000600260006101000a81548160ff021916908315150217905550610f598061007a6000396000f3fe608060405234801561001057600080fd5b50600436106100b45760003560e01c8063a3ec138d11610071578063a3ec138d1461017b578063a95824b4146101ac578063c3403ddf146101ca578063f7e0079e146101d4578063f851a440146101de578063fd27419b146101fc576100b4565b80631ec6b60a146100b95780632d35a8a2146100c35780632eb4a7ab146100e15780633477ee2e146100ff5780637cb647591461012f578063866163c01461014b575b600080fd5b6100c1610218565b005b6100cb6102c3565b6040516100d89190610823565b60405180910390f35b6100e96102c9565b6040516100f69190610857565b60405180910390f35b610119600480360381019061011491906108b2565b6102cf565b6040516101269190610823565b60405180910390f35b6101496004803603810190610144919061090b565b6102e7565b005b610165600480360381019061016091906108b2565b61037f565b6040516101729190610823565b60405180910390f35b61019560048036038101906101909190610996565b61039c565b6040516101a39291906109de565b60405180910390f35b6101b46103cd565b6040516101c19190610a07565b60405180910390f35b6101d26103e0565b005b6101dc61048b565b005b6101e6610533565b6040516101f39190610a31565b60405180910390f35b61021660048036038101906102119190610ba5565b610557565b005b60008054906101000a900473ffffffffffffffffffffffffffffffffffffffff1673ffffffffffffffffffffffffffffffffffffffff163373ffffffffffffffffffffffffffffffffffffffff16146102a6576040517f08c379a000000000000000000000000000000000000000000000000000000000815260040161029d90610c84565b60405180910390fd5b6001600260006101000a81548160ff021916908315150217905550565b60015481565b60035481565b60056020528060005260406000206000915090505481565b60008054906101000a900473ffffffffffffffffffffffffffffffffffffffff1673ffffffffffffffffffffffffffffffffffffffff163373ffffffffffffffffffffffffffffffffffffffff1614610375576040517f08c379a000000000000000000000000000000000000000000000000000000000815260040161036c90610c84565b60405180910390fd5b8060038190555050565b600060056000838152602001908152602001600020549050919050565b60046020528060005260406000206000915090508060000160009054906101000a900460ff16908060010154905082565b600260009054906101000a900460ff1681565b60008054906101000a900473ffffffffffffffffffffffffffffffffffffffff1673ffffffffffffffffffffffffffffffffffffffff163373ffffffffffffffffffffffffffffffffffffffff161461046e576040517f08c379a000000000000000000000000000000000000000000000000000000000815260040161046590610c84565b60405180910390fd5b6000600260006101000a81548160ff021916908315150217905550565b60008054906101000a900473ffffffffffffffffffffffffffffffffffffffff1673ffffffffffffffffffffffffffffffffffffffff163373ffffffffffffffffffffffffffffffffffffffff1614610519576040517f08c379a000000000000000000000000000000000000000000000000000000000815260040161051090610c84565b60405180910390fd5b6001600081548092919061052c90610cd3565b9190505550565b60008054906101000a900473ffffffffffffffffffffffffffffffffffffffff1681565b600260009054906101000a900460ff166105a6576040517f08c379a000000000000000000000000000000000000000000000000000000000815260040161059d90610d67565b60405180910390fd5b600460003373ffffffffffffffffffffffffffffffffffffffff1673ffffffffffffffffffffffffffffffffffffffff16815260200190815260200160002060000160009054906101000a900460ff1615610636576040517f08c379a000000000000000000000000000000000000000000000000000000000815260040161062d90610dd3565b60405180910390fd5b6000338360405160200161064b929190610e5c565b6040516020818303038152906040528051906020012090506106708260035483610761565b6106af576040517f08c379a00000000000000000000000000000000000000000000000000000000081526004016106a690610ed4565b60405180910390fd5b604051806040016040528060011515815260200184815250600460003373ffffffffffffffffffffffffffffffffffffffff1673ffffffffffffffffffffffffffffffffffffffff16815260200190815260200160002060008201518160000160006101000a81548160ff0219169083151502179055506020820151816001015590505060056000848152602001908152602001600020600081548092919061075790610cd3565b9190505550505050565b60008261076e8584610778565b1490509392505050565b60008082905060005b84518110156107bd576107ae828683815181106107a1576107a0610ef4565b5b60200260200101516107c8565b91508080600101915050610781565b508091505092915050565b60008183106107e0576107db82846107f3565b6107eb565b6107ea83836107f3565b5b905092915050565b600082600052816020526040600020905092915050565b6000819050919050565b61081d8161080a565b82525050565b60006020820190506108386000830184610814565b92915050565b6000819050919050565b6108518161083e565b82525050565b600060208201905061086c6000830184610848565b92915050565b6000604051905090565b600080fd5b600080fd5b61088f8161080a565b811461089a57600080fd5b50565b6000813590506108ac81610886565b92915050565b6000602082840312156108c8576108c761087c565b5b60006108d68482850161089d565b91505092915050565b6108e88161083e565b81146108f357600080fd5b50565b600081359050610905816108df565b92915050565b6000602082840312156109215761092061087c565b5b600061092f848285016108f6565b91505092915050565b600073ffffffffffffffffffffffffffffffffffffffff82169050919050565b600061096382610938565b9050919050565b61097381610958565b811461097e57600080fd5b50565b6000813590506109908161096a565b92915050565b6000602082840312156109ac576109ab61087c565b5b60006109ba84828501610981565b91505092915050565b60008115159050919050565b6109d8816109c3565b82525050565b60006040820190506109f360008301856109cf565b610a006020830184610814565b9392505050565b6000602082019050610a1c60008301846109cf565b92915050565b610a2b81610958565b82525050565b6000602082019050610a466000830184610a22565b92915050565b600080fd5b6000601f19601f8301169050919050565b7f4e487b7100000000000000000000000000000000000000000000000000000000600052604160045260246000fd5b610a9a82610a51565b810181811067ffffffffffffffff82111715610ab957610ab8610a62565b5b80604052505050565b6000610acc610872565b9050610ad88282610a91565b919050565b600067ffffffffffffffff821115610af857610af7610a62565b5b602082029050602081019050919050565b600080fd5b6000610b21610b1c84610add565b610ac2565b90508083825260208201905060208402830185811115610b4457610b43610b09565b5b835b81811015610b6d5780610b5988826108f6565b845260208401935050602081019050610b46565b5050509392505050565b600082601f830112610b8c57610b8b610a4c565b5b8135610b9c848260208601610b0e565b91505092915050565b60008060408385031215610bbc57610bbb61087c565b5b6000610bca8582860161089d565b925050602083013567ffffffffffffffff811115610beb57610bea610881565b5b610bf785828601610b77565b9150509250929050565b600082825260208201905092915050565b7f4f6e6c792061646d696e2063616e20706572666f726d2074686973206163746960008201527f6f6e2e0000000000000000000000000000000000000000000000000000000000602082015250565b6000610c6e602383610c01565b9150610c7982610c12565b604082019050919050565b60006020820190508181036000830152610c9d81610c61565b9050919050565b7f4e487b7100000000000000000000000000000000000000000000000000000000600052601160045260246000fd5b6000610cde8261080a565b91507fffffffffffffffffffffffffffffffffffffffffffffffffffffffffffffffff8203610d1057610d0f610ca4565b5b600182019050919050565b7f566f74696e67206973206e6f742063757272656e746c79206f70656e2e000000600082015250565b6000610d51601d83610c01565b9150610d5c82610d1b565b602082019050919050565b60006020820190508181036000830152610d8081610d44565b9050919050565b7f596f75206861766520616c726561647920766f7465642e000000000000000000600082015250565b6000610dbd601783610c01565b9150610dc882610d87565b602082019050919050565b60006020820190508181036000830152610dec81610db0565b9050919050565b60008160601b9050919050565b6000610e0b82610df3565b9050919050565b6000610e1d82610e00565b9050919050565b610e35610e3082610958565b610e12565b82525050565b6000819050919050565b610e56610e518261080a565b610e3b565b82525050565b6000610e688285610e24565b601482019150610e788284610e45565b6020820191508190509392505050565b7f496e76616c696420766f7465206f72204d65726b6c652070726f6f662e000000600082015250565b6000610ebe601d83610c01565b9150610ec982610e88565b602082019050919050565b60006020820190508181036000830152610eed81610eb1565b9050919050565b7f4e487b7100000000000000000000000000000000000000000000000000000000600052603260045260246000fdfea26469706673582212204cb1841e2d646c36fbf4399ce3de3ecb994eece4267d21cc8255b38f3922833364736f6c634300081b0033",
  "linkReferences": {},
  "deployedLinkReferences": {}
}