{
  "_format": "hh-sol-artifact-1",
  "contractName": "Voting",
  "sourceName": "contracts/Voting.sol",
  "abi": [
    {
      "inputs": [],
      "stateMutability": "nonpayable",
      "type": "constructor"
    },
    {
      "anonymous": false,
      "inputs": [
        {
          "indexed": false,
          "internalType": "uint256",
          "name": "candidateId",
          "type": "uint256"
        },
        {
          "indexed": false,
          "internalType": "string",
          "name": "name",
          "type": "string"
        }
      ],
      "name": "CandidateAdded",
      "type": "event"
    },
    {
      "anonymous": false,
      "inputs": [
        {
          "indexed": false,
          "internalType": "address",
          "name": "voter",
          "type": "address"
        },
        {
          "indexed": false,
          "internalType": "uint256",
          "name": "candidateId",
          "type": "uint256"
        }
      ],
      "name": "Voted",
      "type": "event"
    },
    {
      "inputs": [
        {
          "internalType": "string",
          "name": "_name",
          "type": "string"
        }
      ],
      "name": "addCandidate",
      "outputs": [],
      "stateMutability": "nonpayable",
      "type": "function"
    },
    {
      "inputs": [],
      "name": "admin",
      "outputs": [
        {
          "internalType": "address",
          "name": "",
          "type": "address"
        }
      ],
      "stateMutability": "view",
      "type": "function"
    },
    {
      "inputs": [
        {
          "internalType": "uint256",
          "name": "",
          "type": "uint256"
        }
      ],
      "name": "candidates",
      "outputs": [
        {
          "internalType": "uint256",
          "name": "id",
          "type": "uint256"
        },
        {
          "internalType": "string",
          "name": "name",
          "type": "string"
        },
        {
          "internalType": "uint256",
          "name": "voteCount",
          "type": "uint256"
        }
      ],
      "stateMutability": "view",
      "type": "function"
    },
    {
      "inputs": [],
      "name": "candidatesCount",
      "outputs": [
        {
          "internalType": "uint256",
          "name": "",
          "type": "uint256"
        }
      ],
      "stateMutability": "view",
      "type": "function"
    },
    {
      "inputs": [],
      "name": "getWinner",
      "outputs": [
        {
          "internalType": "uint256",
          "name": "winnerId",
          "type": "uint256"
        },
        {
          "internalType": "string",
          "name": "winnerName",
          "type": "string"
        },
        {
          "internalType": "uint256",
          "name": "winnerVoteCount",
          "type": "uint256"
        }
      ],
      "stateMutability": "view",
      "type": "function"
    },
    {
      "inputs": [
        {
          "internalType": "uint256",
          "name": "_candidateId",
          "type": "uint256"
        }
      ],
      "name": "vote",
      "outputs": [],
      "stateMutability": "nonpayable",
      "type": "function"
    },
    {
      "inputs": [
        {
          "internalType": "address",
          "name": "",
          "type": "address"
        }
      ],
      "name": "voters",
      "outputs": [
        {
          "internalType": "bool",
          "name": "hasVoted",
          "type": "bool"
        },
        {
          "internalType": "uint256",
          "name": "candidateId",
          "type": "uint256"
        }
      ],
      "stateMutability": "view",
      "type": "function"
    }
  ],
  "bytecode": "0x6080604052348015600f57600080fd5b50336000806101000a81548173ffffffffffffffffffffffffffffffffffffffff021916908373ffffffffffffffffffffffffffffffffffffffff16021790555061100b8061005f6000396000f3fe608060405234801561001057600080fd5b506004361061007d5760003560e01c8063462e91ec1161005b578063462e91ec146100ee5780638e7ea5b21461010a578063a3ec138d1461012a578063f851a4401461015b5761007d565b80630121b93f146100825780632d35a8a21461009e5780633477ee2e146100bc575b600080fd5b61009c60048036038101906100979190610721565b610179565b005b6100a6610346565b6040516100b3919061075d565b60405180910390f35b6100d660048036038101906100d19190610721565b61034c565b6040516100e593929190610808565b60405180910390f35b6101086004803603810190610103919061097b565b6103fe565b005b610112610542565b60405161012193929190610808565b60405180910390f35b610144600480360381019061013f9190610a22565b610682565b604051610152929190610a6a565b60405180910390f35b6101636106b3565b6040516101709190610aa2565b60405180910390f35b600160003373ffffffffffffffffffffffffffffffffffffffff1673ffffffffffffffffffffffffffffffffffffffff16815260200190815260200160002060000160009054906101000a900460ff1615610209576040517f08c379a000000000000000000000000000000000000000000000000000000000815260040161020090610b09565b60405180910390fd5b60008111801561021b57506003548111155b61025a576040517f08c379a000000000000000000000000000000000000000000000000000000000815260040161025190610b75565b60405180910390fd5b604051806040016040528060011515815260200182815250600160003373ffffffffffffffffffffffffffffffffffffffff1673ffffffffffffffffffffffffffffffffffffffff16815260200190815260200160002060008201518160000160006101000a81548160ff0219169083151502179055506020820151816001015590505060026000828152602001908152602001600020600201600081548092919061030590610bc4565b91905055507f4d99b957a2bc29a30ebd96a7be8e68fe50a3c701db28a91436490b7d53870ca4338260405161033b929190610c0c565b60405180910390a150565b60035481565b600260205280600052604060002060009150905080600001549080600101805461037590610c64565b80601f01602080910402602001604051908101604052809291908181526020018280546103a190610c64565b80156103ee5780601f106103c3576101008083540402835291602001916103ee565b820191906000526020600020905b8154815290600101906020018083116103d157829003601f168201915b5050505050908060020154905083565b60008054906101000a900473ffffffffffffffffffffffffffffffffffffffff1673ffffffffffffffffffffffffffffffffffffffff163373ffffffffffffffffffffffffffffffffffffffff161461048c576040517f08c379a000000000000000000000000000000000000000000000000000000000815260040161048390610d07565b60405180910390fd5b6003600081548092919061049f90610bc4565b91905055506040518060600160405280600354815260200182815260200160008152506002600060035481526020019081526020016000206000820151816000015560208201518160010190816104f69190610ed3565b50604082015181600201559050507fe83b2a43e7e82d975c8a0a6d2f045153c869e111136a34d1889ab7b598e396a360035482604051610537929190610fa5565b60405180910390a150565b60006060600080600090506000600190505b600354811161067b5781600260008381526020019081526020016000206002015411156106685760026000828152602001908152602001600020600201549150600260008281526020019081526020016000206000015494506002600082815260200190815260200160002060010180546105ce90610c64565b80601f01602080910402602001604051908101604052809291908181526020018280546105fa90610c64565b80156106475780601f1061061c57610100808354040283529160200191610647565b820191906000526020600020905b81548152906001019060200180831161062a57829003601f168201915b50505050509350600260008281526020019081526020016000206002015492505b808061067390610bc4565b915050610554565b5050909192565b60016020528060005260406000206000915090508060000160009054906101000a900460ff16908060010154905082565b60008054906101000a900473ffffffffffffffffffffffffffffffffffffffff1681565b6000604051905090565b600080fd5b600080fd5b6000819050919050565b6106fe816106eb565b811461070957600080fd5b50565b60008135905061071b816106f5565b92915050565b600060208284031215610737576107366106e1565b5b60006107458482850161070c565b91505092915050565b610757816106eb565b82525050565b6000602082019050610772600083018461074e565b92915050565b600081519050919050565b600082825260208201905092915050565b60005b838110156107b2578082015181840152602081019050610797565b60008484015250505050565b6000601f19601f8301169050919050565b60006107da82610778565b6107e48185610783565b93506107f4818560208601610794565b6107fd816107be565b840191505092915050565b600060608201905061081d600083018661074e565b818103602083015261082f81856107cf565b905061083e604083018461074e565b949350505050565b600080fd5b600080fd5b7f4e487b7100000000000000000000000000000000000000000000000000000000600052604160045260246000fd5b610888826107be565b810181811067ffffffffffffffff821117156108a7576108a6610850565b5b80604052505050565b60006108ba6106d7565b90506108c6828261087f565b919050565b600067ffffffffffffffff8211156108e6576108e5610850565b5b6108ef826107be565b9050602081019050919050565b82818337600083830152505050565b600061091e610919846108cb565b6108b0565b90508281526020810184848401111561093a5761093961084b565b5b6109458482856108fc565b509392505050565b600082601f83011261096257610961610846565b5b813561097284826020860161090b565b91505092915050565b600060208284031215610991576109906106e1565b5b600082013567ffffffffffffffff8111156109af576109ae6106e6565b5b6109bb8482850161094d565b91505092915050565b600073ffffffffffffffffffffffffffffffffffffffff82169050919050565b60006109ef826109c4565b9050919050565b6109ff816109e4565b8114610a0a57600080fd5b50565b600081359050610a1c816109f6565b92915050565b600060208284031215610a3857610a376106e1565b5b6000610a4684828501610a0d565b91505092915050565b60008115159050919050565b610a6481610a4f565b82525050565b6000604082019050610a7f6000830185610a5b565b610a8c602083018461074e565b9392505050565b610a9c816109e4565b82525050565b6000602082019050610ab76000830184610a93565b92915050565b7f596f75206861766520616c726561647920766f7465642e000000000000000000600082015250565b6000610af3601783610783565b9150610afe82610abd565b602082019050919050565b60006020820190508181036000830152610b2281610ae6565b9050919050565b7f496e76616c69642063616e6469646174652049442e0000000000000000000000600082015250565b6000610b5f601583610783565b9150610b6a82610b29565b602082019050919050565b60006020820190508181036000830152610b8e81610b52565b9050919050565b7f4e487b7100000000000000000000000000000000000000000000000000000000600052601160045260246000fd5b6000610bcf826106eb565b91507fffffffffffffffffffffffffffffffffffffffffffffffffffffffffffffffff8203610c0157610c00610b95565b5b600182019050919050565b6000604082019050610c216000830185610a93565b610c2e602083018461074e565b9392505050565b7f4e487b7100000000000000000000000000000000000000000000000000000000600052602260045260246000fd5b60006002820490506001821680610c7c57607f821691505b602082108103610c8f57610c8e610c35565b5b50919050565b7f4f6e6c792061646d696e2063616e20706572666f726d2074686973206163746960008201527f6f6e2e0000000000000000000000000000000000000000000000000000000000602082015250565b6000610cf1602383610783565b9150610cfc82610c95565b604082019050919050565b60006020820190508181036000830152610d2081610ce4565b9050919050565b60008190508160005260206000209050919050565b60006020601f8301049050919050565b600082821b905092915050565b600060088302610d897fffffffffffffffffffffffffffffffffffffffffffffffffffffffffffffffff82610d4c565b610d938683610d4c565b95508019841693508086168417925050509392505050565b6000819050919050565b6000610dd0610dcb610dc6846106eb565b610dab565b6106eb565b9050919050565b6000819050919050565b610dea83610db5565b610dfe610df682610dd7565b848454610d59565b825550505050565b600090565b610e13610e06565b610e1e818484610de1565b505050565b5b81811015610e4257610e37600082610e0b565b600181019050610e24565b5050565b601f821115610e8757610e5881610d27565b610e6184610d3c565b81016020851015610e70578190505b610e84610e7c85610d3c565b830182610e23565b50505b505050565b600082821c905092915050565b6000610eaa60001984600802610e8c565b1980831691505092915050565b6000610ec38383610e99565b9150826002028217905092915050565b610edc82610778565b67ffffffffffffffff811115610ef557610ef4610850565b5b610eff8254610c64565b610f0a828285610e46565b600060209050601f831160018114610f3d5760008415610f2b578287015190505b610f358582610eb7565b865550610f9d565b601f198416610f4b86610d27565b60005b82811015610f7357848901518255600182019150602085019450602081019050610f4e565b86831015610f905784890151610f8c601f891682610e99565b8355505b6001600288020188555050505b505050505050565b6000604082019050610fba600083018561074e565b8181036020830152610fcc81846107cf565b9050939250505056fea26469706673582212209767a8626de410431d643c78f47c64e2bb9d6a1f2951f810e3e0220f66077d2964736f6c634300081b0033",
  "linkReferences": {},
  "deployedLinkReferences": {}
}