{
  "_format": "hh-sol-artifact-1",
  "contractName": "MerkleVoting",
  "sourceName": "contracts/MerkleVoting.sol",
  "abi": [
    {
      "inputs": [],
      "stateMutability": "nonpayable",
      "type": "constructor"
    },
    {
      "anonymous": false,
      "inputs": [
        {
          "indexed": false,
          "internalType": "uint256",
          "name": "candidateId",
          "type": "uint256"
        },
        {
          "indexed": false,
          "internalType": "string",
          "name": "name",
          "type": "string"
        }
      ],
      "name": "CandidateAdded",
      "type": "event"
    },
    {
      "anonymous": false,
      "inputs": [
        {
          "indexed": false,
          "internalType": "bytes32",
          "name": "newMerkleRoot",
          "type": "bytes32"
        }
      ],
      "name": "MerkleRootUpdated",
      "type": "event"
    },
    {
      "anonymous": false,
      "inputs": [
        {
          "indexed": false,
          "internalType": "address",
          "name": "voter",
          "type": "address"
        },
        {
          "indexed": false,
          "internalType": "uint256",
          "name": "candidateId",
          "type": "uint256"
        }
      ],
      "name": "Voted",
      "type": "event"
    },
    {
      "anonymous": false,
      "inputs": [],
      "name": "VotingEnded",
      "type": "event"
    },
    {
      "anonymous": false,
      "inputs": [],
      "name": "VotingStarted",
      "type": "event"
    },
    {
      "inputs": [
        {
          "internalType": "string",
          "name": "_name",
          "type": "string"
        }
      ],
      "name": "addCandidate",
      "outputs": [],
      "stateMutability": "nonpayable",
      "type": "function"
    },
    {
      "inputs": [],
      "name": "admin",
      "outputs": [
        {
          "internalType": "address",
          "name": "",
          "type": "address"
        }
      ],
      "stateMutability": "view",
      "type": "function"
    },
    {
      "inputs": [
        {
          "internalType": "uint256",
          "name": "",
          "type": "uint256"
        }
      ],
      "name": "candidates",
      "outputs": [
        {
          "internalType": "string",
          "name": "",
          "type": "string"
        }
      ],
      "stateMutability": "view",
      "type": "function"
    },
    {
      "inputs": [],
      "name": "candidatesCount",
      "outputs": [
        {
          "internalType": "uint256",
          "name": "",
          "type": "uint256"
        }
      ],
      "stateMutability": "view",
      "type": "function"
    },
    {
      "inputs": [],
      "name": "endVoting",
      "outputs": [],
      "stateMutability": "nonpayable",
      "type": "function"
    },
    {
      "inputs": [],
      "name": "getMerkleRoot",
      "outputs": [
        {
          "internalType": "bytes32",
          "name": "",
          "type": "bytes32"
        }
      ],
      "stateMutability": "view",
      "type": "function"
    },
    {
      "inputs": [],
      "name": "merkleRoot",
      "outputs": [
        {
          "internalType": "bytes32",
          "name": "",
          "type": "bytes32"
        }
      ],
      "stateMutability": "view",
      "type": "function"
    },
    {
      "inputs": [],
      "name": "startVoting",
      "outputs": [],
      "stateMutability": "nonpayable",
      "type": "function"
    },
    {
      "inputs": [
        {
          "internalType": "bytes32",
          "name": "_newMerkleRoot",
          "type": "bytes32"
        }
      ],
      "name": "updateMerkleRoot",
      "outputs": [],
      "stateMutability": "nonpayable",
      "type": "function"
    },
    {
      "inputs": [
        {
          "internalType": "uint256",
          "name": "_candidateId",
          "type": "uint256"
        },
        {
          "internalType": "bytes32[]",
          "name": "proof",
          "type": "bytes32[]"
        }
      ],
      "name": "vote",
      "outputs": [],
      "stateMutability": "nonpayable",
      "type": "function"
    },
    {
      "inputs": [
        {
          "internalType": "address",
          "name": "",
          "type": "address"
        }
      ],
      "name": "voters",
      "outputs": [
        {
          "internalType": "bool",
          "name": "",
          "type": "bool"
        }
      ],
      "stateMutability": "view",
      "type": "function"
    },
    {
      "inputs": [],
      "name": "votingOpen",
      "outputs": [
        {
          "internalType": "bool",
          "name": "",
          "type": "bool"
        }
      ],
      "stateMutability": "view",
      "type": "function"
    }
  ],
  "bytecode": "0x6080604052348015600f57600080fd5b50336000806101000a81548173ffffffffffffffffffffffffffffffffffffffff021916908373ffffffffffffffffffffffffffffffffffffffff16021790555060008060146101000a81548160ff0219169083151502179055506000600381905550611581806100816000396000f3fe608060405234801561001057600080fd5b50600436106100b45760003560e01c806349590657116100715780634959065714610167578063a3ec138d14610185578063a95824b4146101b5578063c3403ddf146101d3578063f851a440146101dd578063fd27419b146101fb576100b4565b80631ec6b60a146100b95780632d35a8a2146100c35780632eb4a7ab146100e15780633477ee2e146100ff578063462e91ec1461012f5780634783f0ef1461014b575b600080fd5b6100c1610217565b005b6100cb6102ee565b6040516100d8919061095a565b60405180910390f35b6100e96102f4565b6040516100f6919061098e565b60405180910390f35b610119600480360381019061011491906109e9565b6102fa565b6040516101269190610aa6565b60405180910390f35b61014960048036038101906101449190610bfd565b61039a565b005b61016560048036038101906101609190610c72565b6104a1565b005b61016f610570565b60405161017c919061098e565b60405180910390f35b61019f600480360381019061019a9190610cfd565b61057a565b6040516101ac9190610d45565b60405180910390f35b6101bd61059a565b6040516101ca9190610d45565b60405180910390f35b6101db6105ad565b005b6101e5610683565b6040516101f29190610d6f565b60405180910390f35b61021560048036038101906102109190610dea565b6106a7565b005b60008054906101000a900473ffffffffffffffffffffffffffffffffffffffff1673ffffffffffffffffffffffffffffffffffffffff163373ffffffffffffffffffffffffffffffffffffffff16146102a5576040517f08c379a000000000000000000000000000000000000000000000000000000000815260040161029c90610ebc565b60405180910390fd5b6001600060146101000a81548160ff0219169083151502179055507f877e2548498f42b7975a186b94ef1d32c86d420b7b806dd2be2bea293b89590460405160405180910390a1565b60035481565b60025481565b6004602052806000526040600020600091509050805461031990610f0b565b80601f016020809104026020016040519081016040528092919081815260200182805461034590610f0b565b80156103925780601f1061036757610100808354040283529160200191610392565b820191906000526020600020905b81548152906001019060200180831161037557829003601f168201915b505050505081565b60008054906101000a900473ffffffffffffffffffffffffffffffffffffffff1673ffffffffffffffffffffffffffffffffffffffff163373ffffffffffffffffffffffffffffffffffffffff1614610428576040517f08c379a000000000000000000000000000000000000000000000000000000000815260040161041f90610ebc565b60405180910390fd5b6003600081548092919061043b90610f6b565b9190505550806004600060035481526020019081526020016000209081610462919061115f565b507fe83b2a43e7e82d975c8a0a6d2f045153c869e111136a34d1889ab7b598e396a360035482604051610496929190611231565b60405180910390a150565b60008054906101000a900473ffffffffffffffffffffffffffffffffffffffff1673ffffffffffffffffffffffffffffffffffffffff163373ffffffffffffffffffffffffffffffffffffffff161461052f576040517f08c379a000000000000000000000000000000000000000000000000000000000815260040161052690610ebc565b60405180910390fd5b806002819055507f90004c04698bc3322499a575ed3752dd4abf33e0a7294c06a787a0fe01bea94181604051610565919061098e565b60405180910390a150565b6000600254905090565b60016020528060005260406000206000915054906101000a900460ff1681565b600060149054906101000a900460ff1681565b60008054906101000a900473ffffffffffffffffffffffffffffffffffffffff1673ffffffffffffffffffffffffffffffffffffffff163373ffffffffffffffffffffffffffffffffffffffff161461063b576040517f08c379a000000000000000000000000000000000000000000000000000000000815260040161063290610ebc565b60405180910390fd5b60008060146101000a81548160ff0219169083151502179055507f7a19ed057db79e3c2fa0b97a54b43bef4fce74b31bb6c01af514b9a18a7f70ab60405160405180910390a1565b60008054906101000a900473ffffffffffffffffffffffffffffffffffffffff1681565b600060149054906101000a900460ff166106f6576040517f08c379a00000000000000000000000000000000000000000000000000000000081526004016106ed906112ad565b60405180910390fd5b600160003373ffffffffffffffffffffffffffffffffffffffff1673ffffffffffffffffffffffffffffffffffffffff16815260200190815260200160002060009054906101000a900460ff1615610783576040517f08c379a000000000000000000000000000000000000000000000000000000000815260040161077a90611319565b60405180910390fd5b60008311801561079557506003548311155b6107d4576040517f08c379a00000000000000000000000000000000000000000000000000000000081526004016107cb90611385565b60405180910390fd5b600033846040516020016107e992919061140e565b604051602081830303815290604052805190602001209050600081905060005b8484905081101561086557818585838181106108285761082761143a565b5b9050602002013560405160200161084092919061148a565b6040516020818303038152906040528051906020012091508080600101915050610809565b5060025481146108aa576040517f08c379a00000000000000000000000000000000000000000000000000000000081526004016108a190611502565b60405180910390fd5b60018060003373ffffffffffffffffffffffffffffffffffffffff1673ffffffffffffffffffffffffffffffffffffffff16815260200190815260200160002060006101000a81548160ff0219169083151502179055507f4d99b957a2bc29a30ebd96a7be8e68fe50a3c701db28a91436490b7d53870ca43386604051610932929190611522565b60405180910390a15050505050565b6000819050919050565b61095481610941565b82525050565b600060208201905061096f600083018461094b565b92915050565b6000819050919050565b61098881610975565b82525050565b60006020820190506109a3600083018461097f565b92915050565b6000604051905090565b600080fd5b600080fd5b6109c681610941565b81146109d157600080fd5b50565b6000813590506109e3816109bd565b92915050565b6000602082840312156109ff576109fe6109b3565b5b6000610a0d848285016109d4565b91505092915050565b600081519050919050565b600082825260208201905092915050565b60005b83811015610a50578082015181840152602081019050610a35565b60008484015250505050565b6000601f19601f8301169050919050565b6000610a7882610a16565b610a828185610a21565b9350610a92818560208601610a32565b610a9b81610a5c565b840191505092915050565b60006020820190508181036000830152610ac08184610a6d565b905092915050565b600080fd5b600080fd5b7f4e487b7100000000000000000000000000000000000000000000000000000000600052604160045260246000fd5b610b0a82610a5c565b810181811067ffffffffffffffff82111715610b2957610b28610ad2565b5b80604052505050565b6000610b3c6109a9565b9050610b488282610b01565b919050565b600067ffffffffffffffff821115610b6857610b67610ad2565b5b610b7182610a5c565b9050602081019050919050565b82818337600083830152505050565b6000610ba0610b9b84610b4d565b610b32565b905082815260208101848484011115610bbc57610bbb610acd565b5b610bc7848285610b7e565b509392505050565b600082601f830112610be457610be3610ac8565b5b8135610bf4848260208601610b8d565b91505092915050565b600060208284031215610c1357610c126109b3565b5b600082013567ffffffffffffffff811115610c3157610c306109b8565b5b610c3d84828501610bcf565b91505092915050565b610c4f81610975565b8114610c5a57600080fd5b50565b600081359050610c6c81610c46565b92915050565b600060208284031215610c8857610c876109b3565b5b6000610c9684828501610c5d565b91505092915050565b600073ffffffffffffffffffffffffffffffffffffffff82169050919050565b6000610cca82610c9f565b9050919050565b610cda81610cbf565b8114610ce557600080fd5b50565b600081359050610cf781610cd1565b92915050565b600060208284031215610d1357610d126109b3565b5b6000610d2184828501610ce8565b91505092915050565b60008115159050919050565b610d3f81610d2a565b82525050565b6000602082019050610d5a6000830184610d36565b92915050565b610d6981610cbf565b82525050565b6000602082019050610d846000830184610d60565b92915050565b600080fd5b600080fd5b60008083601f840112610daa57610da9610ac8565b5b8235905067ffffffffffffffff811115610dc757610dc6610d8a565b5b602083019150836020820283011115610de357610de2610d8f565b5b9250929050565b600080600060408486031215610e0357610e026109b3565b5b6000610e11868287016109d4565b935050602084013567ffffffffffffffff811115610e3257610e316109b8565b5b610e3e86828701610d94565b92509250509250925092565b7f4f6e6c792061646d696e2063616e20706572666f726d2074686973206163746960008201527f6f6e2e0000000000000000000000000000000000000000000000000000000000602082015250565b6000610ea6602383610a21565b9150610eb182610e4a565b604082019050919050565b60006020820190508181036000830152610ed581610e99565b9050919050565b7f4e487b7100000000000000000000000000000000000000000000000000000000600052602260045260246000fd5b60006002820490506001821680610f2357607f821691505b602082108103610f3657610f35610edc565b5b50919050565b7f4e487b7100000000000000000000000000000000000000000000000000000000600052601160045260246000fd5b6000610f7682610941565b91507fffffffffffffffffffffffffffffffffffffffffffffffffffffffffffffffff8203610fa857610fa7610f3c565b5b600182019050919050565b60008190508160005260206000209050919050565b60006020601f8301049050919050565b600082821b905092915050565b6000600883026110157fffffffffffffffffffffffffffffffffffffffffffffffffffffffffffffffff82610fd8565b61101f8683610fd8565b95508019841693508086168417925050509392505050565b6000819050919050565b600061105c61105761105284610941565b611037565b610941565b9050919050565b6000819050919050565b61107683611041565b61108a61108282611063565b848454610fe5565b825550505050565b600090565b61109f611092565b6110aa81848461106d565b505050565b5b818110156110ce576110c3600082611097565b6001810190506110b0565b5050565b601f821115611113576110e481610fb3565b6110ed84610fc8565b810160208510156110fc578190505b61111061110885610fc8565b8301826110af565b50505b505050565b600082821c905092915050565b600061113660001984600802611118565b1980831691505092915050565b600061114f8383611125565b9150826002028217905092915050565b61116882610a16565b67ffffffffffffffff81111561118157611180610ad2565b5b61118b8254610f0b565b6111968282856110d2565b600060209050601f8311600181146111c957600084156111b7578287015190505b6111c18582611143565b865550611229565b601f1984166111d786610fb3565b60005b828110156111ff578489015182556001820191506020850194506020810190506111da565b8683101561121c5784890151611218601f891682611125565b8355505b6001600288020188555050505b505050505050565b6000604082019050611246600083018561094b565b81810360208301526112588184610a6d565b90509392505050565b7f566f74696e67206973206e6f742063757272656e746c79206f70656e2e000000600082015250565b6000611297601d83610a21565b91506112a282611261565b602082019050919050565b600060208201905081810360008301526112c68161128a565b9050919050565b7f596f75206861766520616c726561647920766f7465642e000000000000000000600082015250565b6000611303601783610a21565b915061130e826112cd565b602082019050919050565b60006020820190508181036000830152611332816112f6565b9050919050565b7f496e76616c69642063616e6469646174652049442e0000000000000000000000600082015250565b600061136f601583610a21565b915061137a82611339565b602082019050919050565b6000602082019050818103600083015261139e81611362565b9050919050565b60008160601b9050919050565b60006113bd826113a5565b9050919050565b60006113cf826113b2565b9050919050565b6113e76113e282610cbf565b6113c4565b82525050565b6000819050919050565b61140861140382610941565b6113ed565b82525050565b600061141a82856113d6565b60148201915061142a82846113f7565b6020820191508190509392505050565b7f4e487b7100000000000000000000000000000000000000000000000000000000600052603260045260246000fd5b6000819050919050565b61148461147f82610975565b611469565b82525050565b60006114968285611473565b6020820191506114a68284611473565b6020820191508190509392505050565b7f496e76616c6964204d65726b6c652070726f6f662e0000000000000000000000600082015250565b60006114ec601583610a21565b91506114f7826114b6565b602082019050919050565b6000602082019050818103600083015261151b816114df565b9050919050565b60006040820190506115376000830185610d60565b611544602083018461094b565b939250505056fea26469706673582212200e0d5ab5ebfb96f762f7fd3521a9a2ec778809d82b42acf33b69706d138d03fd64736f6c634300081b0033",
  "linkReferences": {},
  "deployedLinkReferences": {}
}