{
  "_format": "hh-sol-artifact-1",
  "contractName": "MerkleVoting",
  "sourceName": "contracts/MerkleVoting.sol",
  "abi": [
    {
      "inputs": [],
      "stateMutability": "nonpayable",
      "type": "constructor"
    },
    {
      "anonymous": false,
      "inputs": [
        {
          "indexed": false,
          "internalType": "uint256",
          "name": "candidateId",
          "type": "uint256"
        },
        {
          "indexed": false,
          "internalType": "string",
          "name": "name",
          "type": "string"
        }
      ],
      "name": "CandidateAdded",
      "type": "event"
    },
    {
      "anonymous": false,
      "inputs": [
        {
          "indexed": false,
          "internalType": "bytes32",
          "name": "leaf",
          "type": "bytes32"
        },
        {
          "indexed": false,
          "internalType": "bytes32[]",
          "name": "merkleProof",
          "type": "bytes32[]"
        },
        {
          "indexed": false,
          "internalType": "bytes32",
          "name": "newRoot",
          "type": "bytes32"
        },
        {
          "indexed": false,
          "internalType": "bool",
          "name": "isValidProof",
          "type": "bool"
        }
      ],
      "name": "DebugMerkleProof",
      "type": "event"
    },
    {
      "anonymous": false,
      "inputs": [
        {
          "indexed": false,
          "internalType": "bytes32",
          "name": "merkleRoot",
          "type": "bytes32"
        }
      ],
      "name": "MerkleRootUpdated",
      "type": "event"
    },
    {
      "anonymous": false,
      "inputs": [
        {
          "indexed": true,
          "internalType": "address",
          "name": "voter",
          "type": "address"
        },
        {
          "indexed": false,
          "internalType": "uint256",
          "name": "candidateId",
          "type": "uint256"
        }
      ],
      "name": "Voted",
      "type": "event"
    },
    {
      "inputs": [
        {
          "internalType": "string",
          "name": "name",
          "type": "string"
        }
      ],
      "name": "addCandidate",
      "outputs": [],
      "stateMutability": "nonpayable",
      "type": "function"
    },
    {
      "inputs": [],
      "name": "admin",
      "outputs": [
        {
          "internalType": "address",
          "name": "",
          "type": "address"
        }
      ],
      "stateMutability": "view",
      "type": "function"
    },
    {
      "inputs": [
        {
          "internalType": "uint256",
          "name": "",
          "type": "uint256"
        }
      ],
      "name": "candidateIds",
      "outputs": [
        {
          "internalType": "uint256",
          "name": "",
          "type": "uint256"
        }
      ],
      "stateMutability": "view",
      "type": "function"
    },
    {
      "inputs": [
        {
          "internalType": "uint256",
          "name": "",
          "type": "uint256"
        }
      ],
      "name": "candidates",
      "outputs": [
        {
          "internalType": "uint256",
          "name": "id",
          "type": "uint256"
        },
        {
          "internalType": "string",
          "name": "name",
          "type": "string"
        },
        {
          "internalType": "uint256",
          "name": "voteCount",
          "type": "uint256"
        }
      ],
      "stateMutability": "view",
      "type": "function"
    },
    {
      "inputs": [],
      "name": "getAllCandidates",
      "outputs": [
        {
          "components": [
            {
              "internalType": "uint256",
              "name": "id",
              "type": "uint256"
            },
            {
              "internalType": "string",
              "name": "name",
              "type": "string"
            },
            {
              "internalType": "uint256",
              "name": "voteCount",
              "type": "uint256"
            }
          ],
          "internalType": "struct MerkleVoting.Candidate[]",
          "name": "",
          "type": "tuple[]"
        }
      ],
      "stateMutability": "view",
      "type": "function"
    },
    {
      "inputs": [],
      "name": "getCandidateIds",
      "outputs": [
        {
          "internalType": "uint256[]",
          "name": "",
          "type": "uint256[]"
        }
      ],
      "stateMutability": "view",
      "type": "function"
    },
    {
      "inputs": [
        {
          "internalType": "uint256",
          "name": "candidateId",
          "type": "uint256"
        }
      ],
      "name": "getVoteCount",
      "outputs": [
        {
          "internalType": "uint256",
          "name": "",
          "type": "uint256"
        }
      ],
      "stateMutability": "view",
      "type": "function"
    },
    {
      "inputs": [
        {
          "internalType": "address",
          "name": "",
          "type": "address"
        }
      ],
      "name": "hasVoted",
      "outputs": [
        {
          "internalType": "bool",
          "name": "",
          "type": "bool"
        }
      ],
      "stateMutability": "view",
      "type": "function"
    },
    {
      "inputs": [],
      "name": "merkleRoot",
      "outputs": [
        {
          "internalType": "bytes32",
          "name": "",
          "type": "bytes32"
        }
      ],
      "stateMutability": "view",
      "type": "function"
    },
    {
      "inputs": [
        {
          "internalType": "uint256",
          "name": "candidateId",
          "type": "uint256"
        },
        {
          "internalType": "bytes32[]",
          "name": "merkleProof",
          "type": "bytes32[]"
        },
        {
          "internalType": "bytes32",
          "name": "newMerkleRoot",
          "type": "bytes32"
        }
      ],
      "name": "vote",
      "outputs": [],
      "stateMutability": "nonpayable",
      "type": "function"
    }
  ],
  "bytecode": "0x60806040526001600555348015601457600080fd5b50336000806101000a81548173ffffffffffffffffffffffffffffffffffffffff021916908373ffffffffffffffffffffffffffffffffffffffff160217905550611910806100646000396000f3fe608060405234801561001057600080fd5b506004361061009e5760003560e01c8063458936c211610066578063458936c214610171578063462e91ec1461018d578063b2c2f2e8146101a9578063bec0fde2146101d9578063f851a440146101f75761009e565b806303016130146100a357806309eef43e146100d35780632e6997fe146101035780632eb4a7ab146101215780633477ee2e1461013f575b600080fd5b6100bd60048036038101906100b89190610b04565b610215565b6040516100ca9190610b40565b60405180910390f35b6100ed60048036038101906100e89190610bb9565b610239565b6040516100fa9190610c01565b60405180910390f35b61010b610259565b6040516101189190610dcd565b60405180910390f35b6101296103dd565b6040516101369190610e08565b60405180910390f35b61015960048036038101906101549190610b04565b6103e3565b60405161016893929190610e6d565b60405180910390f35b61018b60048036038101906101869190610f3c565b610495565b005b6101a760048036038101906101a291906110e0565b61078d565b005b6101c360048036038101906101be9190610b04565b6108fc565b6040516101d09190610b40565b60405180910390f35b6101e1610974565b6040516101ee91906111d8565b60405180910390f35b6101ff6109cc565b60405161020c9190611209565b60405180910390f35b6004818154811061022557600080fd5b906000526020600020016000915090505481565b60036020528060005260406000206000915054906101000a900460ff1681565b6060600060048054905067ffffffffffffffff81111561027c5761027b610fb5565b5b6040519080825280602002602001820160405280156102b557816020015b6102a2610a99565b81526020019060019003908161029a5790505b50905060005b6004805490508110156103d55760026000600483815481106102e0576102df611224565b5b906000526020600020015481526020019081526020016000206040518060600160405290816000820154815260200160018201805461031e90611282565b80601f016020809104026020016040519081016040528092919081815260200182805461034a90611282565b80156103975780601f1061036c57610100808354040283529160200191610397565b820191906000526020600020905b81548152906001019060200180831161037a57829003601f168201915b505050505081526020016002820154815250508282815181106103bd576103bc611224565b5b602002602001018190525080806001019150506102bb565b508091505090565b60015481565b600260205280600052604060002060009150905080600001549080600101805461040c90611282565b80601f016020809104026020016040519081016040528092919081815260200182805461043890611282565b80156104855780601f1061045a57610100808354040283529160200191610485565b820191906000526020600020905b81548152906001019060200180831161046857829003601f168201915b5050505050908060020154905083565b600360003373ffffffffffffffffffffffffffffffffffffffff1673ffffffffffffffffffffffffffffffffffffffff16815260200190815260200160002060009054906101000a900460ff1615610522576040517f08c379a0000000000000000000000000000000000000000000000000000000008152600401610519906112ff565b60405180910390fd5b600060026000868152602001908152602001600020600001540361057b576040517f08c379a00000000000000000000000000000000000000000000000000000000081526004016105729061136b565b60405180910390fd5b60003360405160200161058e91906113d3565b60405160208183030381529060405280519060200120905060006105f4858580806020026020016040519081016040528093929190818152602001838360200280828437600081840152601f19601f8201169050808301925050505050505084846109f0565b90507fabd97c5993624908b0bd63b4740e2981a4dc373d79bd5bfc327bb278ff921cac828686868560405161062d959493929190611469565b60405180910390a180610675576040517f08c379a000000000000000000000000000000000000000000000000000000000815260040161066c90611503565b60405180910390fd5b6001600360003373ffffffffffffffffffffffffffffffffffffffff1673ffffffffffffffffffffffffffffffffffffffff16815260200190815260200160002060006101000a81548160ff0219169083151502179055506002600087815260200190815260200160002060020160008154809291906106f490611552565b9190505550826001819055507f90004c04698bc3322499a575ed3752dd4abf33e0a7294c06a787a0fe01bea9418360405161072f9190610e08565b60405180910390a13373ffffffffffffffffffffffffffffffffffffffff167f4d99b957a2bc29a30ebd96a7be8e68fe50a3c701db28a91436490b7d53870ca48760405161077d9190610b40565b60405180910390a2505050505050565b60008054906101000a900473ffffffffffffffffffffffffffffffffffffffff1673ffffffffffffffffffffffffffffffffffffffff163373ffffffffffffffffffffffffffffffffffffffff161461081b576040517f08c379a00000000000000000000000000000000000000000000000000000000081526004016108129061160c565b60405180910390fd5b60405180606001604052806005548152602001828152602001600081525060026000600554815260200190815260200160002060008201518160000155602082015181600101908161086d91906117d8565b5060408201518160020155905050600460055490806001815401808255809150506001900390600052602060002001600090919091909150557fe83b2a43e7e82d975c8a0a6d2f045153c869e111136a34d1889ab7b598e396a3600554826040516108d99291906118aa565b60405180910390a1600560008154809291906108f490611552565b919050555050565b600080600260008481526020019081526020016000206000015403610956576040517f08c379a000000000000000000000000000000000000000000000000000000000815260040161094d9061136b565b60405180910390fd5b60026000838152602001908152602001600020600201549050919050565b606060048054806020026020016040519081016040528092919081815260200182805480156109c257602002820191906000526020600020905b8154815260200190600101908083116109ae575b5050505050905090565b60008054906101000a900473ffffffffffffffffffffffffffffffffffffffff1681565b6000826109fd8584610a07565b1490509392505050565b60008082905060005b8451811015610a4c57610a3d82868381518110610a3057610a2f611224565b5b6020026020010151610a57565b91508080600101915050610a10565b508091505092915050565b6000818310610a6f57610a6a8284610a82565b610a7a565b610a798383610a82565b5b905092915050565b600082600052816020526040600020905092915050565b60405180606001604052806000815260200160608152602001600081525090565b6000604051905090565b600080fd5b600080fd5b6000819050919050565b610ae181610ace565b8114610aec57600080fd5b50565b600081359050610afe81610ad8565b92915050565b600060208284031215610b1a57610b19610ac4565b5b6000610b2884828501610aef565b91505092915050565b610b3a81610ace565b82525050565b6000602082019050610b556000830184610b31565b92915050565b600073ffffffffffffffffffffffffffffffffffffffff82169050919050565b6000610b8682610b5b565b9050919050565b610b9681610b7b565b8114610ba157600080fd5b50565b600081359050610bb381610b8d565b92915050565b600060208284031215610bcf57610bce610ac4565b5b6000610bdd84828501610ba4565b91505092915050565b60008115159050919050565b610bfb81610be6565b82525050565b6000602082019050610c166000830184610bf2565b92915050565b600081519050919050565b600082825260208201905092915050565b6000819050602082019050919050565b610c5181610ace565b82525050565b600081519050919050565b600082825260208201905092915050565b60005b83811015610c91578082015181840152602081019050610c76565b60008484015250505050565b6000601f19601f8301169050919050565b6000610cb982610c57565b610cc38185610c62565b9350610cd3818560208601610c73565b610cdc81610c9d565b840191505092915050565b6000606083016000830151610cff6000860182610c48565b5060208301518482036020860152610d178282610cae565b9150506040830151610d2c6040860182610c48565b508091505092915050565b6000610d438383610ce7565b905092915050565b6000602082019050919050565b6000610d6382610c1c565b610d6d8185610c27565b935083602082028501610d7f85610c38565b8060005b85811015610dbb5784840389528151610d9c8582610d37565b9450610da783610d4b565b925060208a01995050600181019050610d83565b50829750879550505050505092915050565b60006020820190508181036000830152610de78184610d58565b905092915050565b6000819050919050565b610e0281610def565b82525050565b6000602082019050610e1d6000830184610df9565b92915050565b600082825260208201905092915050565b6000610e3f82610c57565b610e498185610e23565b9350610e59818560208601610c73565b610e6281610c9d565b840191505092915050565b6000606082019050610e826000830186610b31565b8181036020830152610e948185610e34565b9050610ea36040830184610b31565b949350505050565b600080fd5b600080fd5b600080fd5b60008083601f840112610ed057610ecf610eab565b5b8235905067ffffffffffffffff811115610eed57610eec610eb0565b5b602083019150836020820283011115610f0957610f08610eb5565b5b9250929050565b610f1981610def565b8114610f2457600080fd5b50565b600081359050610f3681610f10565b92915050565b60008060008060608587031215610f5657610f55610ac4565b5b6000610f6487828801610aef565b945050602085013567ffffffffffffffff811115610f8557610f84610ac9565b5b610f9187828801610eba565b93509350506040610fa487828801610f27565b91505092959194509250565b600080fd5b7f4e487b7100000000000000000000000000000000000000000000000000000000600052604160045260246000fd5b610fed82610c9d565b810181811067ffffffffffffffff8211171561100c5761100b610fb5565b5b80604052505050565b600061101f610aba565b905061102b8282610fe4565b919050565b600067ffffffffffffffff82111561104b5761104a610fb5565b5b61105482610c9d565b9050602081019050919050565b82818337600083830152505050565b600061108361107e84611030565b611015565b90508281526020810184848401111561109f5761109e610fb0565b5b6110aa848285611061565b509392505050565b600082601f8301126110c7576110c6610eab565b5b81356110d7848260208601611070565b91505092915050565b6000602082840312156110f6576110f5610ac4565b5b600082013567ffffffffffffffff81111561111457611113610ac9565b5b611120848285016110b2565b91505092915050565b600081519050919050565b600082825260208201905092915050565b6000819050602082019050919050565b60006111618383610c48565b60208301905092915050565b6000602082019050919050565b600061118582611129565b61118f8185611134565b935061119a83611145565b8060005b838110156111cb5781516111b28882611155565b97506111bd8361116d565b92505060018101905061119e565b5085935050505092915050565b600060208201905081810360008301526111f2818461117a565b905092915050565b61120381610b7b565b82525050565b600060208201905061121e60008301846111fa565b92915050565b7f4e487b7100000000000000000000000000000000000000000000000000000000600052603260045260246000fd5b7f4e487b7100000000000000000000000000000000000000000000000000000000600052602260045260246000fd5b6000600282049050600182168061129a57607f821691505b6020821081036112ad576112ac611253565b5b50919050565b7f596f75206861766520616c726561647920766f7465642e000000000000000000600082015250565b60006112e9601783610e23565b91506112f4826112b3565b602082019050919050565b60006020820190508181036000830152611318816112dc565b9050919050565b7f43616e64696461746520646f6573206e6f742065786973742e00000000000000600082015250565b6000611355601983610e23565b91506113608261131f565b602082019050919050565b6000602082019050818103600083015261138481611348565b9050919050565b60008160601b9050919050565b60006113a38261138b565b9050919050565b60006113b582611398565b9050919050565b6113cd6113c882610b7b565b6113aa565b82525050565b60006113df82846113bc565b60148201915081905092915050565b600082825260208201905092915050565b600080fd5b82818337505050565b600061141983856113ee565b93507f07ffffffffffffffffffffffffffffffffffffffffffffffffffffffffffffff83111561144c5761144b6113ff565b5b60208302925061145d838584611404565b82840190509392505050565b600060808201905061147e6000830188610df9565b818103602083015261149181868861140d565b90506114a06040830185610df9565b6114ad6060830184610bf2565b9695505050505050565b7f496e76616c6964204d65726b6c652070726f6f662e0000000000000000000000600082015250565b60006114ed601583610e23565b91506114f8826114b7565b602082019050919050565b6000602082019050818103600083015261151c816114e0565b9050919050565b7f4e487b7100000000000000000000000000000000000000000000000000000000600052601160045260246000fd5b600061155d82610ace565b91507fffffffffffffffffffffffffffffffffffffffffffffffffffffffffffffffff820361158f5761158e611523565b5b600182019050919050565b7f4f6e6c792061646d696e2063616e20706572666f726d2074686973206163746960008201527f6f6e2e0000000000000000000000000000000000000000000000000000000000602082015250565b60006115f6602383610e23565b91506116018261159a565b604082019050919050565b60006020820190508181036000830152611625816115e9565b9050919050565b60008190508160005260206000209050919050565b60006020601f8301049050919050565b600082821b905092915050565b60006008830261168e7fffffffffffffffffffffffffffffffffffffffffffffffffffffffffffffffff82611651565b6116988683611651565b95508019841693508086168417925050509392505050565b6000819050919050565b60006116d56116d06116cb84610ace565b6116b0565b610ace565b9050919050565b6000819050919050565b6116ef836116ba565b6117036116fb826116dc565b84845461165e565b825550505050565b600090565b61171861170b565b6117238184846116e6565b505050565b5b818110156117475761173c600082611710565b600181019050611729565b5050565b601f82111561178c5761175d8161162c565b61176684611641565b81016020851015611775578190505b61178961178185611641565b830182611728565b50505b505050565b600082821c905092915050565b60006117af60001984600802611791565b1980831691505092915050565b60006117c8838361179e565b9150826002028217905092915050565b6117e182610c57565b67ffffffffffffffff8111156117fa576117f9610fb5565b5b6118048254611282565b61180f82828561174b565b600060209050601f8311600181146118425760008415611830578287015190505b61183a85826117bc565b8655506118a2565b601f1984166118508661162c565b60005b8281101561187857848901518255600182019150602085019450602081019050611853565b868310156118955784890151611891601f89168261179e565b8355505b6001600288020188555050505b505050505050565b60006040820190506118bf6000830185610b31565b81810360208301526118d18184610e34565b9050939250505056fea264697066735822122006b453081446ab566393e71c4359a8eacfb7b59140269848e7b5574b2ec8d07964736f6c634300081b0033",
  "linkReferences": {},
  "deployedLinkReferences": {}
}