{
  "_format": "hh-sol-artifact-1",
  "contractName": "Voting",
  "sourceName": "contracts/Voting.sol",
  "abi": [
    {
      "inputs": [],
      "stateMutability": "nonpayable",
      "type": "constructor"
    },
    {
      "anonymous": false,
      "inputs": [
        {
          "indexed": false,
          "internalType": "uint256",
          "name": "candidateId",
          "type": "uint256"
        },
        {
          "indexed": false,
          "internalType": "string",
          "name": "name",
          "type": "string"
        }
      ],
      "name": "CandidateAdded",
      "type": "event"
    },
    {
      "anonymous": false,
      "inputs": [
        {
          "indexed": false,
          "internalType": "address",
          "name": "voter",
          "type": "address"
        },
        {
          "indexed": false,
          "internalType": "uint256",
          "name": "candidateId",
          "type": "uint256"
        }
      ],
      "name": "Voted",
      "type": "event"
    },
    {
      "anonymous": false,
      "inputs": [],
      "name": "VotingEnded",
      "type": "event"
    },
    {
      "anonymous": false,
      "inputs": [],
      "name": "VotingStarted",
      "type": "event"
    },
    {
      "inputs": [
        {
          "internalType": "string",
          "name": "_name",
          "type": "string"
        }
      ],
      "name": "addCandidate",
      "outputs": [],
      "stateMutability": "nonpayable",
      "type": "function"
    },
    {
      "inputs": [],
      "name": "admin",
      "outputs": [
        {
          "internalType": "address",
          "name": "",
          "type": "address"
        }
      ],
      "stateMutability": "view",
      "type": "function"
    },
    {
      "inputs": [
        {
          "internalType": "uint256",
          "name": "",
          "type": "uint256"
        }
      ],
      "name": "candidates",
      "outputs": [
        {
          "internalType": "uint256",
          "name": "id",
          "type": "uint256"
        },
        {
          "internalType": "string",
          "name": "name",
          "type": "string"
        },
        {
          "internalType": "uint256",
          "name": "voteCount",
          "type": "uint256"
        }
      ],
      "stateMutability": "view",
      "type": "function"
    },
    {
      "inputs": [],
      "name": "candidatesCount",
      "outputs": [
        {
          "internalType": "uint256",
          "name": "",
          "type": "uint256"
        }
      ],
      "stateMutability": "view",
      "type": "function"
    },
    {
      "inputs": [],
      "name": "endVoting",
      "outputs": [],
      "stateMutability": "nonpayable",
      "type": "function"
    },
    {
      "inputs": [],
      "name": "getWinner",
      "outputs": [
        {
          "internalType": "uint256",
          "name": "winnerId",
          "type": "uint256"
        },
        {
          "internalType": "string",
          "name": "winnerName",
          "type": "string"
        },
        {
          "internalType": "uint256",
          "name": "winnerVoteCount",
          "type": "uint256"
        }
      ],
      "stateMutability": "view",
      "type": "function"
    },
    {
      "inputs": [],
      "name": "startVoting",
      "outputs": [],
      "stateMutability": "nonpayable",
      "type": "function"
    },
    {
      "inputs": [
        {
          "internalType": "uint256",
          "name": "_candidateId",
          "type": "uint256"
        }
      ],
      "name": "vote",
      "outputs": [],
      "stateMutability": "nonpayable",
      "type": "function"
    },
    {
      "inputs": [
        {
          "internalType": "address",
          "name": "",
          "type": "address"
        }
      ],
      "name": "voters",
      "outputs": [
        {
          "internalType": "bool",
          "name": "hasVoted",
          "type": "bool"
        },
        {
          "internalType": "uint256",
          "name": "candidateId",
          "type": "uint256"
        }
      ],
      "stateMutability": "view",
      "type": "function"
    },
    {
      "inputs": [],
      "name": "votingOpen",
      "outputs": [
        {
          "internalType": "bool",
          "name": "",
          "type": "bool"
        }
      ],
      "stateMutability": "view",
      "type": "function"
    }
  ],
  "bytecode": "0x6080604052348015600f57600080fd5b50336000806101000a81548173ffffffffffffffffffffffffffffffffffffffff021916908373ffffffffffffffffffffffffffffffffffffffff16021790555060008060146101000a81548160ff0219169083151502179055506112f4806100796000396000f3fe608060405234801561001057600080fd5b506004361061009e5760003560e01c80638e7ea5b2116100665780638e7ea5b214610135578063a3ec138d14610155578063a95824b414610186578063c3403ddf146101a4578063f851a440146101ae5761009e565b80630121b93f146100a35780631ec6b60a146100bf5780632d35a8a2146100c95780633477ee2e146100e7578063462e91ec14610119575b600080fd5b6100bd60048036038101906100b89190610983565b6101cc565b005b6100c76103e8565b005b6100d16104bf565b6040516100de91906109bf565b60405180910390f35b61010160048036038101906100fc9190610983565b6104c5565b60405161011093929190610a6a565b60405180910390f35b610133600480360381019061012e9190610bdd565b610577565b005b61013d6106bb565b60405161014c93929190610a6a565b60405180910390f35b61016f600480360381019061016a9190610c84565b6107fb565b60405161017d929190610ccc565b60405180910390f35b61018e61082c565b60405161019b9190610cf5565b60405180910390f35b6101ac61083f565b005b6101b6610915565b6040516101c39190610d1f565b60405180910390f35b600060149054906101000a900460ff1661021b576040517f08c379a000000000000000000000000000000000000000000000000000000000815260040161021290610d86565b60405180910390fd5b600160003373ffffffffffffffffffffffffffffffffffffffff1673ffffffffffffffffffffffffffffffffffffffff16815260200190815260200160002060000160009054906101000a900460ff16156102ab576040517f08c379a00000000000000000000000000000000000000000000000000000000081526004016102a290610df2565b60405180910390fd5b6000811180156102bd57506003548111155b6102fc576040517f08c379a00000000000000000000000000000000000000000000000000000000081526004016102f390610e5e565b60405180910390fd5b604051806040016040528060011515815260200182815250600160003373ffffffffffffffffffffffffffffffffffffffff1673ffffffffffffffffffffffffffffffffffffffff16815260200190815260200160002060008201518160000160006101000a81548160ff021916908315150217905550602082015181600101559050506002600082815260200190815260200160002060020160008154809291906103a790610ead565b91905055507f4d99b957a2bc29a30ebd96a7be8e68fe50a3c701db28a91436490b7d53870ca433826040516103dd929190610ef5565b60405180910390a150565b60008054906101000a900473ffffffffffffffffffffffffffffffffffffffff1673ffffffffffffffffffffffffffffffffffffffff163373ffffffffffffffffffffffffffffffffffffffff1614610476576040517f08c379a000000000000000000000000000000000000000000000000000000000815260040161046d90610f90565b60405180910390fd5b6001600060146101000a81548160ff0219169083151502179055507f877e2548498f42b7975a186b94ef1d32c86d420b7b806dd2be2bea293b89590460405160405180910390a1565b60035481565b60026020528060005260406000206000915090508060000154908060010180546104ee90610fdf565b80601f016020809104026020016040519081016040528092919081815260200182805461051a90610fdf565b80156105675780601f1061053c57610100808354040283529160200191610567565b820191906000526020600020905b81548152906001019060200180831161054a57829003601f168201915b5050505050908060020154905083565b60008054906101000a900473ffffffffffffffffffffffffffffffffffffffff1673ffffffffffffffffffffffffffffffffffffffff163373ffffffffffffffffffffffffffffffffffffffff1614610605576040517f08c379a00000000000000000000000000000000000000000000000000000000081526004016105fc90610f90565b60405180910390fd5b6003600081548092919061061890610ead565b919050555060405180606001604052806003548152602001828152602001600081525060026000600354815260200190815260200160002060008201518160000155602082015181600101908161066f91906111bc565b50604082015181600201559050507fe83b2a43e7e82d975c8a0a6d2f045153c869e111136a34d1889ab7b598e396a3600354826040516106b092919061128e565b60405180910390a150565b60006060600080600090506000600190505b60035481116107f45781600260008381526020019081526020016000206002015411156107e157600260008281526020019081526020016000206002015491506002600082815260200190815260200160002060000154945060026000828152602001908152602001600020600101805461074790610fdf565b80601f016020809104026020016040519081016040528092919081815260200182805461077390610fdf565b80156107c05780601f10610795576101008083540402835291602001916107c0565b820191906000526020600020905b8154815290600101906020018083116107a357829003601f168201915b50505050509350600260008281526020019081526020016000206002015492505b80806107ec90610ead565b9150506106cd565b5050909192565b60016020528060005260406000206000915090508060000160009054906101000a900460ff16908060010154905082565b600060149054906101000a900460ff1681565b60008054906101000a900473ffffffffffffffffffffffffffffffffffffffff1673ffffffffffffffffffffffffffffffffffffffff163373ffffffffffffffffffffffffffffffffffffffff16146108cd576040517f08c379a00000000000000000000000000000000000000000000000000000000081526004016108c490610f90565b60405180910390fd5b60008060146101000a81548160ff0219169083151502179055507f7a19ed057db79e3c2fa0b97a54b43bef4fce74b31bb6c01af514b9a18a7f70ab60405160405180910390a1565b60008054906101000a900473ffffffffffffffffffffffffffffffffffffffff1681565b6000604051905090565b600080fd5b600080fd5b6000819050919050565b6109608161094d565b811461096b57600080fd5b50565b60008135905061097d81610957565b92915050565b60006020828403121561099957610998610943565b5b60006109a78482850161096e565b91505092915050565b6109b98161094d565b82525050565b60006020820190506109d460008301846109b0565b92915050565b600081519050919050565b600082825260208201905092915050565b60005b83811015610a145780820151818401526020810190506109f9565b60008484015250505050565b6000601f19601f8301169050919050565b6000610a3c826109da565b610a4681856109e5565b9350610a568185602086016109f6565b610a5f81610a20565b840191505092915050565b6000606082019050610a7f60008301866109b0565b8181036020830152610a918185610a31565b9050610aa060408301846109b0565b949350505050565b600080fd5b600080fd5b7f4e487b7100000000000000000000000000000000000000000000000000000000600052604160045260246000fd5b610aea82610a20565b810181811067ffffffffffffffff82111715610b0957610b08610ab2565b5b80604052505050565b6000610b1c610939565b9050610b288282610ae1565b919050565b600067ffffffffffffffff821115610b4857610b47610ab2565b5b610b5182610a20565b9050602081019050919050565b82818337600083830152505050565b6000610b80610b7b84610b2d565b610b12565b905082815260208101848484011115610b9c57610b9b610aad565b5b610ba7848285610b5e565b509392505050565b600082601f830112610bc457610bc3610aa8565b5b8135610bd4848260208601610b6d565b91505092915050565b600060208284031215610bf357610bf2610943565b5b600082013567ffffffffffffffff811115610c1157610c10610948565b5b610c1d84828501610baf565b91505092915050565b600073ffffffffffffffffffffffffffffffffffffffff82169050919050565b6000610c5182610c26565b9050919050565b610c6181610c46565b8114610c6c57600080fd5b50565b600081359050610c7e81610c58565b92915050565b600060208284031215610c9a57610c99610943565b5b6000610ca884828501610c6f565b91505092915050565b60008115159050919050565b610cc681610cb1565b82525050565b6000604082019050610ce16000830185610cbd565b610cee60208301846109b0565b9392505050565b6000602082019050610d0a6000830184610cbd565b92915050565b610d1981610c46565b82525050565b6000602082019050610d346000830184610d10565b92915050565b7f566f74696e67206973206e6f742063757272656e746c79206f70656e2e000000600082015250565b6000610d70601d836109e5565b9150610d7b82610d3a565b602082019050919050565b60006020820190508181036000830152610d9f81610d63565b9050919050565b7f596f75206861766520616c726561647920766f7465642e000000000000000000600082015250565b6000610ddc6017836109e5565b9150610de782610da6565b602082019050919050565b60006020820190508181036000830152610e0b81610dcf565b9050919050565b7f496e76616c69642063616e6469646174652049442e0000000000000000000000600082015250565b6000610e486015836109e5565b9150610e5382610e12565b602082019050919050565b60006020820190508181036000830152610e7781610e3b565b9050919050565b7f4e487b7100000000000000000000000000000000000000000000000000000000600052601160045260246000fd5b6000610eb88261094d565b91507fffffffffffffffffffffffffffffffffffffffffffffffffffffffffffffffff8203610eea57610ee9610e7e565b5b600182019050919050565b6000604082019050610f0a6000830185610d10565b610f1760208301846109b0565b9392505050565b7f4f6e6c792061646d696e2063616e20706572666f726d2074686973206163746960008201527f6f6e2e0000000000000000000000000000000000000000000000000000000000602082015250565b6000610f7a6023836109e5565b9150610f8582610f1e565b604082019050919050565b60006020820190508181036000830152610fa981610f6d565b9050919050565b7f4e487b7100000000000000000000000000000000000000000000000000000000600052602260045260246000fd5b60006002820490506001821680610ff757607f821691505b60208210810361100a57611009610fb0565b5b50919050565b60008190508160005260206000209050919050565b60006020601f8301049050919050565b600082821b905092915050565b6000600883026110727fffffffffffffffffffffffffffffffffffffffffffffffffffffffffffffffff82611035565b61107c8683611035565b95508019841693508086168417925050509392505050565b6000819050919050565b60006110b96110b46110af8461094d565b611094565b61094d565b9050919050565b6000819050919050565b6110d38361109e565b6110e76110df826110c0565b848454611042565b825550505050565b600090565b6110fc6110ef565b6111078184846110ca565b505050565b5b8181101561112b576111206000826110f4565b60018101905061110d565b5050565b601f8211156111705761114181611010565b61114a84611025565b81016020851015611159578190505b61116d61116585611025565b83018261110c565b50505b505050565b600082821c905092915050565b600061119360001984600802611175565b1980831691505092915050565b60006111ac8383611182565b9150826002028217905092915050565b6111c5826109da565b67ffffffffffffffff8111156111de576111dd610ab2565b5b6111e88254610fdf565b6111f382828561112f565b600060209050601f8311600181146112265760008415611214578287015190505b61121e85826111a0565b865550611286565b601f19841661123486611010565b60005b8281101561125c57848901518255600182019150602085019450602081019050611237565b868310156112795784890151611275601f891682611182565b8355505b6001600288020188555050505b505050505050565b60006040820190506112a360008301856109b0565b81810360208301526112b58184610a31565b9050939250505056fea2646970667358221220670d2996dd61bdf2e4c51e495f55fd3003f71baa2f96a1021fc79fceeba331c164736f6c634300081b0033",
  "linkReferences": {},
  "deployedLinkReferences": {}
}