{
  "_format": "hh-sol-artifact-1",
  "contractName": "Voting",
  "sourceName": "contracts/Voting.sol",
  "abi": [
    {
      "inputs": [],
      "stateMutability": "nonpayable",
      "type": "constructor"
    },
    {
      "anonymous": false,
      "inputs": [
        {
          "indexed": false,
          "internalType": "uint256",
          "name": "candidateId",
          "type": "uint256"
        },
        {
          "indexed": false,
          "internalType": "string",
          "name": "name",
          "type": "string"
        }
      ],
      "name": "CandidateAdded",
      "type": "event"
    },
    {
      "anonymous": false,
      "inputs": [
        {
          "indexed": false,
          "internalType": "address",
          "name": "voter",
          "type": "address"
        },
        {
          "indexed": false,
          "internalType": "uint256",
          "name": "candidateId",
          "type": "uint256"
        }
      ],
      "name": "Voted",
      "type": "event"
    },
    {
      "inputs": [
        {
          "internalType": "string",
          "name": "_name",
          "type": "string"
        }
      ],
      "name": "addCandidate",
      "outputs": [],
      "stateMutability": "nonpayable",
      "type": "function"
    },
    {
      "inputs": [],
      "name": "admin",
      "outputs": [
        {
          "internalType": "address",
          "name": "",
          "type": "address"
        }
      ],
      "stateMutability": "view",
      "type": "function"
    },
    {
      "inputs": [
        {
          "internalType": "uint256",
          "name": "",
          "type": "uint256"
        }
      ],
      "name": "candidates",
      "outputs": [
        {
          "internalType": "uint256",
          "name": "id",
          "type": "uint256"
        },
        {
          "internalType": "string",
          "name": "name",
          "type": "string"
        },
        {
          "internalType": "uint256",
          "name": "voteCount",
          "type": "uint256"
        }
      ],
      "stateMutability": "view",
      "type": "function"
    },
    {
      "inputs": [],
      "name": "candidatesCount",
      "outputs": [
        {
          "internalType": "uint256",
          "name": "",
          "type": "uint256"
        }
      ],
      "stateMutability": "view",
      "type": "function"
    },
    {
      "inputs": [],
      "name": "getAllCandidates",
      "outputs": [
        {
          "components": [
            {
              "internalType": "uint256",
              "name": "id",
              "type": "uint256"
            },
            {
              "internalType": "string",
              "name": "name",
              "type": "string"
            },
            {
              "internalType": "uint256",
              "name": "voteCount",
              "type": "uint256"
            }
          ],
          "internalType": "struct Voting.Candidate[]",
          "name": "",
          "type": "tuple[]"
        }
      ],
      "stateMutability": "view",
      "type": "function"
    },
    {
      "inputs": [],
      "name": "getWinner",
      "outputs": [
        {
          "internalType": "uint256",
          "name": "winnerId",
          "type": "uint256"
        },
        {
          "internalType": "string",
          "name": "winnerName",
          "type": "string"
        },
        {
          "internalType": "uint256",
          "name": "winnerVoteCount",
          "type": "uint256"
        }
      ],
      "stateMutability": "view",
      "type": "function"
    },
    {
      "inputs": [
        {
          "internalType": "uint256",
          "name": "_candidateId",
          "type": "uint256"
        }
      ],
      "name": "vote",
      "outputs": [],
      "stateMutability": "nonpayable",
      "type": "function"
    },
    {
      "inputs": [
        {
          "internalType": "address",
          "name": "",
          "type": "address"
        }
      ],
      "name": "voters",
      "outputs": [
        {
          "internalType": "bool",
          "name": "hasVoted",
          "type": "bool"
        },
        {
          "internalType": "uint256",
          "name": "candidateId",
          "type": "uint256"
        }
      ],
      "stateMutability": "view",
      "type": "function"
    }
  ],
  "bytecode": "0x6080604052348015600f57600080fd5b50336000806101000a81548173ffffffffffffffffffffffffffffffffffffffff021916908373ffffffffffffffffffffffffffffffffffffffff1602179055506113ba8061005f6000396000f3fe608060405234801561001057600080fd5b50600436106100885760003560e01c8063462e91ec1161005b578063462e91ec146101175780638e7ea5b214610133578063a3ec138d14610153578063f851a4401461018457610088565b80630121b93f1461008d5780632d35a8a2146100a95780632e6997fe146100c75780633477ee2e146100e5575b600080fd5b6100a760048036038101906100a291906108e0565b6101a2565b005b6100b161036f565b6040516100be919061091c565b60405180910390f35b6100cf610375565b6040516100dc9190610ae8565b60405180910390f35b6100ff60048036038101906100fa91906108e0565b6104ea565b60405161010e93929190610b54565b60405180910390f35b610131600480360381019061012c9190610cc7565b61059c565b005b61013b6106e0565b60405161014a93929190610b54565b60405180910390f35b61016d60048036038101906101689190610d6e565b610820565b60405161017b929190610db6565b60405180910390f35b61018c610851565b6040516101999190610dee565b60405180910390f35b600160003373ffffffffffffffffffffffffffffffffffffffff1673ffffffffffffffffffffffffffffffffffffffff16815260200190815260200160002060000160009054906101000a900460ff1615610232576040517f08c379a000000000000000000000000000000000000000000000000000000000815260040161022990610e55565b60405180910390fd5b60008111801561024457506003548111155b610283576040517f08c379a000000000000000000000000000000000000000000000000000000000815260040161027a90610ec1565b60405180910390fd5b604051806040016040528060011515815260200182815250600160003373ffffffffffffffffffffffffffffffffffffffff1673ffffffffffffffffffffffffffffffffffffffff16815260200190815260200160002060008201518160000160006101000a81548160ff0219169083151502179055506020820151816001015590505060026000828152602001908152602001600020600201600081548092919061032e90610f10565b91905055507f4d99b957a2bc29a30ebd96a7be8e68fe50a3c701db28a91436490b7d53870ca43382604051610364929190610f58565b60405180910390a150565b60035481565b6060600060035467ffffffffffffffff81111561039557610394610b9c565b5b6040519080825280602002602001820160405280156103ce57816020015b6103bb610875565b8152602001906001900390816103b35790505b5090506000600190505b60035481116104e257600260008281526020019081526020016000206040518060600160405290816000820154815260200160018201805461041990610fb0565b80601f016020809104026020016040519081016040528092919081815260200182805461044590610fb0565b80156104925780601f1061046757610100808354040283529160200191610492565b820191906000526020600020905b81548152906001019060200180831161047557829003601f168201915b50505050508152602001600282015481525050826001836104b39190610fe1565b815181106104c4576104c3611015565b5b602002602001018190525080806104da90610f10565b9150506103d8565b508091505090565b600260205280600052604060002060009150905080600001549080600101805461051390610fb0565b80601f016020809104026020016040519081016040528092919081815260200182805461053f90610fb0565b801561058c5780601f106105615761010080835404028352916020019161058c565b820191906000526020600020905b81548152906001019060200180831161056f57829003601f168201915b5050505050908060020154905083565b60008054906101000a900473ffffffffffffffffffffffffffffffffffffffff1673ffffffffffffffffffffffffffffffffffffffff163373ffffffffffffffffffffffffffffffffffffffff161461062a576040517f08c379a0000000000000000000000000000000000000000000000000000000008152600401610621906110b6565b60405180910390fd5b6003600081548092919061063d90610f10565b91905055506040518060600160405280600354815260200182815260200160008152506002600060035481526020019081526020016000206000820151816000015560208201518160010190816106949190611282565b50604082015181600201559050507fe83b2a43e7e82d975c8a0a6d2f045153c869e111136a34d1889ab7b598e396a3600354826040516106d5929190611354565b60405180910390a150565b60006060600080600090506000600190505b600354811161081957816002600083815260200190815260200160002060020154111561080657600260008281526020019081526020016000206002015491506002600082815260200190815260200160002060000154945060026000828152602001908152602001600020600101805461076c90610fb0565b80601f016020809104026020016040519081016040528092919081815260200182805461079890610fb0565b80156107e55780601f106107ba576101008083540402835291602001916107e5565b820191906000526020600020905b8154815290600101906020018083116107c857829003601f168201915b50505050509350600260008281526020019081526020016000206002015492505b808061081190610f10565b9150506106f2565b5050909192565b60016020528060005260406000206000915090508060000160009054906101000a900460ff16908060010154905082565b60008054906101000a900473ffffffffffffffffffffffffffffffffffffffff1681565b60405180606001604052806000815260200160608152602001600081525090565b6000604051905090565b600080fd5b600080fd5b6000819050919050565b6108bd816108aa565b81146108c857600080fd5b50565b6000813590506108da816108b4565b92915050565b6000602082840312156108f6576108f56108a0565b5b6000610904848285016108cb565b91505092915050565b610916816108aa565b82525050565b6000602082019050610931600083018461090d565b92915050565b600081519050919050565b600082825260208201905092915050565b6000819050602082019050919050565b61096c816108aa565b82525050565b600081519050919050565b600082825260208201905092915050565b60005b838110156109ac578082015181840152602081019050610991565b60008484015250505050565b6000601f19601f8301169050919050565b60006109d482610972565b6109de818561097d565b93506109ee81856020860161098e565b6109f7816109b8565b840191505092915050565b6000606083016000830151610a1a6000860182610963565b5060208301518482036020860152610a3282826109c9565b9150506040830151610a476040860182610963565b508091505092915050565b6000610a5e8383610a02565b905092915050565b6000602082019050919050565b6000610a7e82610937565b610a888185610942565b935083602082028501610a9a85610953565b8060005b85811015610ad65784840389528151610ab78582610a52565b9450610ac283610a66565b925060208a01995050600181019050610a9e565b50829750879550505050505092915050565b60006020820190508181036000830152610b028184610a73565b905092915050565b600082825260208201905092915050565b6000610b2682610972565b610b308185610b0a565b9350610b4081856020860161098e565b610b49816109b8565b840191505092915050565b6000606082019050610b69600083018661090d565b8181036020830152610b7b8185610b1b565b9050610b8a604083018461090d565b949350505050565b600080fd5b600080fd5b7f4e487b7100000000000000000000000000000000000000000000000000000000600052604160045260246000fd5b610bd4826109b8565b810181811067ffffffffffffffff82111715610bf357610bf2610b9c565b5b80604052505050565b6000610c06610896565b9050610c128282610bcb565b919050565b600067ffffffffffffffff821115610c3257610c31610b9c565b5b610c3b826109b8565b9050602081019050919050565b82818337600083830152505050565b6000610c6a610c6584610c17565b610bfc565b905082815260208101848484011115610c8657610c85610b97565b5b610c91848285610c48565b509392505050565b600082601f830112610cae57610cad610b92565b5b8135610cbe848260208601610c57565b91505092915050565b600060208284031215610cdd57610cdc6108a0565b5b600082013567ffffffffffffffff811115610cfb57610cfa6108a5565b5b610d0784828501610c99565b91505092915050565b600073ffffffffffffffffffffffffffffffffffffffff82169050919050565b6000610d3b82610d10565b9050919050565b610d4b81610d30565b8114610d5657600080fd5b50565b600081359050610d6881610d42565b92915050565b600060208284031215610d8457610d836108a0565b5b6000610d9284828501610d59565b91505092915050565b60008115159050919050565b610db081610d9b565b82525050565b6000604082019050610dcb6000830185610da7565b610dd8602083018461090d565b9392505050565b610de881610d30565b82525050565b6000602082019050610e036000830184610ddf565b92915050565b7f596f75206861766520616c726561647920766f7465642e000000000000000000600082015250565b6000610e3f601783610b0a565b9150610e4a82610e09565b602082019050919050565b60006020820190508181036000830152610e6e81610e32565b9050919050565b7f496e76616c69642063616e6469646174652049442e0000000000000000000000600082015250565b6000610eab601583610b0a565b9150610eb682610e75565b602082019050919050565b60006020820190508181036000830152610eda81610e9e565b9050919050565b7f4e487b7100000000000000000000000000000000000000000000000000000000600052601160045260246000fd5b6000610f1b826108aa565b91507fffffffffffffffffffffffffffffffffffffffffffffffffffffffffffffffff8203610f4d57610f4c610ee1565b5b600182019050919050565b6000604082019050610f6d6000830185610ddf565b610f7a602083018461090d565b9392505050565b7f4e487b7100000000000000000000000000000000000000000000000000000000600052602260045260246000fd5b60006002820490506001821680610fc857607f821691505b602082108103610fdb57610fda610f81565b5b50919050565b6000610fec826108aa565b9150610ff7836108aa565b925082820390508181111561100f5761100e610ee1565b5b92915050565b7f4e487b7100000000000000000000000000000000000000000000000000000000600052603260045260246000fd5b7f4f6e6c792061646d696e2063616e20706572666f726d2074686973206163746960008201527f6f6e2e0000000000000000000000000000000000000000000000000000000000602082015250565b60006110a0602383610b0a565b91506110ab82611044565b604082019050919050565b600060208201905081810360008301526110cf81611093565b9050919050565b60008190508160005260206000209050919050565b60006020601f8301049050919050565b600082821b905092915050565b6000600883026111387fffffffffffffffffffffffffffffffffffffffffffffffffffffffffffffffff826110fb565b61114286836110fb565b95508019841693508086168417925050509392505050565b6000819050919050565b600061117f61117a611175846108aa565b61115a565b6108aa565b9050919050565b6000819050919050565b61119983611164565b6111ad6111a582611186565b848454611108565b825550505050565b600090565b6111c26111b5565b6111cd818484611190565b505050565b5b818110156111f1576111e66000826111ba565b6001810190506111d3565b5050565b601f82111561123657611207816110d6565b611210846110eb565b8101602085101561121f578190505b61123361122b856110eb565b8301826111d2565b50505b505050565b600082821c905092915050565b60006112596000198460080261123b565b1980831691505092915050565b60006112728383611248565b9150826002028217905092915050565b61128b82610972565b67ffffffffffffffff8111156112a4576112a3610b9c565b5b6112ae8254610fb0565b6112b98282856111f5565b600060209050601f8311600181146112ec57600084156112da578287015190505b6112e48582611266565b86555061134c565b601f1984166112fa866110d6565b60005b82811015611322578489015182556001820191506020850194506020810190506112fd565b8683101561133f578489015161133b601f891682611248565b8355505b6001600288020188555050505b505050505050565b6000604082019050611369600083018561090d565b818103602083015261137b8184610b1b565b9050939250505056fea2646970667358221220f0fbfa42d90d0e8310cc85ec0e5153ceae52283ac9456c0f9800ebebb3adee1264736f6c634300081b0033",
  "linkReferences": {},
  "deployedLinkReferences": {}
}